{"contracts/MountainSharesComplianceFramework.sol":{"MountainSharesComplianceFramework":{"abi":[{"inputs":[],"stateMutability":"nonpayable","type":"constructor"},{"anonymous":false,"inputs":[{"indexed":true,"internalType":"address","name":"owner","type":"address"},{"indexed":true,"internalType":"address","name":"spender","type":"address"},{"indexed":false,"internalType":"uint256","name":"value","type":"uint256"}],"name":"Approval","type":"event"},{"anonymous":false,"inputs":[{"indexed":true,"internalType":"address","name":"actor","type":"address"},{"indexed":false,"internalType":"string","name":"action","type":"string"},{"indexed":false,"internalType":"uint256","name":"timestamp","type":"uint256"}],"name":"AuditEventLogged","type":"event"},{"anonymous":false,"inputs":[{"indexed":false,"internalType":"uint256","name":"quarter","type":"uint256"},{"indexed":false,"internalType":"uint256","name":"totalTransactions","type":"uint256"}],"name":"ComplianceReportGenerated","type":"event"},{"anonymous":false,"inputs":[{"indexed":true,"internalType":"address","name":"responder","type":"address"},{"indexed":false,"internalType":"string","name":"femaNumber","type":"string"}],"name":"EmergencyAuthorizationGranted","type":"event"},{"anonymous":false,"inputs":[{"indexed":false,"internalType":"uint256","name":"totalUnlocked","type":"uint256"},{"indexed":false,"internalType":"uint256","name":"affectedUsers","type":"uint256"}],"name":"FoundationPhaseUnlocked","type":"event"},{"anonymous":false,"inputs":[{"indexed":true,"internalType":"address","name":"user","type":"address"},{"indexed":false,"internalType":"bool","name":"verified","type":"bool"},{"indexed":false,"internalType":"string","name":"jurisdiction","type":"string"}],"name":"KYCStatusUpdated","type":"event"},{"anonymous":false,"inputs":[{"indexed":true,"internalType":"address","name":"user","type":"address"},{"indexed":false,"internalType":"uint256","name":"amount","type":"uint256"},{"indexed":false,"internalType":"string","name":"reason","type":"string"}],"name":"LockedTokensIssued","type":"event"},{"anonymous":false,"inputs":[{"indexed":false,"internalType":"address","name":"account","type":"address"}],"name":"Paused","type":"event"},{"anonymous":false,"inputs":[{"indexed":false,"internalType":"string","name":"reason","type":"string"},{"indexed":false,"internalType":"address","name":"pausedBy","type":"address"}],"name":"RegulatoryPauseActivated","type":"event"},{"anonymous":false,"inputs":[{"indexed":true,"internalType":"bytes32","name":"role","type":"bytes32"},{"indexed":true,"internalType":"bytes32","name":"previousAdminRole","type":"bytes32"},{"indexed":true,"internalType":"bytes32","name":"newAdminRole","type":"bytes32"}],"name":"RoleAdminChanged","type":"event"},{"anonymous":false,"inputs":[{"indexed":true,"internalType":"bytes32","name":"role","type":"bytes32"},{"indexed":true,"internalType":"address","name":"account","type":"address"},{"indexed":true,"internalType":"address","name":"sender","type":"address"}],"name":"RoleGranted","type":"event"},{"anonymous":false,"inputs":[{"indexed":true,"internalType":"bytes32","name":"role","type":"bytes32"},{"indexed":true,"internalType":"address","name":"account","type":"address"},{"indexed":true,"internalType":"address","name":"sender","type":"address"}],"name":"RoleRevoked","type":"event"},{"anonymous":false,"inputs":[{"indexed":true,"internalType":"address","name":"from","type":"address"},{"indexed":true,"internalType":"address","name":"to","type":"address"},{"indexed":false,"internalType":"uint256","name":"amount","type":"uint256"},{"indexed":false,"internalType":"string","name":"reason","type":"string"}],"name":"SuspiciousActivityDetected","type":"event"},{"anonymous":false,"inputs":[{"indexed":true,"internalType":"address","name":"from","type":"address"},{"indexed":true,"internalType":"address","name":"to","type":"address"},{"indexed":false,"internalType":"uint256","name":"value","type":"uint256"}],"name":"Transfer","type":"event"},{"anonymous":false,"inputs":[{"indexed":false,"internalType":"address","name":"account","type":"address"}],"name":"Unpaused","type":"event"},{"inputs":[],"name":"AML_ANALYST_ROLE","outputs":[{"internalType":"bytes32","name":"","type":"bytes32"}],"stateMutability":"view","type":"function"},{"inputs":[],"name":"AUDITOR_ROLE","outputs":[{"internalType":"bytes32","name":"","type":"bytes32"}],"stateMutability":"view","type":"function"},{"inputs":[],"name":"COMPLIANCE_OFFICER_ROLE","outputs":[{"internalType":"bytes32","name":"","type":"bytes32"}],"stateMutability":"view","type":"function"},{"inputs":[],"name":"DAILY_LIMIT","outputs":[{"internalType":"uint256","name":"","type":"uint256"}],"stateMutability":"view","type":"function"},{"inputs":[],"name":"DEFAULT_ADMIN_ROLE","outputs":[{"internalType":"bytes32","name":"","type":"bytes32"}],"stateMutability":"view","type":"function"},{"inputs":[],"name":"EMERGENCY_RESPONDER_ROLE","outputs":[{"internalType":"bytes32","name":"","type":"bytes32"}],"stateMutability":"view","type":"function"},{"inputs":[],"name":"REGULATORY_LIAISON_ROLE","outputs":[{"internalType":"bytes32","name":"","type":"bytes32"}],"stateMutability":"view","type":"function"},{"inputs":[],"name":"SUSPICIOUS_THRESHOLD","outputs":[{"internalType":"uint256","name":"","type":"uint256"}],"stateMutability":"view","type":"function"},{"inputs":[],"name":"VELOCITY_THRESHOLD","outputs":[{"internalType":"uint256","name":"","type":"uint256"}],"stateMutability":"view","type":"function"},{"inputs":[{"internalType":"address","name":"owner","type":"address"},{"internalType":"address","name":"spender","type":"address"}],"name":"allowance","outputs":[{"internalType":"uint256","name":"","type":"uint256"}],"stateMutability":"view","type":"function"},{"inputs":[{"internalType":"address","name":"spender","type":"address"},{"internalType":"uint256","name":"amount","type":"uint256"}],"name":"approve","outputs":[{"internalType":"bool","name":"","type":"bool"}],"stateMutability":"nonpayable","type":"function"},{"inputs":[{"internalType":"string","name":"","type":"string"}],"name":"approvedJurisdictions","outputs":[{"internalType":"bool","name":"","type":"bool"}],"stateMutability":"view","type":"function"},{"inputs":[{"internalType":"uint256","name":"","type":"uint256"}],"name":"auditTrail","outputs":[{"internalType":"address","name":"actor","type":"address"},{"internalType":"string","name":"action","type":"string"},{"internalType":"string","name":"details","type":"string"},{"internalType":"uint256","name":"timestamp","type":"uint256"},{"internalType":"bytes32","name":"transactionHash","type":"bytes32"}],"stateMutability":"view","type":"function"},{"inputs":[{"internalType":"address","name":"account","type":"address"}],"name":"balanceOf","outputs":[{"internalType":"uint256","name":"","type":"uint256"}],"stateMutability":"view","type":"function"},{"inputs":[],"name":"claimUnlockedTokens","outputs":[],"stateMutability":"nonpayable","type":"function"},{"inputs":[{"internalType":"address","name":"","type":"address"}],"name":"culturalContributions","outputs":[{"internalType":"uint256","name":"","type":"uint256"}],"stateMutability":"view","type":"function"},{"inputs":[{"internalType":"address","name":"","type":"address"}],"name":"dailyTransactionVolume","outputs":[{"internalType":"uint256","name":"","type":"uint256"}],"stateMutability":"view","type":"function"},{"inputs":[],"name":"decimals","outputs":[{"internalType":"uint8","name":"","type":"uint8"}],"stateMutability":"view","type":"function"},{"inputs":[{"internalType":"address","name":"spender","type":"address"},{"internalType":"uint256","name":"subtractedValue","type":"uint256"}],"name":"decreaseAllowance","outputs":[{"internalType":"bool","name":"","type":"bool"}],"stateMutability":"nonpayable","type":"function"},{"inputs":[{"internalType":"address","name":"","type":"address"}],"name":"emergencyAuthorizations","outputs":[{"internalType":"bool","name":"isAuthorized","type":"bool"},{"internalType":"string","name":"femaRegistrationNumber","type":"string"},{"internalType":"uint256","name":"authorizationExpiry","type":"uint256"},{"internalType":"string","name":"responderType","type":"string"},{"internalType":"bool","name":"isActive","type":"bool"}],"stateMutability":"view","type":"function"},{"inputs":[],"name":"foundationPhaseUnlocked","outputs":[{"internalType":"bool","name":"","type":"bool"}],"stateMutability":"view","type":"function"},{"inputs":[{"internalType":"uint256","name":"quarter","type":"uint256"}],"name":"generateQuarterlyReport","outputs":[{"components":[{"internalType":"uint256","name":"reportingPeriod","type":"uint256"},{"internalType":"uint256","name":"totalTokensIssued","type":"uint256"},{"internalType":"uint256","name":"emergencyRewards","type":"uint256"},{"internalType":"uint256","name":"culturalRewards","type":"uint256"},{"internalType":"uint256","name":"activeUsers","type":"uint256"},{"internalType":"uint256","name":"suspiciousTransactions","type":"uint256"},{"internalType":"uint256","name":"investigatedCases","type":"uint256"},{"internalType":"string[]","name":"affectedJurisdictions","type":"string[]"}],"internalType":"struct MountainSharesComplianceFramework.ComplianceReport","name":"","type":"tuple"}],"stateMutability":"nonpayable","type":"function"},{"inputs":[{"internalType":"uint256","name":"index","type":"uint256"}],"name":"getAuditEvent","outputs":[{"components":[{"internalType":"address","name":"actor","type":"address"},{"internalType":"string","name":"action","type":"string"},{"internalType":"string","name":"details","type":"string"},{"internalType":"uint256","name":"timestamp","type":"uint256"},{"internalType":"bytes32","name":"transactionHash","type":"bytes32"}],"internalType":"struct MountainSharesComplianceFramework.AuditEvent","name":"","type":"tuple"}],"stateMutability":"view","type":"function"},{"inputs":[],"name":"getAuditTrailLength","outputs":[{"internalType":"uint256","name":"","type":"uint256"}],"stateMutability":"view","type":"function"},{"inputs":[{"internalType":"address","name":"user","type":"address"}],"name":"getLockedBalance","outputs":[{"internalType":"uint256","name":"","type":"uint256"}],"stateMutability":"view","type":"function"},{"inputs":[{"internalType":"bytes32","name":"role","type":"bytes32"}],"name":"getRoleAdmin","outputs":[{"internalType":"bytes32","name":"","type":"bytes32"}],"stateMutability":"view","type":"function"},{"inputs":[{"internalType":"address","name":"user","type":"address"}],"name":"getUserEmergencyAuth","outputs":[{"components":[{"internalType":"bool","name":"isAuthorized","type":"bool"},{"internalType":"string","name":"femaRegistrationNumber","type":"string"},{"internalType":"string[]","name":"authorizedStates","type":"string[]"},{"internalType":"uint256","name":"authorizationExpiry","type":"uint256"},{"internalType":"string","name":"responderType","type":"string"},{"internalType":"bool","name":"isActive","type":"bool"}],"internalType":"struct MountainSharesComplianceFramework.EmergencyAuthorization","name":"","type":"tuple"}],"stateMutability":"view","type":"function"},{"inputs":[{"internalType":"address","name":"user","type":"address"}],"name":"getUserKYCStatus","outputs":[{"components":[{"internalType":"bool","name":"isVerified","type":"bool"},{"internalType":"bool","name":"isEmergencyResponder","type":"bool"},{"internalType":"string","name":"jurisdiction","type":"string"},{"internalType":"uint256","name":"verificationTimestamp","type":"uint256"},{"internalType":"uint256","name":"verificationExpiry","type":"uint256"},{"internalType":"address","name":"verifiedBy","type":"address"},{"internalType":"string","name":"kycLevel","type":"string"}],"internalType":"struct MountainSharesComplianceFramework.KYCProfile","name":"","type":"tuple"}],"stateMutability":"view","type":"function"},{"inputs":[{"internalType":"bytes32","name":"role","type":"bytes32"},{"internalType":"address","name":"account","type":"address"}],"name":"grantRole","outputs":[],"stateMutability":"nonpayable","type":"function"},{"inputs":[{"internalType":"bytes32","name":"role","type":"bytes32"},{"internalType":"address","name":"account","type":"address"}],"name":"hasRole","outputs":[{"internalType":"bool","name":"","type":"bool"}],"stateMutability":"view","type":"function"},{"inputs":[{"internalType":"address","name":"spender","type":"address"},{"internalType":"uint256","name":"addedValue","type":"uint256"}],"name":"increaseAllowance","outputs":[{"internalType":"bool","name":"","type":"bool"}],"stateMutability":"nonpayable","type":"function"},{"inputs":[{"internalType":"string","name":"jurisdiction","type":"string"}],"name":"isJurisdictionApproved","outputs":[{"internalType":"bool","name":"","type":"bool"}],"stateMutability":"view","type":"function"},{"inputs":[{"internalType":"string","name":"state","type":"string"}],"name":"isStatePaused","outputs":[{"internalType":"bool","name":"","type":"bool"}],"stateMutability":"view","type":"function"},{"inputs":[{"internalType":"address","name":"","type":"address"}],"name":"kycProfiles","outputs":[{"internalType":"bool","name":"isVerified","type":"bool"},{"internalType":"bool","name":"isEmergencyResponder","type":"bool"},{"internalType":"string","name":"jurisdiction","type":"string"},{"internalType":"uint256","name":"verificationTimestamp","type":"uint256"},{"internalType":"uint256","name":"verificationExpiry","type":"uint256"},{"internalType":"address","name":"verifiedBy","type":"address"},{"internalType":"string","name":"kycLevel","type":"string"}],"stateMutability":"view","type":"function"},{"inputs":[{"internalType":"address","name":"","type":"address"}],"name":"lastTransactionDate","outputs":[{"internalType":"uint256","name":"","type":"uint256"}],"stateMutability":"view","type":"function"},{"inputs":[{"internalType":"address","name":"","type":"address"}],"name":"lockedBalances","outputs":[{"internalType":"uint256","name":"","type":"uint256"}],"stateMutability":"view","type":"function"},{"inputs":[{"internalType":"address","name":"contributor","type":"address"},{"internalType":"uint256","name":"amount","type":"uint256"},{"internalType":"string","name":"culturalAssetId","type":"string"},{"internalType":"bool","name":"isLocked","type":"bool"}],"name":"mintCulturalContribution","outputs":[],"stateMutability":"nonpayable","type":"function"},{"inputs":[{"internalType":"address","name":"responder","type":"address"},{"internalType":"uint256","name":"amount","type":"uint256"},{"internalType":"string","name":"jurisdiction","type":"string"},{"internalType":"bytes32","name":"emergencyEventId","type":"bytes32"},{"internalType":"string","name":"alertType","type":"string"}],"name":"mintEmergencyReward","outputs":[],"stateMutability":"nonpayable","type":"function"},{"inputs":[],"name":"name","outputs":[{"internalType":"string","name":"","type":"string"}],"stateMutability":"view","type":"function"},{"inputs":[{"internalType":"string","name":"state","type":"string"},{"internalType":"string","name":"reason","type":"string"}],"name":"pauseState","outputs":[],"stateMutability":"nonpayable","type":"function"},{"inputs":[{"internalType":"string","name":"reason","type":"string"}],"name":"pauseSystem","outputs":[],"stateMutability":"nonpayable","type":"function"},{"inputs":[],"name":"paused","outputs":[{"internalType":"bool","name":"","type":"bool"}],"stateMutability":"view","type":"function"},{"inputs":[{"internalType":"uint256","name":"","type":"uint256"}],"name":"quarterlyReports","outputs":[{"internalType":"uint256","name":"reportingPeriod","type":"uint256"},{"internalType":"uint256","name":"totalTokensIssued","type":"uint256"},{"internalType":"uint256","name":"emergencyRewards","type":"uint256"},{"internalType":"uint256","name":"culturalRewards","type":"uint256"},{"internalType":"uint256","name":"activeUsers","type":"uint256"},{"internalType":"uint256","name":"suspiciousTransactions","type":"uint256"},{"internalType":"uint256","name":"investigatedCases","type":"uint256"}],"stateMutability":"view","type":"function"},{"inputs":[{"internalType":"bytes32","name":"role","type":"bytes32"},{"internalType":"address","name":"account","type":"address"}],"name":"renounceRole","outputs":[],"stateMutability":"nonpayable","type":"function"},{"inputs":[{"internalType":"bytes32","name":"role","type":"bytes32"},{"internalType":"address","name":"account","type":"address"}],"name":"revokeRole","outputs":[],"stateMutability":"nonpayable","type":"function"},{"inputs":[{"internalType":"address","name":"responder","type":"address"},{"internalType":"bool","name":"authorized","type":"bool"},{"internalType":"string","name":"femaNumber","type":"string"},{"internalType":"string[]","name":"authorizedStates","type":"string[]"},{"internalType":"uint256","name":"expiryDays","type":"uint256"},{"internalType":"string","name":"responderType","type":"string"}],"name":"setEmergencyResponderAuthorization","outputs":[],"stateMutability":"nonpayable","type":"function"},{"inputs":[{"internalType":"address","name":"user","type":"address"},{"internalType":"bool","name":"verified","type":"bool"},{"internalType":"string","name":"jurisdiction","type":"string"},{"internalType":"string","name":"kycLevel","type":"string"},{"internalType":"uint256","name":"expiryDays","type":"uint256"}],"name":"setKYCStatus","outputs":[],"stateMutability":"nonpayable","type":"function"},{"inputs":[{"internalType":"string","name":"","type":"string"}],"name":"stateAuthorized","outputs":[{"internalType":"bool","name":"","type":"bool"}],"stateMutability":"view","type":"function"},{"inputs":[{"internalType":"string","name":"","type":"string"}],"name":"statePaused","outputs":[{"internalType":"bool","name":"","type":"bool"}],"stateMutability":"view","type":"function"},{"inputs":[{"internalType":"bytes4","name":"interfaceId","type":"bytes4"}],"name":"supportsInterface","outputs":[{"internalType":"bool","name":"","type":"bool"}],"stateMutability":"view","type":"function"},{"inputs":[],"name":"symbol","outputs":[{"internalType":"string","name":"","type":"string"}],"stateMutability":"view","type":"function"},{"inputs":[],"name":"totalLockedTokens","outputs":[{"internalType":"uint256","name":"","type":"uint256"}],"stateMutability":"view","type":"function"},{"inputs":[],"name":"totalSupply","outputs":[{"internalType":"uint256","name":"","type":"uint256"}],"stateMutability":"view","type":"function"},{"inputs":[{"internalType":"bytes32","name":"","type":"bytes32"}],"name":"transactionRecords","outputs":[{"internalType":"address","name":"from","type":"address"},{"internalType":"address","name":"to","type":"address"},{"internalType":"uint256","name":"amount","type":"uint256"},{"internalType":"uint256","name":"timestamp","type":"uint256"},{"internalType":"string","name":"transactionType","type":"string"},{"internalType":"string","name":"jurisdiction","type":"string"},{"internalType":"bool","name":"flaggedForReview","type":"bool"},{"internalType":"bool","name":"investigated","type":"bool"},{"internalType":"string","name":"investigationNotes","type":"string"}],"stateMutability":"view","type":"function"},{"inputs":[{"internalType":"address","name":"to","type":"address"},{"internalType":"uint256","name":"amount","type":"uint256"}],"name":"transfer","outputs":[{"internalType":"bool","name":"","type":"bool"}],"stateMutability":"nonpayable","type":"function"},{"inputs":[{"internalType":"address","name":"from","type":"address"},{"internalType":"address","name":"to","type":"address"},{"internalType":"uint256","name":"amount","type":"uint256"}],"name":"transferFrom","outputs":[{"internalType":"bool","name":"","type":"bool"}],"stateMutability":"nonpayable","type":"function"},{"inputs":[],"name":"unlockFoundationPhase","outputs":[],"stateMutability":"nonpayable","type":"function"},{"inputs":[{"internalType":"string","name":"state","type":"string"}],"name":"unpauseState","outputs":[],"stateMutability":"nonpayable","type":"function"},{"inputs":[],"name":"unpauseSystem","outputs":[],"stateMutability":"nonpayable","type":"function"}],"evm":{"bytecode":{"linkReferences":{},"object":"60806040526013805460ff191690553480156200001b57600080fd5b506040518060400160405280600e81526020016d4d6f756e7461696e53686172657360901b815250604051806040016040528060028152602001614d5360f01b81525081600390816200006f9190620003da565b5060046200007e8282620003da565b50506006805460ff191690555060016007556200009d60003362000290565b620000c97fb6f0283bd1ed00c6aa7e988a7516070240f3610a34d167391359b648eb37cefc3362000290565b60016011604051620000e390612bab60f11b815260020190565b90815260408051918290036020018220805493151560ff1994851617905561504160f01b8252601160028084018290528251938490036022908101852080548716600190811790915561564160f01b8652858301849052845195869003820186208054881682179055614b5960f01b8652858301849052845195869003820186208054881682179055612a2760f11b8652858301849052845195869003820186208054881682179055614e4360f01b86529185019290925282519384900390910183208054851682179055642aa996abab60d91b8352600960058085018290528351948590036025908101862080548816851790556455532d504160d81b86528582018390528451958690038101862080548816851790556455532d564160d81b86528582018390528451958690038101862080548816851790556455532d4b5960d81b8652858201839052845195869003810186208054881685179055642aa996aa2760d91b86528582018390528451958690038101862080548816851790556455532d4e4360d81b8652908501919091529151928390039091019091208054909216179055620004a6565b60008281526005602090815260408083206001600160a01b038516845290915290205460ff16620003315760008281526005602090815260408083206001600160a01b03851684529091529020805460ff19166001179055620002f03390565b6001600160a01b0316816001600160a01b0316837f2f8788117e7eff1d82e926ec794901d17c78024a50270940304540a733656f0d60405160405180910390a45b5050565b634e487b7160e01b600052604160045260246000fd5b600181811c908216806200036057607f821691505b6020821081036200038157634e487b7160e01b600052602260045260246000fd5b50919050565b601f821115620003d557600081815260208120601f850160051c81016020861015620003b05750805b601f850160051c820191505b81811015620003d157828155600101620003bc565b5050505b505050565b81516001600160401b03811115620003f657620003f662000335565b6200040e816200040784546200034b565b8462000387565b602080601f8311600181146200044657600084156200042d5750858301515b600019600386901b1c1916600185901b178555620003d1565b600085815260208120601f198616915b82811015620004775788860151825594840194600190910190840162000456565b5085821015620004965787850151600019600388901b60f8161c191681555b5050505050600190811b01905550565b61457780620004b66000396000f3fe608060405234801561001057600080fd5b50600436106103995760003560e01c80635c975abb116101e9578063af1f2bec1161010f578063dda5f1ed116100ad578063f4da16fc1161007c578063f4da16fc14610950578063f5c476f914610970578063fb8efcd214610979578063fdf0572e1461098c57600080fd5b8063dda5f1ed146108cc578063ddaf0929146108ec578063e1b628b514610910578063ec84a20c1461093057600080fd5b8063d5004c7c116100e9578063d5004c7c1461086f578063d547741f14610882578063dcbb7e0714610895578063dd62ed3e146108b957600080fd5b8063af1f2bec1461079f578063c4086893146107c6578063c813eb10146107ef57600080fd5b80637c27d56d116101875780639990edfd116101565780639990edfd14610769578063a217fddf14610771578063a457c2d714610779578063a9059cbb1461078c57600080fd5b80637c27d56d146107165780637f52d8041461072757806391d148541461074e57806395d89b411461076157600080fd5b80636e1d616e116101c35780636e1d616e1461067257806370a082311461069957806370db8a6d146106c2578063723eb8e3146106f057600080fd5b80635c975abb1461062d57806360732aae14610638578063665e49d51461065f57600080fd5b806336568abe116102ce5780634b50640f1161026c57806352dfee051161023b57806352dfee05146105d757806353fbb8f0146105ea57806354b78c57146106185780635643ec181461062557600080fd5b80634b50640f146105945780634bc7f7491461059c5780634c761240146105bc5780634dd39fd9146105c457600080fd5b806339509351116102a857806339509351146105235780633f454a9614610536578063470b564614610564578063492703151461058c57600080fd5b806336568abe146104ea578063380dccd6146104fd57806338c8383c1461051057600080fd5b8063198596b51161033b578063248ec32611610315578063248ec326146104a457806326695f2a146104b55780632f2ff15d146104c8578063313ce567146104db57600080fd5b8063198596b51461045957806323b872dd1461046e578063248a9ca31461048157600080fd5b806306fdde031161037757806306fdde0314610414578063095ea7b314610429578063171c3ec01461043c57806318160ddd1461045157600080fd5b806301ffc9a71461039e5780630483a7f6146103c657806305e21c83146103f4575b600080fd5b6103b16103ac3660046138b8565b6109ac565b60405190151581526020015b60405180910390f35b6103e66103d43660046138fe565b600e6020526000908152604090205481565b6040519081526020016103bd565b610407610402366004613919565b6109e3565b6040516103bd9190613982565b61041c610bef565b6040516103bd91906139ee565b6103b1610437366004613a01565b610c81565b61044f61044a366004613ae2565b610c99565b005b6002546103e6565b6103e660008051602061452283398151915281565b6103b161047c366004613b1f565b610d1c565b6103e661048f366004613919565b60009081526005602052604090206001015490565b6103e669021e19e0c9bab240000081565b61044f6104c3366004613b6b565b610e75565b61044f6104d6366004613bf8565b611025565b604051601281526020016103bd565b61044f6104f8366004613bf8565b61104f565b6103b161050b366004613ae2565b6110c9565b6103b161051e366004613ae2565b6110f4565b6103b1610531366004613a01565b611106565b6103b1610544366004613ae2565b805160208183018101805160098252928201919093012091525460ff1681565b610577610572366004613919565b611128565b6040516103bd99989796959493929190613c24565b6014546103e6565b61044f61131f565b6103e66105aa3660046138fe565b600d6020526000908152604090205481565b61044f61146f565b61044f6105d2366004613ca8565b6114f5565b61044f6105e5366004613d0c565b611572565b6103b16105f8366004613ae2565b805160208183018101805160118252928201919093012091525460ff1681565b6013546103b19060ff1681565b61044f61177f565b60065460ff166103b1565b6103e67f3a45c6a482aa4ef53aae9c68a27aa58b0b6d227f7bc2b099da822572d733fa4c81565b61044f61066d366004613d94565b6118a7565b6103e67f59a1c48e5837ad7a7f3dcedcbe129bf3249ec4fbf651fd4f5e2600ead39fe2f581565b6103e66106a73660046138fe565b6001600160a01b031660009081526020819052604090205490565b6103b16106d0366004613ae2565b805160208183018101805160108252928201919093012091525460ff1681565b6107036106fe3660046138fe565b611a43565b6040516103bd9796959493929190613ec8565b6103e669010f0cf064dd5920000081565b6103e67fbc5e62d12c2ceca70897f1b45b6db8f69577a836114666e7ae0326805e5f928781565b6103b161075c366004613bf8565b611ba4565b61041c611bcf565b6103e6600381565b6103e6600081565b6103b1610787366004613a01565b611bde565b6103b161079a366004613a01565b611c64565b6103e67fff667e899105a034f5c7114fa50ebe449e29c47c422f2ce3d860e3a368a91c3281565b6103e66107d43660046138fe565b6001600160a01b03166000908152600e602052604090205490565b61083a6107fd366004613919565b6015602052600090815260409020805460018201546002830154600384015460048501546005860154600690960154949593949293919290919087565b604080519788526020880196909652948601939093526060850191909152608084015260a083015260c082015260e0016103bd565b61044f61087d366004613ae2565b611d89565b61044f610890366004613bf8565b611e09565b6108a86108a33660046138fe565b611e2e565b6040516103bd959493929190613f28565b6103e66108c7366004613f70565b611f74565b6103e66108da3660046138fe565b600c6020526000908152604090205481565b6108ff6108fa366004613919565b611f9f565b6040516103bd959493929190613f9a565b61092361091e3660046138fe565b6120fb565b6040516103bd9190613fe5565b6103e661093e3660046138fe565b600f6020526000908152604090205481565b61096361095e3660046138fe565b6122c8565b6040516103bd91906140bb565b6103e660125481565b61044f610987366004614142565b612555565b61099f61099a366004613919565b61279f565b6040516103bd91906141aa565b60006001600160e01b03198216637965db0b60e01b14806109dd57506301ffc9a760e01b6001600160e01b03198316145b92915050565b610a216040518060a0016040528060006001600160a01b03168152602001606081526020016060815260200160008152602001600080191681525090565b6014548210610a6d5760405162461bcd60e51b8152602060048201526013602482015272496e646578206f7574206f6620626f756e647360681b60448201526064015b60405180910390fd5b60148281548110610a8057610a8061420f565b60009182526020918290206040805160a0810190915260059092020180546001600160a01b031682526001810180549293919291840191610ac090614225565b80601f0160208091040260200160405190810160405280929190818152602001828054610aec90614225565b8015610b395780601f10610b0e57610100808354040283529160200191610b39565b820191906000526020600020905b815481529060010190602001808311610b1c57829003601f168201915b50505050508152602001600282018054610b5290614225565b80601f0160208091040260200160405190810160405280929190818152602001828054610b7e90614225565b8015610bcb5780601f10610ba057610100808354040283529160200191610bcb565b820191906000526020600020905b815481529060010190602001808311610bae57829003601f168201915b50505050508152602001600382015481526020016004820154815250509050919050565b606060038054610bfe90614225565b80601f0160208091040260200160405190810160405280929190818152602001828054610c2a90614225565b8015610c775780601f10610c4c57610100808354040283529160200191610c77565b820191906000526020600020905b815481529060010190602001808311610c5a57829003601f168201915b5050505050905090565b600033610c8f818585612b13565b5060019392505050565b600080516020614522833981519152610cb181612c37565b6000601083604051610cc39190614259565b908152602001604051809103902060006101000a81548160ff021916908315150217905550610d186040518060400160405280600e81526020016d14d510551157d55394105554d15160921b81525083612c41565b5050565b6000610d26612d5f565b610d31848484612da7565b15610d7e5760405162461bcd60e51b815260206004820152601e60248201527f5472616e73616374696f6e20666c616767656420666f722072657669657700006044820152606401610a64565b610e608484846040518060400160405280600d81526020016c5452414e534645525f46524f4d60981b815250600860008a6001600160a01b03166001600160a01b031681526020019081526020016000206001018054610ddd90614225565b80601f0160208091040260200160405190810160405280929190818152602001828054610e0990614225565b8015610e565780601f10610e2b57610100808354040283529160200191610e56565b820191906000526020600020905b815481529060010190602001808311610e3957829003601f168201915b5050505050612e70565b610e6b8484846130d2565b90505b9392505050565b600080516020614522833981519152610e8d81612c37565b6040805160e08101825286151581526000602082015290810185905242606082015260808101610ec0846201518061428b565b610eca90426142a2565b81523360208083019190915260409182018690526001600160a01b038916600090815260088252829020835181549285015161ffff1990931690151561ff0019161761010092151592909202919091178155908201516001820190610f2f9082614303565b50606082015160028201556080820151600382015560a08201516004820180546001600160a01b0319166001600160a01b0390921691909117905560c08201516005820190610f7e9082614303565b50905050610fda604051806040016040528060118152602001704b59435f5354415455535f55504441544560781b8152506040518060400160405280600d81526020016c155cd95c881d995c9a599a5959609a1b815250612c41565b856001600160a01b03167f991f3b51f93fcdba290360ab6a0051757ed4989659819e1ebe53ffb2697d4f2e86866040516110159291906143c3565b60405180910390a2505050505050565b60008281526005602052604090206001015461104081612c37565b61104a83836130eb565b505050565b6001600160a01b03811633146110bf5760405162461bcd60e51b815260206004820152602f60248201527f416363657373436f6e74726f6c3a2063616e206f6e6c792072656e6f756e636560448201526e103937b632b9903337b91039b2b63360891b6064820152608401610a64565b610d188282613171565b60006009826040516110db9190614259565b9081526040519081900360200190205460ff1692915050565b60006010826040516110db9190614259565b600033610c8f8185856111198383611f74565b61112391906142a2565b612b13565b600b60205260009081526040902080546001820154600283015460038401546004850180546001600160a01b039586169694909516949293919261116b90614225565b80601f016020809104026020016040519081016040528092919081815260200182805461119790614225565b80156111e45780601f106111b9576101008083540402835291602001916111e4565b820191906000526020600020905b8154815290600101906020018083116111c757829003601f168201915b5050505050908060050180546111f990614225565b80601f016020809104026020016040519081016040528092919081815260200182805461122590614225565b80156112725780601f1061124757610100808354040283529160200191611272565b820191906000526020600020905b81548152906001019060200180831161125557829003601f168201915b505050506006830154600784018054939460ff808416956101009094041693509161129c90614225565b80601f01602080910402602001604051908101604052809291908181526020018280546112c890614225565b80156113155780601f106112ea57610100808354040283529160200191611315565b820191906000526020600020905b8154815290600101906020018083116112f857829003601f168201915b5050505050905089565b60135460ff1661137b5760405162461bcd60e51b815260206004820152602160248201527f466f756e646174696f6e207068617365206e6f742079657420756e6c6f636b656044820152601960fa1b6064820152608401610a64565b336000908152600e60205260409020546113d75760405162461bcd60e51b815260206004820152601960248201527f4e6f206c6f636b656420746f6b656e7320746f20636c61696d000000000000006044820152606401610a64565b336000908152600e6020526040812080549082905560128054919283926113ff9084906143de565b9091555061140f905033826131d8565b61146c6040518060400160405280600e81526020016d1513d2d15394d7d0d3105253515160921b81525060405180604001604052806015815260200174131bd8dad959081d1bdad95b9cc818db185a5b5959605a1b815250612c41565b50565b60008051602061452283398151915261148781612c37565b61148f613297565b61146c6040518060400160405280600f81526020016e14d654d5115357d55394105554d151608a1b8152506040518060400160405280601981526020017f53797374656d206f7065726174696f6e7320726573756d656400000000000000815250612c41565b60008051602061452283398151915261150d81612c37565b600160108460405161151f9190614259565b908152602001604051809103902060006101000a81548160ff02191690831515021790555061104a6040518060400160405280600c81526020016b14d510551157d4105554d15160a21b81525084612c41565b7fbc5e62d12c2ceca70897f1b45b6db8f69577a836114666e7ae0326805e5f928761159c81612c37565b6115a4612d5f565b836010816040516115b59190614259565b9081526040519081900360200190205460ff16156116155760405162461bcd60e51b815260206004820152601f60248201527f4f7065726174696f6e732070617573656420696e2074686973207374617465006044820152606401610a64565b61161d6132e9565b6001600160a01b03871660009081526008602052604090205460ff166116855760405162461bcd60e51b815260206004820152601e60248201527f526573706f6e646572206d757374206265204b594320766572696669656400006044820152606401610a64565b6001600160a01b0387166000908152600a602052604090205460ff166116ed5760405162461bcd60e51b815260206004820152601860248201527f526573706f6e646572206e6f7420617574686f72697a656400000000000000006044820152606401610a64565b611723600088886040518060400160405280601081526020016f1153515491d15390d657d49155d0549160821b81525089612e70565b61172d87876131d8565b61176c6040518060400160405280601781526020017f454d455247454e43595f5245574152445f49535355454400000000000000000081525084612c41565b6117766001600755565b50505050505050565b60008051602061452283398151915261179781612c37565b60135460ff16156117f45760405162461bcd60e51b815260206004820152602160248201527f466f756e646174696f6e20706861736520616c726561647920756e6c6f636b656044820152601960fa1b6064820152608401610a64565b6013805460ff191660011790556012546040805180820182526011815270464f554e444154494f4e5f554e4c4f434b60781b6020808301919091528251808401909352601983527f466f756e646174696f6e20706861736520756e6c6f636b6564000000000000009083015261186991612c41565b60408051828152600060208201527f75cbc9e06bcbb052d8f7ac14d98e1e715ad24c138e98fb31b55752d2c4dc840391015b60405180910390a15050565b6000805160206145228339815191526118bf81612c37565b6040518060c00160405280871515815260200186815260200185815260200184620151806118ed919061428b565b6118f790426142a2565b815260208082018590528815156040928301526001600160a01b038a166000908152600a8252919091208251815460ff19169015151781559082015160018201906119429082614303565b506040820151805161195e9160028401916020909101906137fb565b50606082015160038201556080820151600482019061197d9082614303565b5060a091909101516005909101805460ff19169115159190911790556001600160a01b038716600090815260086020908152604091829020805461ff0019166101008a15150217905581518083019092526015825274454d455247454e43595f415554485f55504441544560581b908201526119f99086612c41565b866001600160a01b03167fe0810a07ebca9521275f6735cd8474ecea30e504906efb04d0243db7ca4825d686604051611a3291906139ee565b60405180910390a250505050505050565b6008602052600090815260409020805460018201805460ff8084169461010090940416929190611a7290614225565b80601f0160208091040260200160405190810160405280929190818152602001828054611a9e90614225565b8015611aeb5780601f10611ac057610100808354040283529160200191611aeb565b820191906000526020600020905b815481529060010190602001808311611ace57829003601f168201915b505050600284015460038501546004860154600587018054969793969295506001600160a01b03909116935090611b2190614225565b80601f0160208091040260200160405190810160405280929190818152602001828054611b4d90614225565b8015611b9a5780601f10611b6f57610100808354040283529160200191611b9a565b820191906000526020600020905b815481529060010190602001808311611b7d57829003601f168201915b5050505050905087565b60009182526005602090815260408084206001600160a01b0393909316845291905290205460ff1690565b606060048054610bfe90614225565b60003381611bec8286611f74565b905083811015611c4c5760405162461bcd60e51b815260206004820152602560248201527f45524332303a2064656372656173656420616c6c6f77616e63652062656c6f77604482015264207a65726f60d81b6064820152608401610a64565b611c598286868403612b13565b506001949350505050565b6000611c6e612d5f565b3360009081526008602052604090205460ff16611ccd5760405162461bcd60e51b815260206004820152601b60248201527f53656e646572206d757374206265204b594320766572696669656400000000006044820152606401610a64565b611cd8338484612da7565b15611d255760405162461bcd60e51b815260206004820152601e60248201527f5472616e73616374696f6e20666c616767656420666f722072657669657700006044820152606401610a64565b611d7f338484604051806040016040528060088152602001672a2920a729a322a960c11b81525060086000336001600160a01b03166001600160a01b031681526020019081526020016000206001018054610ddd90614225565b610e6e8383613342565b600080516020614522833981519152611da181612c37565b611da9613350565b611dd86040518060400160405280600d81526020016c14d654d5115357d4105554d151609a1b81525083612c41565b7f2153b65d30c58c08ac6867b8efe3526fddcfbcf926fbf8bb9d2a6668e7080c55823360405161189b9291906143f1565b600082815260056020526040902060010154611e2481612c37565b61104a8383613171565b600a602052600090815260409020805460018201805460ff9092169291611e5490614225565b80601f0160208091040260200160405190810160405280929190818152602001828054611e8090614225565b8015611ecd5780601f10611ea257610100808354040283529160200191611ecd565b820191906000526020600020905b815481529060010190602001808311611eb057829003601f168201915b505050505090806003015490806004018054611ee890614225565b80601f0160208091040260200160405190810160405280929190818152602001828054611f1490614225565b8015611f615780601f10611f3657610100808354040283529160200191611f61565b820191906000526020600020905b815481529060010190602001808311611f4457829003601f168201915b5050506005909301549192505060ff1685565b6001600160a01b03918216600090815260016020908152604080832093909416825291909152205490565b60148181548110611faf57600080fd5b6000918252602090912060059091020180546001820180546001600160a01b03909216935090611fde90614225565b80601f016020809104026020016040519081016040528092919081815260200182805461200a90614225565b80156120575780601f1061202c57610100808354040283529160200191612057565b820191906000526020600020905b81548152906001019060200180831161203a57829003601f168201915b50505050509080600201805461206c90614225565b80601f016020809104026020016040519081016040528092919081815260200182805461209890614225565b80156120e55780601f106120ba576101008083540402835291602001916120e5565b820191906000526020600020905b8154815290600101906020018083116120c857829003601f168201915b5050505050908060030154908060040154905085565b6040805160e080820183526000808352602080840182905260608486018190528085018390526080850183905260a0850183905260c08501526001600160a01b0386168252600881529084902084519283018552805460ff808216151585526101009091041615159183019190915260018101805493949293919284019161218290614225565b80601f01602080910402602001604051908101604052809291908181526020018280546121ae90614225565b80156121fb5780601f106121d0576101008083540402835291602001916121fb565b820191906000526020600020905b8154815290600101906020018083116121de57829003601f168201915b5050509183525050600282015460208201526003820154604082015260048201546001600160a01b0316606082015260058201805460809092019161223f90614225565b80601f016020809104026020016040519081016040528092919081815260200182805461226b90614225565b80156122b85780601f1061228d576101008083540402835291602001916122b8565b820191906000526020600020905b81548152906001019060200180831161229b57829003601f168201915b5050505050815250509050919050565b6123056040518060c00160405280600015158152602001606081526020016060815260200160008152602001606081526020016000151581525090565b6001600160a01b0382166000908152600a6020908152604091829020825160c08101909352805460ff1615158352600181018054919284019161234790614225565b80601f016020809104026020016040519081016040528092919081815260200182805461237390614225565b80156123c05780601f10612395576101008083540402835291602001916123c0565b820191906000526020600020905b8154815290600101906020018083116123a357829003601f168201915b5050505050815260200160028201805480602002602001604051908101604052809291908181526020016000905b8282101561249a57838290600052602060002001805461240d90614225565b80601f016020809104026020016040519081016040528092919081815260200182805461243990614225565b80156124865780601f1061245b57610100808354040283529160200191612486565b820191906000526020600020905b81548152906001019060200180831161246957829003601f168201915b5050505050815260200190600101906123ee565b505050508152602001600382015481526020016004820180546124bc90614225565b80601f01602080910402602001604051908101604052809291908181526020018280546124e890614225565b80156125355780601f1061250a57610100808354040283529160200191612535565b820191906000526020600020905b81548152906001019060200180831161251857829003601f168201915b50505091835250506005919091015460ff16151560209091015292915050565b60008051602061452283398151915261256d81612c37565b612575612d5f565b61257d6132e9565b6001600160a01b03851660009081526008602052604090205460ff166125e55760405162461bcd60e51b815260206004820181905260248201527f436f6e7472696275746f72206d757374206265204b59432076657269666965646044820152606401610a64565b8180156125f5575060135460ff16155b156126ea576001600160a01b0385166000908152600e6020526040812080548692906126229084906142a2565b92505081905550836012600082825461263b91906142a2565b90915550506001600160a01b0385166000908152600f6020526040812080548692906126689084906142a2565b90915550506040805180820190915260148152731313d0d2d15117d513d2d15394d7d254d4d5515160621b60208201526126a29084612c41565b846001600160a01b03167fe1b2dd1a1ecf075c295ba980dc394b70168e68ac037c75664c630db6e6d97a6885856040516126dd92919061441b565b60405180910390a261278e565b61274c600086866040518060400160405280600f81526020016e10d553151554905317d49155d05491608a1b815250600860008b6001600160a01b03166001600160a01b031681526020019081526020016000206001018054610ddd90614225565b61275685856131d8565b61278e6040518060400160405280601681526020017510d553151554905317d49155d0549117d254d4d5515160521b81525084612c41565b6127986001600755565b5050505050565b6127e760405180610100016040528060008152602001600081526020016000815260200160008152602001600081526020016000815260200160008152602001606081525090565b6000805160206145228339815191526127ff81612c37565b60408051600680825260e08201909252600091816020015b6060815260200190600190039081612817579050509050604051806040016040528060058152602001642aa996abab60d91b8152508160008151811061285f5761285f61420f565b60200260200101819052506040518060400160405280600581526020016455532d504160d81b8152508160018151811061289b5761289b61420f565b60200260200101819052506040518060400160405280600581526020016455532d564160d81b815250816002815181106128d7576128d761420f565b60200260200101819052506040518060400160405280600581526020016455532d4b5960d81b815250816003815181106129135761291361420f565b6020026020010181905250604051806040016040528060058152602001642aa996aa2760d91b8152508160048151811061294f5761294f61420f565b60200260200101819052506040518060400160405280600581526020016455532d4e4360d81b8152508160058151811061298b5761298b61420f565b602002602001018190525060006040518061010001604052808681526020016129b360025490565b815260200160008152602001600081526020016000815260200160008152602001600081526020018381525090508060156000878152602001908152602001600020600082015181600001556020820151816001015560408201518160020155606082015181600301556080820151816004015560a0820151816005015560c0820151816006015560e0820151816007019080519060200190612a579291906137fb565b50905050612ac36040518060400160405280601181526020017010d3d3541312505390d157d4915413d495607a1b8152506040518060400160405280601a81526020017f517561727465726c79207265706f72742067656e657261746564000000000000815250612c41565b7f1999ff9438b924f98b6807daec2aae9fc1531ae8d5c28cbf19e8664ecda1ebf1858260200151604051612b01929190918252602082015260400190565b60405180910390a19250505b50919050565b6001600160a01b038316612b755760405162461bcd60e51b8152602060048201526024808201527f45524332303a20617070726f76652066726f6d20746865207a65726f206164646044820152637265737360e01b6064820152608401610a64565b6001600160a01b038216612bd65760405162461bcd60e51b815260206004820152602260248201527f45524332303a20617070726f766520746f20746865207a65726f206164647265604482015261737360f01b6064820152608401610a64565b6001600160a01b0383811660008181526001602090815260408083209487168084529482529182902085905590518481527f8c5be1e5ebec7d5bd14f71427d1e84f3dd0314c0f7b2291e5b200ac8c7c3b925910160405180910390a3505050565b61146c813361338d565b60146040518060a00160405280336001600160a01b03168152602001848152602001838152602001428152602001423386604051602001612c8493929190614434565b60408051808303601f190181529190528051602091820120909152825460018082018555600094855293829020835160059092020180546001600160a01b0319166001600160a01b03909216919091178155908201519192909190820190612cec9082614303565b5060408201516002820190612d019082614303565b5060608201518160030155608082015181600401555050336001600160a01b03167f695d457f85af59df9d1927687762f36a38e9d70d212419f87b65f849801052928342604051612d53929190614473565b60405180910390a25050565b60065460ff1615612da55760405162461bcd60e51b815260206004820152601060248201526f14185d5cd8589b194e881c185d5cd95960821b6044820152606401610a64565b565b600069010f0cf064dd592000008210612dc257506001610e6e565b6001600160a01b0384166000908152600c602052604090205469021e19e0c9bab240000090612df29084906142a2565b1115612e0057506001610e6e565b6001600160a01b0384166000908152600d6020526040902054429003612e2857506001610e6e565b6001600160a01b03831660009081526008602052604090205460ff16158015612e595750683635c9adc5dea0000082115b15612e6657506001610e6e565b5060009392505050565b6040516bffffffffffffffffffffffff19606087811b8216602084015286901b1660348201526048810184905242606882015243608882015260009060a8016040516020818303038152906040528051906020012090506000612ed4878787612da7565b60408051610120810182526001600160a01b03808b16825289811660208084019182528385018b81524260608601908152608086018c815260a087018c905288151560c0880152600060e0880181905288518086018a528181526101008901528b8152600b90945296909220855181549086166001600160a01b031991821617825593516001820180549190961694169390931790935591516002820155905160038201559151929350916004820190612f8e9082614303565b5060a08201516005820190612fa39082614303565b5060c082015160068201805460e085015161ffff1990911692151561ff0019169290921761010092151583021790558201516007820190612fe49082614303565b509050508015611776576130516040518060400160405280601681526020017529aaa9a824a1a4a7aaa9afaa2920a729a0a1aa24a7a760511b8152506040518060400160405280601381526020017220aaaa27a6a0aa22a22fa222aa22a1aa24a7a760691b815250612c41565b856001600160a01b0316876001600160a01b03167f1f84896f71b683977406f29bcbb80cf5d1ba025269a28e740140031a5596ed94876040516130c19181526040602082018190526013908201527220aaaa27a6a0aa22a22fa222aa22a1aa24a7a760691b606082015260800190565b60405180910390a350505050505050565b6000336130e08582856133e6565b611c59858585613460565b6130f58282611ba4565b610d185760008281526005602090815260408083206001600160a01b03851684529091529020805460ff1916600117905561312d3390565b6001600160a01b0316816001600160a01b0316837f2f8788117e7eff1d82e926ec794901d17c78024a50270940304540a733656f0d60405160405180910390a45050565b61317b8282611ba4565b15610d185760008281526005602090815260408083206001600160a01b0385168085529252808320805460ff1916905551339285917ff6391f5c32d9c69d2a47ea670b442974b53935d1edc7fd64eb21e047a839171b9190a45050565b6001600160a01b03821661322e5760405162461bcd60e51b815260206004820152601f60248201527f45524332303a206d696e7420746f20746865207a65726f2061646472657373006044820152606401610a64565b806002600082825461324091906142a2565b90915550506001600160a01b038216600081815260208181526040808320805486019055518481527fddf252ad1be2c89b69c2b068fc378daa952ba7f163c4a11628f55a4df523b3ef910160405180910390a35050565b61329f613604565b6006805460ff191690557f5db9ee0a495bf2e6ff9c91a7834c1ba4fdd244a5e8aa4e537bd38aeae4b073aa335b6040516001600160a01b03909116815260200160405180910390a1565b60026007540361333b5760405162461bcd60e51b815260206004820152601f60248201527f5265656e7472616e637947756172643a207265656e7472616e742063616c6c006044820152606401610a64565b6002600755565b600033610c8f818585613460565b613358612d5f565b6006805460ff191660011790557f62e78cea01bee320cd4e420270b5ea74000d11b0c9f74754ebdbfc544b05a2586132cc3390565b6133978282611ba4565b610d18576133a48161364d565b6133af83602061365f565b6040516020016133c0929190614495565b60408051601f198184030181529082905262461bcd60e51b8252610a64916004016139ee565b60006133f28484611f74565b9050600019811461345a578181101561344d5760405162461bcd60e51b815260206004820152601d60248201527f45524332303a20696e73756666696369656e7420616c6c6f77616e63650000006044820152606401610a64565b61345a8484848403612b13565b50505050565b6001600160a01b0383166134c45760405162461bcd60e51b815260206004820152602560248201527f45524332303a207472616e736665722066726f6d20746865207a65726f206164604482015264647265737360d81b6064820152608401610a64565b6001600160a01b0382166135265760405162461bcd60e51b815260206004820152602360248201527f45524332303a207472616e7366657220746f20746865207a65726f206164647260448201526265737360e81b6064820152608401610a64565b6001600160a01b0383166000908152602081905260409020548181101561359e5760405162461bcd60e51b815260206004820152602660248201527f45524332303a207472616e7366657220616d6f756e7420657863656564732062604482015265616c616e636560d01b6064820152608401610a64565b6001600160a01b03848116600081815260208181526040808320878703905593871680835291849020805487019055925185815290927fddf252ad1be2c89b69c2b068fc378daa952ba7f163c4a11628f55a4df523b3ef910160405180910390a361345a565b60065460ff16612da55760405162461bcd60e51b815260206004820152601460248201527314185d5cd8589b194e881b9bdd081c185d5cd95960621b6044820152606401610a64565b60606109dd6001600160a01b03831660145b6060600061366e83600261428b565b6136799060026142a2565b67ffffffffffffffff81111561369157613691613a2b565b6040519080825280601f01601f1916602001820160405280156136bb576020820181803683370190505b509050600360fc1b816000815181106136d6576136d661420f565b60200101906001600160f81b031916908160001a905350600f60fb1b816001815181106137055761370561420f565b60200101906001600160f81b031916908160001a905350600061372984600261428b565b6137349060016142a2565b90505b60018111156137ac576f181899199a1a9b1b9c1cb0b131b232b360811b85600f16601081106137685761376861420f565b1a60f81b82828151811061377e5761377e61420f565b60200101906001600160f81b031916908160001a90535060049490941c936137a58161450a565b9050613737565b508315610e6e5760405162461bcd60e51b815260206004820181905260248201527f537472696e67733a20686578206c656e67746820696e73756666696369656e746044820152606401610a64565b828054828255906000526020600020908101928215613841579160200282015b8281111561384157825182906138319082614303565b509160200191906001019061381b565b5061384d929150613851565b5090565b8082111561384d576000613865828261386e565b50600101613851565b50805461387a90614225565b6000825580601f1061388a575050565b601f01602090049060005260206000209081019061146c91905b8082111561384d57600081556001016138a4565b6000602082840312156138ca57600080fd5b81356001600160e01b031981168114610e6e57600080fd5b80356001600160a01b03811681146138f957600080fd5b919050565b60006020828403121561391057600080fd5b610e6e826138e2565b60006020828403121561392b57600080fd5b5035919050565b60005b8381101561394d578181015183820152602001613935565b50506000910152565b6000815180845261396e816020860160208601613932565b601f01601f19169290920160200192915050565b602080825282516001600160a01b03168282015282015160a060408301526000906139b060c0840182613956565b90506040840151601f198483030160608501526139cd8282613956565b91505060608401516080840152608084015160a08401528091505092915050565b602081526000610e6e6020830184613956565b60008060408385031215613a1457600080fd5b613a1d836138e2565b946020939093013593505050565b634e487b7160e01b600052604160045260246000fd5b604051601f8201601f1916810167ffffffffffffffff81118282101715613a6a57613a6a613a2b565b604052919050565b600082601f830112613a8357600080fd5b813567ffffffffffffffff811115613a9d57613a9d613a2b565b613ab0601f8201601f1916602001613a41565b818152846020838601011115613ac557600080fd5b816020850160208301376000918101602001919091529392505050565b600060208284031215613af457600080fd5b813567ffffffffffffffff811115613b0b57600080fd5b613b1784828501613a72565b949350505050565b600080600060608486031215613b3457600080fd5b613b3d846138e2565b9250613b4b602085016138e2565b9150604084013590509250925092565b803580151581146138f957600080fd5b600080600080600060a08688031215613b8357600080fd5b613b8c866138e2565b9450613b9a60208701613b5b565b9350604086013567ffffffffffffffff80821115613bb757600080fd5b613bc389838a01613a72565b94506060880135915080821115613bd957600080fd5b50613be688828901613a72565b95989497509295608001359392505050565b60008060408385031215613c0b57600080fd5b82359150613c1b602084016138e2565b90509250929050565b6001600160a01b038a8116825289166020820152604081018890526060810187905261012060808201819052600090613c5f83820189613956565b905082810360a0840152613c738188613956565b905085151560c084015284151560e0840152828103610100840152613c988185613956565b9c9b505050505050505050505050565b60008060408385031215613cbb57600080fd5b823567ffffffffffffffff80821115613cd357600080fd5b613cdf86838701613a72565b93506020850135915080821115613cf557600080fd5b50613d0285828601613a72565b9150509250929050565b600080600080600060a08688031215613d2457600080fd5b613d2d866138e2565b945060208601359350604086013567ffffffffffffffff80821115613d5157600080fd5b613d5d89838a01613a72565b9450606088013593506080880135915080821115613d7a57600080fd5b50613d8788828901613a72565b9150509295509295909350565b60008060008060008060c08789031215613dad57600080fd5b613db6876138e2565b95506020613dc5818901613b5b565b9550604088013567ffffffffffffffff80821115613de257600080fd5b613dee8b838c01613a72565b965060608a0135915080821115613e0457600080fd5b818a0191508a601f830112613e1857600080fd5b813581811115613e2a57613e2a613a2b565b8060051b613e39858201613a41565b918252838101850191858101908e841115613e5357600080fd5b86860192505b83831015613e8d578483351115613e6f57600080fd5b613e7e8f888535890101613a72565b82529186019190860190613e59565b985050505060808a0135945060a08a0135925080831115613ead57600080fd5b5050613ebb89828a01613a72565b9150509295509295509295565b8715158152861515602082015260e060408201526000613eeb60e0830188613956565b60608301879052608083018690526001600160a01b03851660a084015282810360c0840152613f1a8185613956565b9a9950505050505050505050565b851515815260a060208201526000613f4360a0830187613956565b8560408401528281036060840152613f5b8186613956565b91505082151560808301529695505050505050565b60008060408385031215613f8357600080fd5b613f8c836138e2565b9150613c1b602084016138e2565b6001600160a01b038616815260a060208201819052600090613fbe90830187613956565b8281036040840152613fd08187613956565b60608401959095525050608001529392505050565b602081528151151560208201526020820151151560408201526000604083015160e0606084015261401a610100840182613956565b905060608401516080840152608084015160a084015260018060a01b0360a08501511660c084015260c0840151601f198483030160e085015261405d8282613956565b95945050505050565b600081518084526020808501808196508360051b8101915082860160005b858110156140ae57828403895261409c848351613956565b98850198935090840190600101614084565b5091979650505050505050565b602081528151151560208201526000602083015160c060408401526140e360e0840182613956565b90506040840151601f19808584030160608601526141018383614066565b92506060860151608086015260808601519150808584030160a0860152506141298282613956565b91505060a0840151151560c08401528091505092915050565b6000806000806080858703121561415857600080fd5b614161856138e2565b935060208501359250604085013567ffffffffffffffff81111561418457600080fd5b61419087828801613a72565b92505061419f60608601613b5b565b905092959194509250565b6020815281516020820152602082015160408201526040820151606082015260608201516080820152608082015160a082015260a082015160c082015260c082015160e0820152600060e0830151610100808185015250613b17610120840182614066565b634e487b7160e01b600052603260045260246000fd5b600181811c9082168061423957607f821691505b602082108103612b0d57634e487b7160e01b600052602260045260246000fd5b6000825161426b818460208701613932565b9190910192915050565b634e487b7160e01b600052601160045260246000fd5b80820281158282048414176109dd576109dd614275565b808201808211156109dd576109dd614275565b601f82111561104a57600081815260208120601f850160051c810160208610156142dc5750805b601f850160051c820191505b818110156142fb578281556001016142e8565b505050505050565b815167ffffffffffffffff81111561431d5761431d613a2b565b6143318161432b8454614225565b846142b5565b602080601f831160018114614366576000841561434e5750858301515b600019600386901b1c1916600185901b1785556142fb565b600085815260208120601f198616915b8281101561439557888601518255948401946001909101908401614376565b50858210156143b35787850151600019600388901b60f8161c191681555b5050505050600190811b01905550565b8215158152604060208201526000610e6b6040830184613956565b818103818111156109dd576109dd614275565b6040815260006144046040830185613956565b905060018060a01b03831660208301529392505050565b828152604060208201526000610e6b6040830184613956565b8381526bffffffffffffffffffffffff198360601b16602082015260008251614464816034850160208701613932565b91909101603401949350505050565b6040815260006144866040830185613956565b90508260208301529392505050565b7f416363657373436f6e74726f6c3a206163636f756e74200000000000000000008152600083516144cd816017850160208801613932565b7001034b99036b4b9b9b4b733903937b6329607d1b60179184019182015283516144fe816028840160208801613932565b01602801949350505050565b60008161451957614519614275565b50600019019056feb6f0283bd1ed00c6aa7e988a7516070240f3610a34d167391359b648eb37cefca2646970667358221220f36a69aa58da7659d17024fdfedd2b8602f3c90adee408d7d90f0fb106e5ab2564736f6c63430008130033","opcodes":"PUSH1 0x80 PUSH1 0x40 MSTORE PUSH1 0x13 DUP1 SLOAD PUSH1 0xFF NOT AND SWAP1 SSTORE CALLVALUE DUP1 ISZERO PUSH3 0x1B JUMPI PUSH1 0x0 DUP1 REVERT JUMPDEST POP PUSH1 0x40 MLOAD DUP1 PUSH1 0x40 ADD PUSH1 0x40 MSTORE DUP1 PUSH1 0xE DUP2 MSTORE PUSH1 0x20 ADD PUSH14 0x4D6F756E7461696E536861726573 PUSH1 0x90 SHL DUP2 MSTORE POP PUSH1 0x40 MLOAD DUP1 PUSH1 0x40 ADD PUSH1 0x40 MSTORE DUP1 PUSH1 0x2 DUP2 MSTORE PUSH1 0x20 ADD PUSH2 0x4D53 PUSH1 0xF0 SHL DUP2 MSTORE POP DUP2 PUSH1 0x3 SWAP1 DUP2 PUSH3 0x6F SWAP2 SWAP1 PUSH3 0x3DA JUMP JUMPDEST POP PUSH1 0x4 PUSH3 0x7E DUP3 DUP3 PUSH3 0x3DA JUMP JUMPDEST POP POP PUSH1 0x6 DUP1 SLOAD PUSH1 0xFF NOT AND SWAP1 SSTORE POP PUSH1 0x1 PUSH1 0x7 SSTORE PUSH3 0x9D PUSH1 0x0 CALLER PUSH3 0x290 JUMP JUMPDEST PUSH3 0xC9 PUSH32 0xB6F0283BD1ED00C6AA7E988A7516070240F3610A34D167391359B648EB37CEFC CALLER PUSH3 0x290 JUMP JUMPDEST PUSH1 0x1 PUSH1 0x11 PUSH1 0x40 MLOAD PUSH3 0xE3 SWAP1 PUSH2 0x2BAB PUSH1 0xF1 SHL DUP2 MSTORE PUSH1 0x2 ADD SWAP1 JUMP JUMPDEST SWAP1 DUP2 MSTORE PUSH1 0x40 DUP1 MLOAD SWAP2 DUP3 SWAP1 SUB PUSH1 0x20 ADD DUP3 KECCAK256 DUP1 SLOAD SWAP4 ISZERO ISZERO PUSH1 0xFF NOT SWAP5 DUP6 AND OR SWAP1 SSTORE PUSH2 0x5041 PUSH1 0xF0 SHL DUP3 MSTORE PUSH1 0x11 PUSH1 0x2 DUP1 DUP5 ADD DUP3 SWAP1 MSTORE DUP3 MLOAD SWAP4 DUP5 SWAP1 SUB PUSH1 0x22 SWAP1 DUP2 ADD DUP6 KECCAK256 DUP1 SLOAD DUP8 AND PUSH1 0x1 SWAP1 DUP2 OR SWAP1 SWAP2 SSTORE PUSH2 0x5641 PUSH1 0xF0 SHL DUP7 MSTORE DUP6 DUP4 ADD DUP5 SWAP1 MSTORE DUP5 MLOAD SWAP6 DUP7 SWAP1 SUB DUP3 ADD DUP7 KECCAK256 DUP1 SLOAD DUP9 AND DUP3 OR SWAP1 SSTORE PUSH2 0x4B59 PUSH1 0xF0 SHL DUP7 MSTORE DUP6 DUP4 ADD DUP5 SWAP1 MSTORE DUP5 MLOAD SWAP6 DUP7 SWAP1 SUB DUP3 ADD DUP7 KECCAK256 DUP1 SLOAD DUP9 AND DUP3 OR SWAP1 SSTORE PUSH2 0x2A27 PUSH1 0xF1 SHL DUP7 MSTORE DUP6 DUP4 ADD DUP5 SWAP1 MSTORE DUP5 MLOAD SWAP6 DUP7 SWAP1 SUB DUP3 ADD DUP7 KECCAK256 DUP1 SLOAD DUP9 AND DUP3 OR SWAP1 SSTORE PUSH2 0x4E43 PUSH1 0xF0 SHL DUP7 MSTORE SWAP2 DUP6 ADD SWAP3 SWAP1 SWAP3 MSTORE DUP3 MLOAD SWAP4 DUP5 SWAP1 SUB SWAP1 SWAP2 ADD DUP4 KECCAK256 DUP1 SLOAD DUP6 AND DUP3 OR SWAP1 SSTORE PUSH5 0x2AA996ABAB PUSH1 0xD9 SHL DUP4 MSTORE PUSH1 0x9 PUSH1 0x5 DUP1 DUP6 ADD DUP3 SWAP1 MSTORE DUP4 MLOAD SWAP5 DUP6 SWAP1 SUB PUSH1 0x25 SWAP1 DUP2 ADD DUP7 KECCAK256 DUP1 SLOAD DUP9 AND DUP6 OR SWAP1 SSTORE PUSH5 0x55532D5041 PUSH1 0xD8 SHL DUP7 MSTORE DUP6 DUP3 ADD DUP4 SWAP1 MSTORE DUP5 MLOAD SWAP6 DUP7 SWAP1 SUB DUP2 ADD DUP7 KECCAK256 DUP1 SLOAD DUP9 AND DUP6 OR SWAP1 SSTORE PUSH5 0x55532D5641 PUSH1 0xD8 SHL DUP7 MSTORE DUP6 DUP3 ADD DUP4 SWAP1 MSTORE DUP5 MLOAD SWAP6 DUP7 SWAP1 SUB DUP2 ADD DUP7 KECCAK256 DUP1 SLOAD DUP9 AND DUP6 OR SWAP1 SSTORE PUSH5 0x55532D4B59 PUSH1 0xD8 SHL DUP7 MSTORE DUP6 DUP3 ADD DUP4 SWAP1 MSTORE DUP5 MLOAD SWAP6 DUP7 SWAP1 SUB DUP2 ADD DUP7 KECCAK256 DUP1 SLOAD DUP9 AND DUP6 OR SWAP1 SSTORE PUSH5 0x2AA996AA27 PUSH1 0xD9 SHL DUP7 MSTORE DUP6 DUP3 ADD DUP4 SWAP1 MSTORE DUP5 MLOAD SWAP6 DUP7 SWAP1 SUB DUP2 ADD DUP7 KECCAK256 DUP1 SLOAD DUP9 AND DUP6 OR SWAP1 SSTORE PUSH5 0x55532D4E43 PUSH1 0xD8 SHL DUP7 MSTORE SWAP1 DUP6 ADD SWAP2 SWAP1 SWAP2 MSTORE SWAP2 MLOAD SWAP3 DUP4 SWAP1 SUB SWAP1 SWAP2 ADD SWAP1 SWAP2 KECCAK256 DUP1 SLOAD SWAP1 SWAP3 AND OR SWAP1 SSTORE PUSH3 0x4A6 JUMP JUMPDEST PUSH1 0x0 DUP3 DUP2 MSTORE PUSH1 0x5 PUSH1 0x20 SWAP1 DUP2 MSTORE PUSH1 0x40 DUP1 DUP4 KECCAK256 PUSH1 0x1 PUSH1 0x1 PUSH1 0xA0 SHL SUB DUP6 AND DUP5 MSTORE SWAP1 SWAP2 MSTORE SWAP1 KECCAK256 SLOAD PUSH1 0xFF AND PUSH3 0x331 JUMPI PUSH1 0x0 DUP3 DUP2 MSTORE PUSH1 0x5 PUSH1 0x20 SWAP1 DUP2 MSTORE PUSH1 0x40 DUP1 DUP4 KECCAK256 PUSH1 0x1 PUSH1 0x1 PUSH1 0xA0 SHL SUB DUP6 AND DUP5 MSTORE SWAP1 SWAP2 MSTORE SWAP1 KECCAK256 DUP1 SLOAD PUSH1 0xFF NOT AND PUSH1 0x1 OR SWAP1 SSTORE PUSH3 0x2F0 CALLER SWAP1 JUMP JUMPDEST PUSH1 0x1 PUSH1 0x1 PUSH1 0xA0 SHL SUB AND DUP2 PUSH1 0x1 PUSH1 0x1 PUSH1 0xA0 SHL SUB AND DUP4 PUSH32 0x2F8788117E7EFF1D82E926EC794901D17C78024A50270940304540A733656F0D PUSH1 0x40 MLOAD PUSH1 0x40 MLOAD DUP1 SWAP2 SUB SWAP1 LOG4 JUMPDEST POP POP JUMP JUMPDEST PUSH4 0x4E487B71 PUSH1 0xE0 SHL PUSH1 0x0 MSTORE PUSH1 0x41 PUSH1 0x4 MSTORE PUSH1 0x24 PUSH1 0x0 REVERT JUMPDEST PUSH1 0x1 DUP2 DUP2 SHR SWAP1 DUP3 AND DUP1 PUSH3 0x360 JUMPI PUSH1 0x7F DUP3 AND SWAP2 POP JUMPDEST PUSH1 0x20 DUP3 LT DUP2 SUB PUSH3 0x381 JUMPI PUSH4 0x4E487B71 PUSH1 0xE0 SHL PUSH1 0x0 MSTORE PUSH1 0x22 PUSH1 0x4 MSTORE PUSH1 0x24 PUSH1 0x0 REVERT JUMPDEST POP SWAP2 SWAP1 POP JUMP JUMPDEST PUSH1 0x1F DUP3 GT ISZERO PUSH3 0x3D5 JUMPI PUSH1 0x0 DUP2 DUP2 MSTORE PUSH1 0x20 DUP2 KECCAK256 PUSH1 0x1F DUP6 ADD PUSH1 0x5 SHR DUP2 ADD PUSH1 0x20 DUP7 LT ISZERO PUSH3 0x3B0 JUMPI POP DUP1 JUMPDEST PUSH1 0x1F DUP6 ADD PUSH1 0x5 SHR DUP3 ADD SWAP2 POP JUMPDEST DUP2 DUP2 LT ISZERO PUSH3 0x3D1 JUMPI DUP3 DUP2 SSTORE PUSH1 0x1 ADD PUSH3 0x3BC JUMP JUMPDEST POP POP POP JUMPDEST POP POP POP JUMP JUMPDEST DUP2 MLOAD PUSH1 0x1 PUSH1 0x1 PUSH1 0x40 SHL SUB DUP2 GT ISZERO PUSH3 0x3F6 JUMPI PUSH3 0x3F6 PUSH3 0x335 JUMP JUMPDEST PUSH3 0x40E DUP2 PUSH3 0x407 DUP5 SLOAD PUSH3 0x34B JUMP JUMPDEST DUP5 PUSH3 0x387 JUMP JUMPDEST PUSH1 0x20 DUP1 PUSH1 0x1F DUP4 GT PUSH1 0x1 DUP2 EQ PUSH3 0x446 JUMPI PUSH1 0x0 DUP5 ISZERO PUSH3 0x42D JUMPI POP DUP6 DUP4 ADD MLOAD JUMPDEST PUSH1 0x0 NOT PUSH1 0x3 DUP7 SWAP1 SHL SHR NOT AND PUSH1 0x1 DUP6 SWAP1 SHL OR DUP6 SSTORE PUSH3 0x3D1 JUMP JUMPDEST PUSH1 0x0 DUP6 DUP2 MSTORE PUSH1 0x20 DUP2 KECCAK256 PUSH1 0x1F NOT DUP7 AND SWAP2 JUMPDEST DUP3 DUP2 LT ISZERO PUSH3 0x477 JUMPI DUP9 DUP7 ADD MLOAD DUP3 SSTORE SWAP5 DUP5 ADD SWAP5 PUSH1 0x1 SWAP1 SWAP2 ADD SWAP1 DUP5 ADD PUSH3 0x456 JUMP JUMPDEST POP DUP6 DUP3 LT ISZERO PUSH3 0x496 JUMPI DUP8 DUP6 ADD MLOAD PUSH1 0x0 NOT PUSH1 0x3 DUP9 SWAP1 SHL PUSH1 0xF8 AND SHR NOT AND DUP2 SSTORE JUMPDEST POP POP POP POP POP PUSH1 0x1 SWAP1 DUP2 SHL ADD SWAP1 SSTORE POP JUMP JUMPDEST PUSH2 0x4577 DUP1 PUSH3 0x4B6 PUSH1 0x0 CODECOPY PUSH1 0x0 RETURN INVALID PUSH1 0x80 PUSH1 0x40 MSTORE CALLVALUE DUP1 ISZERO PUSH2 0x10 JUMPI PUSH1 0x0 DUP1 REVERT JUMPDEST POP PUSH1 0x4 CALLDATASIZE LT PUSH2 0x399 JUMPI PUSH1 0x0 CALLDATALOAD PUSH1 0xE0 SHR DUP1 PUSH4 0x5C975ABB GT PUSH2 0x1E9 JUMPI DUP1 PUSH4 0xAF1F2BEC GT PUSH2 0x10F JUMPI DUP1 PUSH4 0xDDA5F1ED GT PUSH2 0xAD JUMPI DUP1 PUSH4 0xF4DA16FC GT PUSH2 0x7C JUMPI DUP1 PUSH4 0xF4DA16FC EQ PUSH2 0x950 JUMPI DUP1 PUSH4 0xF5C476F9 EQ PUSH2 0x970 JUMPI DUP1 PUSH4 0xFB8EFCD2 EQ PUSH2 0x979 JUMPI DUP1 PUSH4 0xFDF0572E EQ PUSH2 0x98C JUMPI PUSH1 0x0 DUP1 REVERT JUMPDEST DUP1 PUSH4 0xDDA5F1ED EQ PUSH2 0x8CC JUMPI DUP1 PUSH4 0xDDAF0929 EQ PUSH2 0x8EC JUMPI DUP1 PUSH4 0xE1B628B5 EQ PUSH2 0x910 JUMPI DUP1 PUSH4 0xEC84A20C EQ PUSH2 0x930 JUMPI PUSH1 0x0 DUP1 REVERT JUMPDEST DUP1 PUSH4 0xD5004C7C GT PUSH2 0xE9 JUMPI DUP1 PUSH4 0xD5004C7C EQ PUSH2 0x86F JUMPI DUP1 PUSH4 0xD547741F EQ PUSH2 0x882 JUMPI DUP1 PUSH4 0xDCBB7E07 EQ PUSH2 0x895 JUMPI DUP1 PUSH4 0xDD62ED3E EQ PUSH2 0x8B9 JUMPI PUSH1 0x0 DUP1 REVERT JUMPDEST DUP1 PUSH4 0xAF1F2BEC EQ PUSH2 0x79F JUMPI DUP1 PUSH4 0xC4086893 EQ PUSH2 0x7C6 JUMPI DUP1 PUSH4 0xC813EB10 EQ PUSH2 0x7EF JUMPI PUSH1 0x0 DUP1 REVERT JUMPDEST DUP1 PUSH4 0x7C27D56D GT PUSH2 0x187 JUMPI DUP1 PUSH4 0x9990EDFD GT PUSH2 0x156 JUMPI DUP1 PUSH4 0x9990EDFD EQ PUSH2 0x769 JUMPI DUP1 PUSH4 0xA217FDDF EQ PUSH2 0x771 JUMPI DUP1 PUSH4 0xA457C2D7 EQ PUSH2 0x779 JUMPI DUP1 PUSH4 0xA9059CBB EQ PUSH2 0x78C JUMPI PUSH1 0x0 DUP1 REVERT JUMPDEST DUP1 PUSH4 0x7C27D56D EQ PUSH2 0x716 JUMPI DUP1 PUSH4 0x7F52D804 EQ PUSH2 0x727 JUMPI DUP1 PUSH4 0x91D14854 EQ PUSH2 0x74E JUMPI DUP1 PUSH4 0x95D89B41 EQ PUSH2 0x761 JUMPI PUSH1 0x0 DUP1 REVERT JUMPDEST DUP1 PUSH4 0x6E1D616E GT PUSH2 0x1C3 JUMPI DUP1 PUSH4 0x6E1D616E EQ PUSH2 0x672 JUMPI DUP1 PUSH4 0x70A08231 EQ PUSH2 0x699 JUMPI DUP1 PUSH4 0x70DB8A6D EQ PUSH2 0x6C2 JUMPI DUP1 PUSH4 0x723EB8E3 EQ PUSH2 0x6F0 JUMPI PUSH1 0x0 DUP1 REVERT JUMPDEST DUP1 PUSH4 0x5C975ABB EQ PUSH2 0x62D JUMPI DUP1 PUSH4 0x60732AAE EQ PUSH2 0x638 JUMPI DUP1 PUSH4 0x665E49D5 EQ PUSH2 0x65F JUMPI PUSH1 0x0 DUP1 REVERT JUMPDEST DUP1 PUSH4 0x36568ABE GT PUSH2 0x2CE JUMPI DUP1 PUSH4 0x4B50640F GT PUSH2 0x26C JUMPI DUP1 PUSH4 0x52DFEE05 GT PUSH2 0x23B JUMPI DUP1 PUSH4 0x52DFEE05 EQ PUSH2 0x5D7 JUMPI DUP1 PUSH4 0x53FBB8F0 EQ PUSH2 0x5EA JUMPI DUP1 PUSH4 0x54B78C57 EQ PUSH2 0x618 JUMPI DUP1 PUSH4 0x5643EC18 EQ PUSH2 0x625 JUMPI PUSH1 0x0 DUP1 REVERT JUMPDEST DUP1 PUSH4 0x4B50640F EQ PUSH2 0x594 JUMPI DUP1 PUSH4 0x4BC7F749 EQ PUSH2 0x59C JUMPI DUP1 PUSH4 0x4C761240 EQ PUSH2 0x5BC JUMPI DUP1 PUSH4 0x4DD39FD9 EQ PUSH2 0x5C4 JUMPI PUSH1 0x0 DUP1 REVERT JUMPDEST DUP1 PUSH4 0x39509351 GT PUSH2 0x2A8 JUMPI DUP1 PUSH4 0x39509351 EQ PUSH2 0x523 JUMPI DUP1 PUSH4 0x3F454A96 EQ PUSH2 0x536 JUMPI DUP1 PUSH4 0x470B5646 EQ PUSH2 0x564 JUMPI DUP1 PUSH4 0x49270315 EQ PUSH2 0x58C JUMPI PUSH1 0x0 DUP1 REVERT JUMPDEST DUP1 PUSH4 0x36568ABE EQ PUSH2 0x4EA JUMPI DUP1 PUSH4 0x380DCCD6 EQ PUSH2 0x4FD JUMPI DUP1 PUSH4 0x38C8383C EQ PUSH2 0x510 JUMPI PUSH1 0x0 DUP1 REVERT JUMPDEST DUP1 PUSH4 0x198596B5 GT PUSH2 0x33B JUMPI DUP1 PUSH4 0x248EC326 GT PUSH2 0x315 JUMPI DUP1 PUSH4 0x248EC326 EQ PUSH2 0x4A4 JUMPI DUP1 PUSH4 0x26695F2A EQ PUSH2 0x4B5 JUMPI DUP1 PUSH4 0x2F2FF15D EQ PUSH2 0x4C8 JUMPI DUP1 PUSH4 0x313CE567 EQ PUSH2 0x4DB JUMPI PUSH1 0x0 DUP1 REVERT JUMPDEST DUP1 PUSH4 0x198596B5 EQ PUSH2 0x459 JUMPI DUP1 PUSH4 0x23B872DD EQ PUSH2 0x46E JUMPI DUP1 PUSH4 0x248A9CA3 EQ PUSH2 0x481 JUMPI PUSH1 0x0 DUP1 REVERT JUMPDEST DUP1 PUSH4 0x6FDDE03 GT PUSH2 0x377 JUMPI DUP1 PUSH4 0x6FDDE03 EQ PUSH2 0x414 JUMPI DUP1 PUSH4 0x95EA7B3 EQ PUSH2 0x429 JUMPI DUP1 PUSH4 0x171C3EC0 EQ PUSH2 0x43C JUMPI DUP1 PUSH4 0x18160DDD EQ PUSH2 0x451 JUMPI PUSH1 0x0 DUP1 REVERT JUMPDEST DUP1 PUSH4 0x1FFC9A7 EQ PUSH2 0x39E JUMPI DUP1 PUSH4 0x483A7F6 EQ PUSH2 0x3C6 JUMPI DUP1 PUSH4 0x5E21C83 EQ PUSH2 0x3F4 JUMPI JUMPDEST PUSH1 0x0 DUP1 REVERT JUMPDEST PUSH2 0x3B1 PUSH2 0x3AC CALLDATASIZE PUSH1 0x4 PUSH2 0x38B8 JUMP JUMPDEST PUSH2 0x9AC JUMP JUMPDEST PUSH1 0x40 MLOAD SWAP1 ISZERO ISZERO DUP2 MSTORE PUSH1 0x20 ADD JUMPDEST PUSH1 0x40 MLOAD DUP1 SWAP2 SUB SWAP1 RETURN JUMPDEST PUSH2 0x3E6 PUSH2 0x3D4 CALLDATASIZE PUSH1 0x4 PUSH2 0x38FE JUMP JUMPDEST PUSH1 0xE PUSH1 0x20 MSTORE PUSH1 0x0 SWAP1 DUP2 MSTORE PUSH1 0x40 SWAP1 KECCAK256 SLOAD DUP2 JUMP JUMPDEST PUSH1 0x40 MLOAD SWAP1 DUP2 MSTORE PUSH1 0x20 ADD PUSH2 0x3BD JUMP JUMPDEST PUSH2 0x407 PUSH2 0x402 CALLDATASIZE PUSH1 0x4 PUSH2 0x3919 JUMP JUMPDEST PUSH2 0x9E3 JUMP JUMPDEST PUSH1 0x40 MLOAD PUSH2 0x3BD SWAP2 SWAP1 PUSH2 0x3982 JUMP JUMPDEST PUSH2 0x41C PUSH2 0xBEF JUMP JUMPDEST PUSH1 0x40 MLOAD PUSH2 0x3BD SWAP2 SWAP1 PUSH2 0x39EE JUMP JUMPDEST PUSH2 0x3B1 PUSH2 0x437 CALLDATASIZE PUSH1 0x4 PUSH2 0x3A01 JUMP JUMPDEST PUSH2 0xC81 JUMP JUMPDEST PUSH2 0x44F PUSH2 0x44A CALLDATASIZE PUSH1 0x4 PUSH2 0x3AE2 JUMP JUMPDEST PUSH2 0xC99 JUMP JUMPDEST STOP JUMPDEST PUSH1 0x2 SLOAD PUSH2 0x3E6 JUMP JUMPDEST PUSH2 0x3E6 PUSH1 0x0 DUP1 MLOAD PUSH1 0x20 PUSH2 0x4522 DUP4 CODECOPY DUP2 MLOAD SWAP2 MSTORE DUP2 JUMP JUMPDEST PUSH2 0x3B1 PUSH2 0x47C CALLDATASIZE PUSH1 0x4 PUSH2 0x3B1F JUMP JUMPDEST PUSH2 0xD1C JUMP JUMPDEST PUSH2 0x3E6 PUSH2 0x48F CALLDATASIZE PUSH1 0x4 PUSH2 0x3919 JUMP JUMPDEST PUSH1 0x0 SWAP1 DUP2 MSTORE PUSH1 0x5 PUSH1 0x20 MSTORE PUSH1 0x40 SWAP1 KECCAK256 PUSH1 0x1 ADD SLOAD SWAP1 JUMP JUMPDEST PUSH2 0x3E6 PUSH10 0x21E19E0C9BAB2400000 DUP2 JUMP JUMPDEST PUSH2 0x44F PUSH2 0x4C3 CALLDATASIZE PUSH1 0x4 PUSH2 0x3B6B JUMP JUMPDEST PUSH2 0xE75 JUMP JUMPDEST PUSH2 0x44F PUSH2 0x4D6 CALLDATASIZE PUSH1 0x4 PUSH2 0x3BF8 JUMP JUMPDEST PUSH2 0x1025 JUMP JUMPDEST PUSH1 0x40 MLOAD PUSH1 0x12 DUP2 MSTORE PUSH1 0x20 ADD PUSH2 0x3BD JUMP JUMPDEST PUSH2 0x44F PUSH2 0x4F8 CALLDATASIZE PUSH1 0x4 PUSH2 0x3BF8 JUMP JUMPDEST PUSH2 0x104F JUMP JUMPDEST PUSH2 0x3B1 PUSH2 0x50B CALLDATASIZE PUSH1 0x4 PUSH2 0x3AE2 JUMP JUMPDEST PUSH2 0x10C9 JUMP JUMPDEST PUSH2 0x3B1 PUSH2 0x51E CALLDATASIZE PUSH1 0x4 PUSH2 0x3AE2 JUMP JUMPDEST PUSH2 0x10F4 JUMP JUMPDEST PUSH2 0x3B1 PUSH2 0x531 CALLDATASIZE PUSH1 0x4 PUSH2 0x3A01 JUMP JUMPDEST PUSH2 0x1106 JUMP JUMPDEST PUSH2 0x3B1 PUSH2 0x544 CALLDATASIZE PUSH1 0x4 PUSH2 0x3AE2 JUMP JUMPDEST DUP1 MLOAD PUSH1 0x20 DUP2 DUP4 ADD DUP2 ADD DUP1 MLOAD PUSH1 0x9 DUP3 MSTORE SWAP3 DUP3 ADD SWAP2 SWAP1 SWAP4 ADD KECCAK256 SWAP2 MSTORE SLOAD PUSH1 0xFF AND DUP2 JUMP JUMPDEST PUSH2 0x577 PUSH2 0x572 CALLDATASIZE PUSH1 0x4 PUSH2 0x3919 JUMP JUMPDEST PUSH2 0x1128 JUMP JUMPDEST PUSH1 0x40 MLOAD PUSH2 0x3BD SWAP10 SWAP9 SWAP8 SWAP7 SWAP6 SWAP5 SWAP4 SWAP3 SWAP2 SWAP1 PUSH2 0x3C24 JUMP JUMPDEST PUSH1 0x14 SLOAD PUSH2 0x3E6 JUMP JUMPDEST PUSH2 0x44F PUSH2 0x131F JUMP JUMPDEST PUSH2 0x3E6 PUSH2 0x5AA CALLDATASIZE PUSH1 0x4 PUSH2 0x38FE JUMP JUMPDEST PUSH1 0xD PUSH1 0x20 MSTORE PUSH1 0x0 SWAP1 DUP2 MSTORE PUSH1 0x40 SWAP1 KECCAK256 SLOAD DUP2 JUMP JUMPDEST PUSH2 0x44F PUSH2 0x146F JUMP JUMPDEST PUSH2 0x44F PUSH2 0x5D2 CALLDATASIZE PUSH1 0x4 PUSH2 0x3CA8 JUMP JUMPDEST PUSH2 0x14F5 JUMP JUMPDEST PUSH2 0x44F PUSH2 0x5E5 CALLDATASIZE PUSH1 0x4 PUSH2 0x3D0C JUMP JUMPDEST PUSH2 0x1572 JUMP JUMPDEST PUSH2 0x3B1 PUSH2 0x5F8 CALLDATASIZE PUSH1 0x4 PUSH2 0x3AE2 JUMP JUMPDEST DUP1 MLOAD PUSH1 0x20 DUP2 DUP4 ADD DUP2 ADD DUP1 MLOAD PUSH1 0x11 DUP3 MSTORE SWAP3 DUP3 ADD SWAP2 SWAP1 SWAP4 ADD KECCAK256 SWAP2 MSTORE SLOAD PUSH1 0xFF AND DUP2 JUMP JUMPDEST PUSH1 0x13 SLOAD PUSH2 0x3B1 SWAP1 PUSH1 0xFF AND DUP2 JUMP JUMPDEST PUSH2 0x44F PUSH2 0x177F JUMP JUMPDEST PUSH1 0x6 SLOAD PUSH1 0xFF AND PUSH2 0x3B1 JUMP JUMPDEST PUSH2 0x3E6 PUSH32 0x3A45C6A482AA4EF53AAE9C68A27AA58B0B6D227F7BC2B099DA822572D733FA4C DUP2 JUMP JUMPDEST PUSH2 0x44F PUSH2 0x66D CALLDATASIZE PUSH1 0x4 PUSH2 0x3D94 JUMP JUMPDEST PUSH2 0x18A7 JUMP JUMPDEST PUSH2 0x3E6 PUSH32 0x59A1C48E5837AD7A7F3DCEDCBE129BF3249EC4FBF651FD4F5E2600EAD39FE2F5 DUP2 JUMP JUMPDEST PUSH2 0x3E6 PUSH2 0x6A7 CALLDATASIZE PUSH1 0x4 PUSH2 0x38FE JUMP JUMPDEST PUSH1 0x1 PUSH1 0x1 PUSH1 0xA0 SHL SUB AND PUSH1 0x0 SWAP1 DUP2 MSTORE PUSH1 0x20 DUP2 SWAP1 MSTORE PUSH1 0x40 SWAP1 KECCAK256 SLOAD SWAP1 JUMP JUMPDEST PUSH2 0x3B1 PUSH2 0x6D0 CALLDATASIZE PUSH1 0x4 PUSH2 0x3AE2 JUMP JUMPDEST DUP1 MLOAD PUSH1 0x20 DUP2 DUP4 ADD DUP2 ADD DUP1 MLOAD PUSH1 0x10 DUP3 MSTORE SWAP3 DUP3 ADD SWAP2 SWAP1 SWAP4 ADD KECCAK256 SWAP2 MSTORE SLOAD PUSH1 0xFF AND DUP2 JUMP JUMPDEST PUSH2 0x703 PUSH2 0x6FE CALLDATASIZE PUSH1 0x4 PUSH2 0x38FE JUMP JUMPDEST PUSH2 0x1A43 JUMP JUMPDEST PUSH1 0x40 MLOAD PUSH2 0x3BD SWAP8 SWAP7 SWAP6 SWAP5 SWAP4 SWAP3 SWAP2 SWAP1 PUSH2 0x3EC8 JUMP JUMPDEST PUSH2 0x3E6 PUSH10 0x10F0CF064DD59200000 DUP2 JUMP JUMPDEST PUSH2 0x3E6 PUSH32 0xBC5E62D12C2CECA70897F1B45B6DB8F69577A836114666E7AE0326805E5F9287 DUP2 JUMP JUMPDEST PUSH2 0x3B1 PUSH2 0x75C CALLDATASIZE PUSH1 0x4 PUSH2 0x3BF8 JUMP JUMPDEST PUSH2 0x1BA4 JUMP JUMPDEST PUSH2 0x41C PUSH2 0x1BCF JUMP JUMPDEST PUSH2 0x3E6 PUSH1 0x3 DUP2 JUMP JUMPDEST PUSH2 0x3E6 PUSH1 0x0 DUP2 JUMP JUMPDEST PUSH2 0x3B1 PUSH2 0x787 CALLDATASIZE PUSH1 0x4 PUSH2 0x3A01 JUMP JUMPDEST PUSH2 0x1BDE JUMP JUMPDEST PUSH2 0x3B1 PUSH2 0x79A CALLDATASIZE PUSH1 0x4 PUSH2 0x3A01 JUMP JUMPDEST PUSH2 0x1C64 JUMP JUMPDEST PUSH2 0x3E6 PUSH32 0xFF667E899105A034F5C7114FA50EBE449E29C47C422F2CE3D860E3A368A91C32 DUP2 JUMP JUMPDEST PUSH2 0x3E6 PUSH2 0x7D4 CALLDATASIZE PUSH1 0x4 PUSH2 0x38FE JUMP JUMPDEST PUSH1 0x1 PUSH1 0x1 PUSH1 0xA0 SHL SUB AND PUSH1 0x0 SWAP1 DUP2 MSTORE PUSH1 0xE PUSH1 0x20 MSTORE PUSH1 0x40 SWAP1 KECCAK256 SLOAD SWAP1 JUMP JUMPDEST PUSH2 0x83A PUSH2 0x7FD CALLDATASIZE PUSH1 0x4 PUSH2 0x3919 JUMP JUMPDEST PUSH1 0x15 PUSH1 0x20 MSTORE PUSH1 0x0 SWAP1 DUP2 MSTORE PUSH1 0x40 SWAP1 KECCAK256 DUP1 SLOAD PUSH1 0x1 DUP3 ADD SLOAD PUSH1 0x2 DUP4 ADD SLOAD PUSH1 0x3 DUP5 ADD SLOAD PUSH1 0x4 DUP6 ADD SLOAD PUSH1 0x5 DUP7 ADD SLOAD PUSH1 0x6 SWAP1 SWAP7 ADD SLOAD SWAP5 SWAP6 SWAP4 SWAP5 SWAP3 SWAP4 SWAP2 SWAP3 SWAP1 SWAP2 SWAP1 DUP8 JUMP JUMPDEST PUSH1 0x40 DUP1 MLOAD SWAP8 DUP9 MSTORE PUSH1 0x20 DUP9 ADD SWAP7 SWAP1 SWAP7 MSTORE SWAP5 DUP7 ADD SWAP4 SWAP1 SWAP4 MSTORE PUSH1 0x60 DUP6 ADD SWAP2 SWAP1 SWAP2 MSTORE PUSH1 0x80 DUP5 ADD MSTORE PUSH1 0xA0 DUP4 ADD MSTORE PUSH1 0xC0 DUP3 ADD MSTORE PUSH1 0xE0 ADD PUSH2 0x3BD JUMP JUMPDEST PUSH2 0x44F PUSH2 0x87D CALLDATASIZE PUSH1 0x4 PUSH2 0x3AE2 JUMP JUMPDEST PUSH2 0x1D89 JUMP JUMPDEST PUSH2 0x44F PUSH2 0x890 CALLDATASIZE PUSH1 0x4 PUSH2 0x3BF8 JUMP JUMPDEST PUSH2 0x1E09 JUMP JUMPDEST PUSH2 0x8A8 PUSH2 0x8A3 CALLDATASIZE PUSH1 0x4 PUSH2 0x38FE JUMP JUMPDEST PUSH2 0x1E2E JUMP JUMPDEST PUSH1 0x40 MLOAD PUSH2 0x3BD SWAP6 SWAP5 SWAP4 SWAP3 SWAP2 SWAP1 PUSH2 0x3F28 JUMP JUMPDEST PUSH2 0x3E6 PUSH2 0x8C7 CALLDATASIZE PUSH1 0x4 PUSH2 0x3F70 JUMP JUMPDEST PUSH2 0x1F74 JUMP JUMPDEST PUSH2 0x3E6 PUSH2 0x8DA CALLDATASIZE PUSH1 0x4 PUSH2 0x38FE JUMP JUMPDEST PUSH1 0xC PUSH1 0x20 MSTORE PUSH1 0x0 SWAP1 DUP2 MSTORE PUSH1 0x40 SWAP1 KECCAK256 SLOAD DUP2 JUMP JUMPDEST PUSH2 0x8FF PUSH2 0x8FA CALLDATASIZE PUSH1 0x4 PUSH2 0x3919 JUMP JUMPDEST PUSH2 0x1F9F JUMP JUMPDEST PUSH1 0x40 MLOAD PUSH2 0x3BD SWAP6 SWAP5 SWAP4 SWAP3 SWAP2 SWAP1 PUSH2 0x3F9A JUMP JUMPDEST PUSH2 0x923 PUSH2 0x91E CALLDATASIZE PUSH1 0x4 PUSH2 0x38FE JUMP JUMPDEST PUSH2 0x20FB JUMP JUMPDEST PUSH1 0x40 MLOAD PUSH2 0x3BD SWAP2 SWAP1 PUSH2 0x3FE5 JUMP JUMPDEST PUSH2 0x3E6 PUSH2 0x93E CALLDATASIZE PUSH1 0x4 PUSH2 0x38FE JUMP JUMPDEST PUSH1 0xF PUSH1 0x20 MSTORE PUSH1 0x0 SWAP1 DUP2 MSTORE PUSH1 0x40 SWAP1 KECCAK256 SLOAD DUP2 JUMP JUMPDEST PUSH2 0x963 PUSH2 0x95E CALLDATASIZE PUSH1 0x4 PUSH2 0x38FE JUMP JUMPDEST PUSH2 0x22C8 JUMP JUMPDEST PUSH1 0x40 MLOAD PUSH2 0x3BD SWAP2 SWAP1 PUSH2 0x40BB JUMP JUMPDEST PUSH2 0x3E6 PUSH1 0x12 SLOAD DUP2 JUMP JUMPDEST PUSH2 0x44F PUSH2 0x987 CALLDATASIZE PUSH1 0x4 PUSH2 0x4142 JUMP JUMPDEST PUSH2 0x2555 JUMP JUMPDEST PUSH2 0x99F PUSH2 0x99A CALLDATASIZE PUSH1 0x4 PUSH2 0x3919 JUMP JUMPDEST PUSH2 0x279F JUMP JUMPDEST PUSH1 0x40 MLOAD PUSH2 0x3BD SWAP2 SWAP1 PUSH2 0x41AA JUMP JUMPDEST PUSH1 0x0 PUSH1 0x1 PUSH1 0x1 PUSH1 0xE0 SHL SUB NOT DUP3 AND PUSH4 0x7965DB0B PUSH1 0xE0 SHL EQ DUP1 PUSH2 0x9DD JUMPI POP PUSH4 0x1FFC9A7 PUSH1 0xE0 SHL PUSH1 0x1 PUSH1 0x1 PUSH1 0xE0 SHL SUB NOT DUP4 AND EQ JUMPDEST SWAP3 SWAP2 POP POP JUMP JUMPDEST PUSH2 0xA21 PUSH1 0x40 MLOAD DUP1 PUSH1 0xA0 ADD PUSH1 0x40 MSTORE DUP1 PUSH1 0x0 PUSH1 0x1 PUSH1 0x1 PUSH1 0xA0 SHL SUB AND DUP2 MSTORE PUSH1 0x20 ADD PUSH1 0x60 DUP2 MSTORE PUSH1 0x20 ADD PUSH1 0x60 DUP2 MSTORE PUSH1 0x20 ADD PUSH1 0x0 DUP2 MSTORE PUSH1 0x20 ADD PUSH1 0x0 DUP1 NOT AND DUP2 MSTORE POP SWAP1 JUMP JUMPDEST PUSH1 0x14 SLOAD DUP3 LT PUSH2 0xA6D JUMPI PUSH1 0x40 MLOAD PUSH3 0x461BCD PUSH1 0xE5 SHL DUP2 MSTORE PUSH1 0x20 PUSH1 0x4 DUP3 ADD MSTORE PUSH1 0x13 PUSH1 0x24 DUP3 ADD MSTORE PUSH19 0x496E646578206F7574206F6620626F756E6473 PUSH1 0x68 SHL PUSH1 0x44 DUP3 ADD MSTORE PUSH1 0x64 ADD JUMPDEST PUSH1 0x40 MLOAD DUP1 SWAP2 SUB SWAP1 REVERT JUMPDEST PUSH1 0x14 DUP3 DUP2 SLOAD DUP2 LT PUSH2 0xA80 JUMPI PUSH2 0xA80 PUSH2 0x420F JUMP JUMPDEST PUSH1 0x0 SWAP2 DUP3 MSTORE PUSH1 0x20 SWAP2 DUP3 SWAP1 KECCAK256 PUSH1 0x40 DUP1 MLOAD PUSH1 0xA0 DUP2 ADD SWAP1 SWAP2 MSTORE PUSH1 0x5 SWAP1 SWAP3 MUL ADD DUP1 SLOAD PUSH1 0x1 PUSH1 0x1 PUSH1 0xA0 SHL SUB AND DUP3 MSTORE PUSH1 0x1 DUP2 ADD DUP1 SLOAD SWAP3 SWAP4 SWAP2 SWAP3 SWAP2 DUP5 ADD SWAP2 PUSH2 0xAC0 SWAP1 PUSH2 0x4225 JUMP JUMPDEST DUP1 PUSH1 0x1F ADD PUSH1 0x20 DUP1 SWAP2 DIV MUL PUSH1 0x20 ADD PUSH1 0x40 MLOAD SWAP1 DUP2 ADD PUSH1 0x40 MSTORE DUP1 SWAP3 SWAP2 SWAP1 DUP2 DUP2 MSTORE PUSH1 0x20 ADD DUP3 DUP1 SLOAD PUSH2 0xAEC SWAP1 PUSH2 0x4225 JUMP JUMPDEST DUP1 ISZERO PUSH2 0xB39 JUMPI DUP1 PUSH1 0x1F LT PUSH2 0xB0E JUMPI PUSH2 0x100 DUP1 DUP4 SLOAD DIV MUL DUP4 MSTORE SWAP2 PUSH1 0x20 ADD SWAP2 PUSH2 0xB39 JUMP JUMPDEST DUP3 ADD SWAP2 SWAP1 PUSH1 0x0 MSTORE PUSH1 0x20 PUSH1 0x0 KECCAK256 SWAP1 JUMPDEST DUP2 SLOAD DUP2 MSTORE SWAP1 PUSH1 0x1 ADD SWAP1 PUSH1 0x20 ADD DUP1 DUP4 GT PUSH2 0xB1C JUMPI DUP3 SWAP1 SUB PUSH1 0x1F AND DUP3 ADD SWAP2 JUMPDEST POP POP POP POP POP DUP2 MSTORE PUSH1 0x20 ADD PUSH1 0x2 DUP3 ADD DUP1 SLOAD PUSH2 0xB52 SWAP1 PUSH2 0x4225 JUMP JUMPDEST DUP1 PUSH1 0x1F ADD PUSH1 0x20 DUP1 SWAP2 DIV MUL PUSH1 0x20 ADD PUSH1 0x40 MLOAD SWAP1 DUP2 ADD PUSH1 0x40 MSTORE DUP1 SWAP3 SWAP2 SWAP1 DUP2 DUP2 MSTORE PUSH1 0x20 ADD DUP3 DUP1 SLOAD PUSH2 0xB7E SWAP1 PUSH2 0x4225 JUMP JUMPDEST DUP1 ISZERO PUSH2 0xBCB JUMPI DUP1 PUSH1 0x1F LT PUSH2 0xBA0 JUMPI PUSH2 0x100 DUP1 DUP4 SLOAD DIV MUL DUP4 MSTORE SWAP2 PUSH1 0x20 ADD SWAP2 PUSH2 0xBCB JUMP JUMPDEST DUP3 ADD SWAP2 SWAP1 PUSH1 0x0 MSTORE PUSH1 0x20 PUSH1 0x0 KECCAK256 SWAP1 JUMPDEST DUP2 SLOAD DUP2 MSTORE SWAP1 PUSH1 0x1 ADD SWAP1 PUSH1 0x20 ADD DUP1 DUP4 GT PUSH2 0xBAE JUMPI DUP3 SWAP1 SUB PUSH1 0x1F AND DUP3 ADD SWAP2 JUMPDEST POP POP POP POP POP DUP2 MSTORE PUSH1 0x20 ADD PUSH1 0x3 DUP3 ADD SLOAD DUP2 MSTORE PUSH1 0x20 ADD PUSH1 0x4 DUP3 ADD SLOAD DUP2 MSTORE POP POP SWAP1 POP SWAP2 SWAP1 POP JUMP JUMPDEST PUSH1 0x60 PUSH1 0x3 DUP1 SLOAD PUSH2 0xBFE SWAP1 PUSH2 0x4225 JUMP JUMPDEST DUP1 PUSH1 0x1F ADD PUSH1 0x20 DUP1 SWAP2 DIV MUL PUSH1 0x20 ADD PUSH1 0x40 MLOAD SWAP1 DUP2 ADD PUSH1 0x40 MSTORE DUP1 SWAP3 SWAP2 SWAP1 DUP2 DUP2 MSTORE PUSH1 0x20 ADD DUP3 DUP1 SLOAD PUSH2 0xC2A SWAP1 PUSH2 0x4225 JUMP JUMPDEST DUP1 ISZERO PUSH2 0xC77 JUMPI DUP1 PUSH1 0x1F LT PUSH2 0xC4C JUMPI PUSH2 0x100 DUP1 DUP4 SLOAD DIV MUL DUP4 MSTORE SWAP2 PUSH1 0x20 ADD SWAP2 PUSH2 0xC77 JUMP JUMPDEST DUP3 ADD SWAP2 SWAP1 PUSH1 0x0 MSTORE PUSH1 0x20 PUSH1 0x0 KECCAK256 SWAP1 JUMPDEST DUP2 SLOAD DUP2 MSTORE SWAP1 PUSH1 0x1 ADD SWAP1 PUSH1 0x20 ADD DUP1 DUP4 GT PUSH2 0xC5A JUMPI DUP3 SWAP1 SUB PUSH1 0x1F AND DUP3 ADD SWAP2 JUMPDEST POP POP POP POP POP SWAP1 POP SWAP1 JUMP JUMPDEST PUSH1 0x0 CALLER PUSH2 0xC8F DUP2 DUP6 DUP6 PUSH2 0x2B13 JUMP JUMPDEST POP PUSH1 0x1 SWAP4 SWAP3 POP POP POP JUMP JUMPDEST PUSH1 0x0 DUP1 MLOAD PUSH1 0x20 PUSH2 0x4522 DUP4 CODECOPY DUP2 MLOAD SWAP2 MSTORE PUSH2 0xCB1 DUP2 PUSH2 0x2C37 JUMP JUMPDEST PUSH1 0x0 PUSH1 0x10 DUP4 PUSH1 0x40 MLOAD PUSH2 0xCC3 SWAP2 SWAP1 PUSH2 0x4259 JUMP JUMPDEST SWAP1 DUP2 MSTORE PUSH1 0x20 ADD PUSH1 0x40 MLOAD DUP1 SWAP2 SUB SWAP1 KECCAK256 PUSH1 0x0 PUSH2 0x100 EXP DUP2 SLOAD DUP2 PUSH1 0xFF MUL NOT AND SWAP1 DUP4 ISZERO ISZERO MUL OR SWAP1 SSTORE POP PUSH2 0xD18 PUSH1 0x40 MLOAD DUP1 PUSH1 0x40 ADD PUSH1 0x40 MSTORE DUP1 PUSH1 0xE DUP2 MSTORE PUSH1 0x20 ADD PUSH14 0x14D510551157D55394105554D151 PUSH1 0x92 SHL DUP2 MSTORE POP DUP4 PUSH2 0x2C41 JUMP JUMPDEST POP POP JUMP JUMPDEST PUSH1 0x0 PUSH2 0xD26 PUSH2 0x2D5F JUMP JUMPDEST PUSH2 0xD31 DUP5 DUP5 DUP5 PUSH2 0x2DA7 JUMP JUMPDEST ISZERO PUSH2 0xD7E JUMPI PUSH1 0x40 MLOAD PUSH3 0x461BCD PUSH1 0xE5 SHL DUP2 MSTORE PUSH1 0x20 PUSH1 0x4 DUP3 ADD MSTORE PUSH1 0x1E PUSH1 0x24 DUP3 ADD MSTORE PUSH32 0x5472616E73616374696F6E20666C616767656420666F72207265766965770000 PUSH1 0x44 DUP3 ADD MSTORE PUSH1 0x64 ADD PUSH2 0xA64 JUMP JUMPDEST PUSH2 0xE60 DUP5 DUP5 DUP5 PUSH1 0x40 MLOAD DUP1 PUSH1 0x40 ADD PUSH1 0x40 MSTORE DUP1 PUSH1 0xD DUP2 MSTORE PUSH1 0x20 ADD PUSH13 0x5452414E534645525F46524F4D PUSH1 0x98 SHL DUP2 MSTORE POP PUSH1 0x8 PUSH1 0x0 DUP11 PUSH1 0x1 PUSH1 0x1 PUSH1 0xA0 SHL SUB AND PUSH1 0x1 PUSH1 0x1 PUSH1 0xA0 SHL SUB AND DUP2 MSTORE PUSH1 0x20 ADD SWAP1 DUP2 MSTORE PUSH1 0x20 ADD PUSH1 0x0 KECCAK256 PUSH1 0x1 ADD DUP1 SLOAD PUSH2 0xDDD SWAP1 PUSH2 0x4225 JUMP JUMPDEST DUP1 PUSH1 0x1F ADD PUSH1 0x20 DUP1 SWAP2 DIV MUL PUSH1 0x20 ADD PUSH1 0x40 MLOAD SWAP1 DUP2 ADD PUSH1 0x40 MSTORE DUP1 SWAP3 SWAP2 SWAP1 DUP2 DUP2 MSTORE PUSH1 0x20 ADD DUP3 DUP1 SLOAD PUSH2 0xE09 SWAP1 PUSH2 0x4225 JUMP JUMPDEST DUP1 ISZERO PUSH2 0xE56 JUMPI DUP1 PUSH1 0x1F LT PUSH2 0xE2B JUMPI PUSH2 0x100 DUP1 DUP4 SLOAD DIV MUL DUP4 MSTORE SWAP2 PUSH1 0x20 ADD SWAP2 PUSH2 0xE56 JUMP JUMPDEST DUP3 ADD SWAP2 SWAP1 PUSH1 0x0 MSTORE PUSH1 0x20 PUSH1 0x0 KECCAK256 SWAP1 JUMPDEST DUP2 SLOAD DUP2 MSTORE SWAP1 PUSH1 0x1 ADD SWAP1 PUSH1 0x20 ADD DUP1 DUP4 GT PUSH2 0xE39 JUMPI DUP3 SWAP1 SUB PUSH1 0x1F AND DUP3 ADD SWAP2 JUMPDEST POP POP POP POP POP PUSH2 0x2E70 JUMP JUMPDEST PUSH2 0xE6B DUP5 DUP5 DUP5 PUSH2 0x30D2 JUMP JUMPDEST SWAP1 POP JUMPDEST SWAP4 SWAP3 POP POP POP JUMP JUMPDEST PUSH1 0x0 DUP1 MLOAD PUSH1 0x20 PUSH2 0x4522 DUP4 CODECOPY DUP2 MLOAD SWAP2 MSTORE PUSH2 0xE8D DUP2 PUSH2 0x2C37 JUMP JUMPDEST PUSH1 0x40 DUP1 MLOAD PUSH1 0xE0 DUP2 ADD DUP3 MSTORE DUP7 ISZERO ISZERO DUP2 MSTORE PUSH1 0x0 PUSH1 0x20 DUP3 ADD MSTORE SWAP1 DUP2 ADD DUP6 SWAP1 MSTORE TIMESTAMP PUSH1 0x60 DUP3 ADD MSTORE PUSH1 0x80 DUP2 ADD PUSH2 0xEC0 DUP5 PUSH3 0x15180 PUSH2 0x428B JUMP JUMPDEST PUSH2 0xECA SWAP1 TIMESTAMP PUSH2 0x42A2 JUMP JUMPDEST DUP2 MSTORE CALLER PUSH1 0x20 DUP1 DUP4 ADD SWAP2 SWAP1 SWAP2 MSTORE PUSH1 0x40 SWAP2 DUP3 ADD DUP7 SWAP1 MSTORE PUSH1 0x1 PUSH1 0x1 PUSH1 0xA0 SHL SUB DUP10 AND PUSH1 0x0 SWAP1 DUP2 MSTORE PUSH1 0x8 DUP3 MSTORE DUP3 SWAP1 KECCAK256 DUP4 MLOAD DUP2 SLOAD SWAP3 DUP6 ADD MLOAD PUSH2 0xFFFF NOT SWAP1 SWAP4 AND SWAP1 ISZERO ISZERO PUSH2 0xFF00 NOT AND OR PUSH2 0x100 SWAP3 ISZERO ISZERO SWAP3 SWAP1 SWAP3 MUL SWAP2 SWAP1 SWAP2 OR DUP2 SSTORE SWAP1 DUP3 ADD MLOAD PUSH1 0x1 DUP3 ADD SWAP1 PUSH2 0xF2F SWAP1 DUP3 PUSH2 0x4303 JUMP JUMPDEST POP PUSH1 0x60 DUP3 ADD MLOAD PUSH1 0x2 DUP3 ADD SSTORE PUSH1 0x80 DUP3 ADD MLOAD PUSH1 0x3 DUP3 ADD SSTORE PUSH1 0xA0 DUP3 ADD MLOAD PUSH1 0x4 DUP3 ADD DUP1 SLOAD PUSH1 0x1 PUSH1 0x1 PUSH1 0xA0 SHL SUB NOT AND PUSH1 0x1 PUSH1 0x1 PUSH1 0xA0 SHL SUB SWAP1 SWAP3 AND SWAP2 SWAP1 SWAP2 OR SWAP1 SSTORE PUSH1 0xC0 DUP3 ADD MLOAD PUSH1 0x5 DUP3 ADD SWAP1 PUSH2 0xF7E SWAP1 DUP3 PUSH2 0x4303 JUMP JUMPDEST POP SWAP1 POP POP PUSH2 0xFDA PUSH1 0x40 MLOAD DUP1 PUSH1 0x40 ADD PUSH1 0x40 MSTORE DUP1 PUSH1 0x11 DUP2 MSTORE PUSH1 0x20 ADD PUSH17 0x4B59435F5354415455535F555044415445 PUSH1 0x78 SHL DUP2 MSTORE POP PUSH1 0x40 MLOAD DUP1 PUSH1 0x40 ADD PUSH1 0x40 MSTORE DUP1 PUSH1 0xD DUP2 MSTORE PUSH1 0x20 ADD PUSH13 0x155CD95C881D995C9A599A5959 PUSH1 0x9A SHL DUP2 MSTORE POP PUSH2 0x2C41 JUMP JUMPDEST DUP6 PUSH1 0x1 PUSH1 0x1 PUSH1 0xA0 SHL SUB AND PUSH32 0x991F3B51F93FCDBA290360AB6A0051757ED4989659819E1EBE53FFB2697D4F2E DUP7 DUP7 PUSH1 0x40 MLOAD PUSH2 0x1015 SWAP3 SWAP2 SWAP1 PUSH2 0x43C3 JUMP JUMPDEST PUSH1 0x40 MLOAD DUP1 SWAP2 SUB SWAP1 LOG2 POP POP POP POP POP POP JUMP JUMPDEST PUSH1 0x0 DUP3 DUP2 MSTORE PUSH1 0x5 PUSH1 0x20 MSTORE PUSH1 0x40 SWAP1 KECCAK256 PUSH1 0x1 ADD SLOAD PUSH2 0x1040 DUP2 PUSH2 0x2C37 JUMP JUMPDEST PUSH2 0x104A DUP4 DUP4 PUSH2 0x30EB JUMP JUMPDEST POP POP POP JUMP JUMPDEST PUSH1 0x1 PUSH1 0x1 PUSH1 0xA0 SHL SUB DUP2 AND CALLER EQ PUSH2 0x10BF JUMPI PUSH1 0x40 MLOAD PUSH3 0x461BCD PUSH1 0xE5 SHL DUP2 MSTORE PUSH1 0x20 PUSH1 0x4 DUP3 ADD MSTORE PUSH1 0x2F PUSH1 0x24 DUP3 ADD MSTORE PUSH32 0x416363657373436F6E74726F6C3A2063616E206F6E6C792072656E6F756E6365 PUSH1 0x44 DUP3 ADD MSTORE PUSH15 0x103937B632B9903337B91039B2B633 PUSH1 0x89 SHL PUSH1 0x64 DUP3 ADD MSTORE PUSH1 0x84 ADD PUSH2 0xA64 JUMP JUMPDEST PUSH2 0xD18 DUP3 DUP3 PUSH2 0x3171 JUMP JUMPDEST PUSH1 0x0 PUSH1 0x9 DUP3 PUSH1 0x40 MLOAD PUSH2 0x10DB SWAP2 SWAP1 PUSH2 0x4259 JUMP JUMPDEST SWAP1 DUP2 MSTORE PUSH1 0x40 MLOAD SWAP1 DUP2 SWAP1 SUB PUSH1 0x20 ADD SWAP1 KECCAK256 SLOAD PUSH1 0xFF AND SWAP3 SWAP2 POP POP JUMP JUMPDEST PUSH1 0x0 PUSH1 0x10 DUP3 PUSH1 0x40 MLOAD PUSH2 0x10DB SWAP2 SWAP1 PUSH2 0x4259 JUMP JUMPDEST PUSH1 0x0 CALLER PUSH2 0xC8F DUP2 DUP6 DUP6 PUSH2 0x1119 DUP4 DUP4 PUSH2 0x1F74 JUMP JUMPDEST PUSH2 0x1123 SWAP2 SWAP1 PUSH2 0x42A2 JUMP JUMPDEST PUSH2 0x2B13 JUMP JUMPDEST PUSH1 0xB PUSH1 0x20 MSTORE PUSH1 0x0 SWAP1 DUP2 MSTORE PUSH1 0x40 SWAP1 KECCAK256 DUP1 SLOAD PUSH1 0x1 DUP3 ADD SLOAD PUSH1 0x2 DUP4 ADD SLOAD PUSH1 0x3 DUP5 ADD SLOAD PUSH1 0x4 DUP6 ADD DUP1 SLOAD PUSH1 0x1 PUSH1 0x1 PUSH1 0xA0 SHL SUB SWAP6 DUP7 AND SWAP7 SWAP5 SWAP1 SWAP6 AND SWAP5 SWAP3 SWAP4 SWAP2 SWAP3 PUSH2 0x116B SWAP1 PUSH2 0x4225 JUMP JUMPDEST DUP1 PUSH1 0x1F ADD PUSH1 0x20 DUP1 SWAP2 DIV MUL PUSH1 0x20 ADD PUSH1 0x40 MLOAD SWAP1 DUP2 ADD PUSH1 0x40 MSTORE DUP1 SWAP3 SWAP2 SWAP1 DUP2 DUP2 MSTORE PUSH1 0x20 ADD DUP3 DUP1 SLOAD PUSH2 0x1197 SWAP1 PUSH2 0x4225 JUMP JUMPDEST DUP1 ISZERO PUSH2 0x11E4 JUMPI DUP1 PUSH1 0x1F LT PUSH2 0x11B9 JUMPI PUSH2 0x100 DUP1 DUP4 SLOAD DIV MUL DUP4 MSTORE SWAP2 PUSH1 0x20 ADD SWAP2 PUSH2 0x11E4 JUMP JUMPDEST DUP3 ADD SWAP2 SWAP1 PUSH1 0x0 MSTORE PUSH1 0x20 PUSH1 0x0 KECCAK256 SWAP1 JUMPDEST DUP2 SLOAD DUP2 MSTORE SWAP1 PUSH1 0x1 ADD SWAP1 PUSH1 0x20 ADD DUP1 DUP4 GT PUSH2 0x11C7 JUMPI DUP3 SWAP1 SUB PUSH1 0x1F AND DUP3 ADD SWAP2 JUMPDEST POP POP POP POP POP SWAP1 DUP1 PUSH1 0x5 ADD DUP1 SLOAD PUSH2 0x11F9 SWAP1 PUSH2 0x4225 JUMP JUMPDEST DUP1 PUSH1 0x1F ADD PUSH1 0x20 DUP1 SWAP2 DIV MUL PUSH1 0x20 ADD PUSH1 0x40 MLOAD SWAP1 DUP2 ADD PUSH1 0x40 MSTORE DUP1 SWAP3 SWAP2 SWAP1 DUP2 DUP2 MSTORE PUSH1 0x20 ADD DUP3 DUP1 SLOAD PUSH2 0x1225 SWAP1 PUSH2 0x4225 JUMP JUMPDEST DUP1 ISZERO PUSH2 0x1272 JUMPI DUP1 PUSH1 0x1F LT PUSH2 0x1247 JUMPI PUSH2 0x100 DUP1 DUP4 SLOAD DIV MUL DUP4 MSTORE SWAP2 PUSH1 0x20 ADD SWAP2 PUSH2 0x1272 JUMP JUMPDEST DUP3 ADD SWAP2 SWAP1 PUSH1 0x0 MSTORE PUSH1 0x20 PUSH1 0x0 KECCAK256 SWAP1 JUMPDEST DUP2 SLOAD DUP2 MSTORE SWAP1 PUSH1 0x1 ADD SWAP1 PUSH1 0x20 ADD DUP1 DUP4 GT PUSH2 0x1255 JUMPI DUP3 SWAP1 SUB PUSH1 0x1F AND DUP3 ADD SWAP2 JUMPDEST POP POP POP POP PUSH1 0x6 DUP4 ADD SLOAD PUSH1 0x7 DUP5 ADD DUP1 SLOAD SWAP4 SWAP5 PUSH1 0xFF DUP1 DUP5 AND SWAP6 PUSH2 0x100 SWAP1 SWAP5 DIV AND SWAP4 POP SWAP2 PUSH2 0x129C SWAP1 PUSH2 0x4225 JUMP JUMPDEST DUP1 PUSH1 0x1F ADD PUSH1 0x20 DUP1 SWAP2 DIV MUL PUSH1 0x20 ADD PUSH1 0x40 MLOAD SWAP1 DUP2 ADD PUSH1 0x40 MSTORE DUP1 SWAP3 SWAP2 SWAP1 DUP2 DUP2 MSTORE PUSH1 0x20 ADD DUP3 DUP1 SLOAD PUSH2 0x12C8 SWAP1 PUSH2 0x4225 JUMP JUMPDEST DUP1 ISZERO PUSH2 0x1315 JUMPI DUP1 PUSH1 0x1F LT PUSH2 0x12EA JUMPI PUSH2 0x100 DUP1 DUP4 SLOAD DIV MUL DUP4 MSTORE SWAP2 PUSH1 0x20 ADD SWAP2 PUSH2 0x1315 JUMP JUMPDEST DUP3 ADD SWAP2 SWAP1 PUSH1 0x0 MSTORE PUSH1 0x20 PUSH1 0x0 KECCAK256 SWAP1 JUMPDEST DUP2 SLOAD DUP2 MSTORE SWAP1 PUSH1 0x1 ADD SWAP1 PUSH1 0x20 ADD DUP1 DUP4 GT PUSH2 0x12F8 JUMPI DUP3 SWAP1 SUB PUSH1 0x1F AND DUP3 ADD SWAP2 JUMPDEST POP POP POP POP POP SWAP1 POP DUP10 JUMP JUMPDEST PUSH1 0x13 SLOAD PUSH1 0xFF AND PUSH2 0x137B JUMPI PUSH1 0x40 MLOAD PUSH3 0x461BCD PUSH1 0xE5 SHL DUP2 MSTORE PUSH1 0x20 PUSH1 0x4 DUP3 ADD MSTORE PUSH1 0x21 PUSH1 0x24 DUP3 ADD MSTORE PUSH32 0x466F756E646174696F6E207068617365206E6F742079657420756E6C6F636B65 PUSH1 0x44 DUP3 ADD MSTORE PUSH1 0x19 PUSH1 0xFA SHL PUSH1 0x64 DUP3 ADD MSTORE PUSH1 0x84 ADD PUSH2 0xA64 JUMP JUMPDEST CALLER PUSH1 0x0 SWAP1 DUP2 MSTORE PUSH1 0xE PUSH1 0x20 MSTORE PUSH1 0x40 SWAP1 KECCAK256 SLOAD PUSH2 0x13D7 JUMPI PUSH1 0x40 MLOAD PUSH3 0x461BCD PUSH1 0xE5 SHL DUP2 MSTORE PUSH1 0x20 PUSH1 0x4 DUP3 ADD MSTORE PUSH1 0x19 PUSH1 0x24 DUP3 ADD MSTORE PUSH32 0x4E6F206C6F636B656420746F6B656E7320746F20636C61696D00000000000000 PUSH1 0x44 DUP3 ADD MSTORE PUSH1 0x64 ADD PUSH2 0xA64 JUMP JUMPDEST CALLER PUSH1 0x0 SWAP1 DUP2 MSTORE PUSH1 0xE PUSH1 0x20 MSTORE PUSH1 0x40 DUP2 KECCAK256 DUP1 SLOAD SWAP1 DUP3 SWAP1 SSTORE PUSH1 0x12 DUP1 SLOAD SWAP2 SWAP3 DUP4 SWAP3 PUSH2 0x13FF SWAP1 DUP5 SWAP1 PUSH2 0x43DE JUMP JUMPDEST SWAP1 SWAP2 SSTORE POP PUSH2 0x140F SWAP1 POP CALLER DUP3 PUSH2 0x31D8 JUMP JUMPDEST PUSH2 0x146C PUSH1 0x40 MLOAD DUP1 PUSH1 0x40 ADD PUSH1 0x40 MSTORE DUP1 PUSH1 0xE DUP2 MSTORE PUSH1 0x20 ADD PUSH14 0x1513D2D15394D7D0D31052535151 PUSH1 0x92 SHL DUP2 MSTORE POP PUSH1 0x40 MLOAD DUP1 PUSH1 0x40 ADD PUSH1 0x40 MSTORE DUP1 PUSH1 0x15 DUP2 MSTORE PUSH1 0x20 ADD PUSH21 0x131BD8DAD959081D1BDAD95B9CC818DB185A5B5959 PUSH1 0x5A SHL DUP2 MSTORE POP PUSH2 0x2C41 JUMP JUMPDEST POP JUMP JUMPDEST PUSH1 0x0 DUP1 MLOAD PUSH1 0x20 PUSH2 0x4522 DUP4 CODECOPY DUP2 MLOAD SWAP2 MSTORE PUSH2 0x1487 DUP2 PUSH2 0x2C37 JUMP JUMPDEST PUSH2 0x148F PUSH2 0x3297 JUMP JUMPDEST PUSH2 0x146C PUSH1 0x40 MLOAD DUP1 PUSH1 0x40 ADD PUSH1 0x40 MSTORE DUP1 PUSH1 0xF DUP2 MSTORE PUSH1 0x20 ADD PUSH15 0x14D654D5115357D55394105554D151 PUSH1 0x8A SHL DUP2 MSTORE POP PUSH1 0x40 MLOAD DUP1 PUSH1 0x40 ADD PUSH1 0x40 MSTORE DUP1 PUSH1 0x19 DUP2 MSTORE PUSH1 0x20 ADD PUSH32 0x53797374656D206F7065726174696F6E7320726573756D656400000000000000 DUP2 MSTORE POP PUSH2 0x2C41 JUMP JUMPDEST PUSH1 0x0 DUP1 MLOAD PUSH1 0x20 PUSH2 0x4522 DUP4 CODECOPY DUP2 MLOAD SWAP2 MSTORE PUSH2 0x150D DUP2 PUSH2 0x2C37 JUMP JUMPDEST PUSH1 0x1 PUSH1 0x10 DUP5 PUSH1 0x40 MLOAD PUSH2 0x151F SWAP2 SWAP1 PUSH2 0x4259 JUMP JUMPDEST SWAP1 DUP2 MSTORE PUSH1 0x20 ADD PUSH1 0x40 MLOAD DUP1 SWAP2 SUB SWAP1 KECCAK256 PUSH1 0x0 PUSH2 0x100 EXP DUP2 SLOAD DUP2 PUSH1 0xFF MUL NOT AND SWAP1 DUP4 ISZERO ISZERO MUL OR SWAP1 SSTORE POP PUSH2 0x104A PUSH1 0x40 MLOAD DUP1 PUSH1 0x40 ADD PUSH1 0x40 MSTORE DUP1 PUSH1 0xC DUP2 MSTORE PUSH1 0x20 ADD PUSH12 0x14D510551157D4105554D151 PUSH1 0xA2 SHL DUP2 MSTORE POP DUP5 PUSH2 0x2C41 JUMP JUMPDEST PUSH32 0xBC5E62D12C2CECA70897F1B45B6DB8F69577A836114666E7AE0326805E5F9287 PUSH2 0x159C DUP2 PUSH2 0x2C37 JUMP JUMPDEST PUSH2 0x15A4 PUSH2 0x2D5F JUMP JUMPDEST DUP4 PUSH1 0x10 DUP2 PUSH1 0x40 MLOAD PUSH2 0x15B5 SWAP2 SWAP1 PUSH2 0x4259 JUMP JUMPDEST SWAP1 DUP2 MSTORE PUSH1 0x40 MLOAD SWAP1 DUP2 SWAP1 SUB PUSH1 0x20 ADD SWAP1 KECCAK256 SLOAD PUSH1 0xFF AND ISZERO PUSH2 0x1615 JUMPI PUSH1 0x40 MLOAD PUSH3 0x461BCD PUSH1 0xE5 SHL DUP2 MSTORE PUSH1 0x20 PUSH1 0x4 DUP3 ADD MSTORE PUSH1 0x1F PUSH1 0x24 DUP3 ADD MSTORE PUSH32 0x4F7065726174696F6E732070617573656420696E207468697320737461746500 PUSH1 0x44 DUP3 ADD MSTORE PUSH1 0x64 ADD PUSH2 0xA64 JUMP JUMPDEST PUSH2 0x161D PUSH2 0x32E9 JUMP JUMPDEST PUSH1 0x1 PUSH1 0x1 PUSH1 0xA0 SHL SUB DUP8 AND PUSH1 0x0 SWAP1 DUP2 MSTORE PUSH1 0x8 PUSH1 0x20 MSTORE PUSH1 0x40 SWAP1 KECCAK256 SLOAD PUSH1 0xFF AND PUSH2 0x1685 JUMPI PUSH1 0x40 MLOAD PUSH3 0x461BCD PUSH1 0xE5 SHL DUP2 MSTORE PUSH1 0x20 PUSH1 0x4 DUP3 ADD MSTORE PUSH1 0x1E PUSH1 0x24 DUP3 ADD MSTORE PUSH32 0x526573706F6E646572206D757374206265204B59432076657269666965640000 PUSH1 0x44 DUP3 ADD MSTORE PUSH1 0x64 ADD PUSH2 0xA64 JUMP JUMPDEST PUSH1 0x1 PUSH1 0x1 PUSH1 0xA0 SHL SUB DUP8 AND PUSH1 0x0 SWAP1 DUP2 MSTORE PUSH1 0xA PUSH1 0x20 MSTORE PUSH1 0x40 SWAP1 KECCAK256 SLOAD PUSH1 0xFF AND PUSH2 0x16ED JUMPI PUSH1 0x40 MLOAD PUSH3 0x461BCD PUSH1 0xE5 SHL DUP2 MSTORE PUSH1 0x20 PUSH1 0x4 DUP3 ADD MSTORE PUSH1 0x18 PUSH1 0x24 DUP3 ADD MSTORE PUSH32 0x526573706F6E646572206E6F7420617574686F72697A65640000000000000000 PUSH1 0x44 DUP3 ADD MSTORE PUSH1 0x64 ADD PUSH2 0xA64 JUMP JUMPDEST PUSH2 0x1723 PUSH1 0x0 DUP9 DUP9 PUSH1 0x40 MLOAD DUP1 PUSH1 0x40 ADD PUSH1 0x40 MSTORE DUP1 PUSH1 0x10 DUP2 MSTORE PUSH1 0x20 ADD PUSH16 0x1153515491D15390D657D49155D05491 PUSH1 0x82 SHL DUP2 MSTORE POP DUP10 PUSH2 0x2E70 JUMP JUMPDEST PUSH2 0x172D DUP8 DUP8 PUSH2 0x31D8 JUMP JUMPDEST PUSH2 0x176C PUSH1 0x40 MLOAD DUP1 PUSH1 0x40 ADD PUSH1 0x40 MSTORE DUP1 PUSH1 0x17 DUP2 MSTORE PUSH1 0x20 ADD PUSH32 0x454D455247454E43595F5245574152445F495353554544000000000000000000 DUP2 MSTORE POP DUP5 PUSH2 0x2C41 JUMP JUMPDEST PUSH2 0x1776 PUSH1 0x1 PUSH1 0x7 SSTORE JUMP JUMPDEST POP POP POP POP POP POP POP JUMP JUMPDEST PUSH1 0x0 DUP1 MLOAD PUSH1 0x20 PUSH2 0x4522 DUP4 CODECOPY DUP2 MLOAD SWAP2 MSTORE PUSH2 0x1797 DUP2 PUSH2 0x2C37 JUMP JUMPDEST PUSH1 0x13 SLOAD PUSH1 0xFF AND ISZERO PUSH2 0x17F4 JUMPI PUSH1 0x40 MLOAD PUSH3 0x461BCD PUSH1 0xE5 SHL DUP2 MSTORE PUSH1 0x20 PUSH1 0x4 DUP3 ADD MSTORE PUSH1 0x21 PUSH1 0x24 DUP3 ADD MSTORE PUSH32 0x466F756E646174696F6E20706861736520616C726561647920756E6C6F636B65 PUSH1 0x44 DUP3 ADD MSTORE PUSH1 0x19 PUSH1 0xFA SHL PUSH1 0x64 DUP3 ADD MSTORE PUSH1 0x84 ADD PUSH2 0xA64 JUMP JUMPDEST PUSH1 0x13 DUP1 SLOAD PUSH1 0xFF NOT AND PUSH1 0x1 OR SWAP1 SSTORE PUSH1 0x12 SLOAD PUSH1 0x40 DUP1 MLOAD DUP1 DUP3 ADD DUP3 MSTORE PUSH1 0x11 DUP2 MSTORE PUSH17 0x464F554E444154494F4E5F554E4C4F434B PUSH1 0x78 SHL PUSH1 0x20 DUP1 DUP4 ADD SWAP2 SWAP1 SWAP2 MSTORE DUP3 MLOAD DUP1 DUP5 ADD SWAP1 SWAP4 MSTORE PUSH1 0x19 DUP4 MSTORE PUSH32 0x466F756E646174696F6E20706861736520756E6C6F636B656400000000000000 SWAP1 DUP4 ADD MSTORE PUSH2 0x1869 SWAP2 PUSH2 0x2C41 JUMP JUMPDEST PUSH1 0x40 DUP1 MLOAD DUP3 DUP2 MSTORE PUSH1 0x0 PUSH1 0x20 DUP3 ADD MSTORE PUSH32 0x75CBC9E06BCBB052D8F7AC14D98E1E715AD24C138E98FB31B55752D2C4DC8403 SWAP2 ADD JUMPDEST PUSH1 0x40 MLOAD DUP1 SWAP2 SUB SWAP1 LOG1 POP POP JUMP JUMPDEST PUSH1 0x0 DUP1 MLOAD PUSH1 0x20 PUSH2 0x4522 DUP4 CODECOPY DUP2 MLOAD SWAP2 MSTORE PUSH2 0x18BF DUP2 PUSH2 0x2C37 JUMP JUMPDEST PUSH1 0x40 MLOAD DUP1 PUSH1 0xC0 ADD PUSH1 0x40 MSTORE DUP1 DUP8 ISZERO ISZERO DUP2 MSTORE PUSH1 0x20 ADD DUP7 DUP2 MSTORE PUSH1 0x20 ADD DUP6 DUP2 MSTORE PUSH1 0x20 ADD DUP5 PUSH3 0x15180 PUSH2 0x18ED SWAP2 SWAP1 PUSH2 0x428B JUMP JUMPDEST PUSH2 0x18F7 SWAP1 TIMESTAMP PUSH2 0x42A2 JUMP JUMPDEST DUP2 MSTORE PUSH1 0x20 DUP1 DUP3 ADD DUP6 SWAP1 MSTORE DUP9 ISZERO ISZERO PUSH1 0x40 SWAP3 DUP4 ADD MSTORE PUSH1 0x1 PUSH1 0x1 PUSH1 0xA0 SHL SUB DUP11 AND PUSH1 0x0 SWAP1 DUP2 MSTORE PUSH1 0xA DUP3 MSTORE SWAP2 SWAP1 SWAP2 KECCAK256 DUP3 MLOAD DUP2 SLOAD PUSH1 0xFF NOT AND SWAP1 ISZERO ISZERO OR DUP2 SSTORE SWAP1 DUP3 ADD MLOAD PUSH1 0x1 DUP3 ADD SWAP1 PUSH2 0x1942 SWAP1 DUP3 PUSH2 0x4303 JUMP JUMPDEST POP PUSH1 0x40 DUP3 ADD MLOAD DUP1 MLOAD PUSH2 0x195E SWAP2 PUSH1 0x2 DUP5 ADD SWAP2 PUSH1 0x20 SWAP1 SWAP2 ADD SWAP1 PUSH2 0x37FB JUMP JUMPDEST POP PUSH1 0x60 DUP3 ADD MLOAD PUSH1 0x3 DUP3 ADD SSTORE PUSH1 0x80 DUP3 ADD MLOAD PUSH1 0x4 DUP3 ADD SWAP1 PUSH2 0x197D SWAP1 DUP3 PUSH2 0x4303 JUMP JUMPDEST POP PUSH1 0xA0 SWAP2 SWAP1 SWAP2 ADD MLOAD PUSH1 0x5 SWAP1 SWAP2 ADD DUP1 SLOAD PUSH1 0xFF NOT AND SWAP2 ISZERO ISZERO SWAP2 SWAP1 SWAP2 OR SWAP1 SSTORE PUSH1 0x1 PUSH1 0x1 PUSH1 0xA0 SHL SUB DUP8 AND PUSH1 0x0 SWAP1 DUP2 MSTORE PUSH1 0x8 PUSH1 0x20 SWAP1 DUP2 MSTORE PUSH1 0x40 SWAP2 DUP3 SWAP1 KECCAK256 DUP1 SLOAD PUSH2 0xFF00 NOT AND PUSH2 0x100 DUP11 ISZERO ISZERO MUL OR SWAP1 SSTORE DUP2 MLOAD DUP1 DUP4 ADD SWAP1 SWAP3 MSTORE PUSH1 0x15 DUP3 MSTORE PUSH21 0x454D455247454E43595F415554485F555044415445 PUSH1 0x58 SHL SWAP1 DUP3 ADD MSTORE PUSH2 0x19F9 SWAP1 DUP7 PUSH2 0x2C41 JUMP JUMPDEST DUP7 PUSH1 0x1 PUSH1 0x1 PUSH1 0xA0 SHL SUB AND PUSH32 0xE0810A07EBCA9521275F6735CD8474ECEA30E504906EFB04D0243DB7CA4825D6 DUP7 PUSH1 0x40 MLOAD PUSH2 0x1A32 SWAP2 SWAP1 PUSH2 0x39EE JUMP JUMPDEST PUSH1 0x40 MLOAD DUP1 SWAP2 SUB SWAP1 LOG2 POP POP POP POP POP POP POP JUMP JUMPDEST PUSH1 0x8 PUSH1 0x20 MSTORE PUSH1 0x0 SWAP1 DUP2 MSTORE PUSH1 0x40 SWAP1 KECCAK256 DUP1 SLOAD PUSH1 0x1 DUP3 ADD DUP1 SLOAD PUSH1 0xFF DUP1 DUP5 AND SWAP5 PUSH2 0x100 SWAP1 SWAP5 DIV AND SWAP3 SWAP2 SWAP1 PUSH2 0x1A72 SWAP1 PUSH2 0x4225 JUMP JUMPDEST DUP1 PUSH1 0x1F ADD PUSH1 0x20 DUP1 SWAP2 DIV MUL PUSH1 0x20 ADD PUSH1 0x40 MLOAD SWAP1 DUP2 ADD PUSH1 0x40 MSTORE DUP1 SWAP3 SWAP2 SWAP1 DUP2 DUP2 MSTORE PUSH1 0x20 ADD DUP3 DUP1 SLOAD PUSH2 0x1A9E SWAP1 PUSH2 0x4225 JUMP JUMPDEST DUP1 ISZERO PUSH2 0x1AEB JUMPI DUP1 PUSH1 0x1F LT PUSH2 0x1AC0 JUMPI PUSH2 0x100 DUP1 DUP4 SLOAD DIV MUL DUP4 MSTORE SWAP2 PUSH1 0x20 ADD SWAP2 PUSH2 0x1AEB JUMP JUMPDEST DUP3 ADD SWAP2 SWAP1 PUSH1 0x0 MSTORE PUSH1 0x20 PUSH1 0x0 KECCAK256 SWAP1 JUMPDEST DUP2 SLOAD DUP2 MSTORE SWAP1 PUSH1 0x1 ADD SWAP1 PUSH1 0x20 ADD DUP1 DUP4 GT PUSH2 0x1ACE JUMPI DUP3 SWAP1 SUB PUSH1 0x1F AND DUP3 ADD SWAP2 JUMPDEST POP POP POP PUSH1 0x2 DUP5 ADD SLOAD PUSH1 0x3 DUP6 ADD SLOAD PUSH1 0x4 DUP7 ADD SLOAD PUSH1 0x5 DUP8 ADD DUP1 SLOAD SWAP7 SWAP8 SWAP4 SWAP7 SWAP3 SWAP6 POP PUSH1 0x1 PUSH1 0x1 PUSH1 0xA0 SHL SUB SWAP1 SWAP2 AND SWAP4 POP SWAP1 PUSH2 0x1B21 SWAP1 PUSH2 0x4225 JUMP JUMPDEST DUP1 PUSH1 0x1F ADD PUSH1 0x20 DUP1 SWAP2 DIV MUL PUSH1 0x20 ADD PUSH1 0x40 MLOAD SWAP1 DUP2 ADD PUSH1 0x40 MSTORE DUP1 SWAP3 SWAP2 SWAP1 DUP2 DUP2 MSTORE PUSH1 0x20 ADD DUP3 DUP1 SLOAD PUSH2 0x1B4D SWAP1 PUSH2 0x4225 JUMP JUMPDEST DUP1 ISZERO PUSH2 0x1B9A JUMPI DUP1 PUSH1 0x1F LT PUSH2 0x1B6F JUMPI PUSH2 0x100 DUP1 DUP4 SLOAD DIV MUL DUP4 MSTORE SWAP2 PUSH1 0x20 ADD SWAP2 PUSH2 0x1B9A JUMP JUMPDEST DUP3 ADD SWAP2 SWAP1 PUSH1 0x0 MSTORE PUSH1 0x20 PUSH1 0x0 KECCAK256 SWAP1 JUMPDEST DUP2 SLOAD DUP2 MSTORE SWAP1 PUSH1 0x1 ADD SWAP1 PUSH1 0x20 ADD DUP1 DUP4 GT PUSH2 0x1B7D JUMPI DUP3 SWAP1 SUB PUSH1 0x1F AND DUP3 ADD SWAP2 JUMPDEST POP POP POP POP POP SWAP1 POP DUP8 JUMP JUMPDEST PUSH1 0x0 SWAP2 DUP3 MSTORE PUSH1 0x5 PUSH1 0x20 SWAP1 DUP2 MSTORE PUSH1 0x40 DUP1 DUP5 KECCAK256 PUSH1 0x1 PUSH1 0x1 PUSH1 0xA0 SHL SUB SWAP4 SWAP1 SWAP4 AND DUP5 MSTORE SWAP2 SWAP1 MSTORE SWAP1 KECCAK256 SLOAD PUSH1 0xFF AND SWAP1 JUMP JUMPDEST PUSH1 0x60 PUSH1 0x4 DUP1 SLOAD PUSH2 0xBFE SWAP1 PUSH2 0x4225 JUMP JUMPDEST PUSH1 0x0 CALLER DUP2 PUSH2 0x1BEC DUP3 DUP7 PUSH2 0x1F74 JUMP JUMPDEST SWAP1 POP DUP4 DUP2 LT ISZERO PUSH2 0x1C4C JUMPI PUSH1 0x40 MLOAD PUSH3 0x461BCD PUSH1 0xE5 SHL DUP2 MSTORE PUSH1 0x20 PUSH1 0x4 DUP3 ADD MSTORE PUSH1 0x25 PUSH1 0x24 DUP3 ADD MSTORE PUSH32 0x45524332303A2064656372656173656420616C6C6F77616E63652062656C6F77 PUSH1 0x44 DUP3 ADD MSTORE PUSH5 0x207A65726F PUSH1 0xD8 SHL PUSH1 0x64 DUP3 ADD MSTORE PUSH1 0x84 ADD PUSH2 0xA64 JUMP JUMPDEST PUSH2 0x1C59 DUP3 DUP7 DUP7 DUP5 SUB PUSH2 0x2B13 JUMP JUMPDEST POP PUSH1 0x1 SWAP5 SWAP4 POP POP POP POP JUMP JUMPDEST PUSH1 0x0 PUSH2 0x1C6E PUSH2 0x2D5F JUMP JUMPDEST CALLER PUSH1 0x0 SWAP1 DUP2 MSTORE PUSH1 0x8 PUSH1 0x20 MSTORE PUSH1 0x40 SWAP1 KECCAK256 SLOAD PUSH1 0xFF AND PUSH2 0x1CCD JUMPI PUSH1 0x40 MLOAD PUSH3 0x461BCD PUSH1 0xE5 SHL DUP2 MSTORE PUSH1 0x20 PUSH1 0x4 DUP3 ADD MSTORE PUSH1 0x1B PUSH1 0x24 DUP3 ADD MSTORE PUSH32 0x53656E646572206D757374206265204B59432076657269666965640000000000 PUSH1 0x44 DUP3 ADD MSTORE PUSH1 0x64 ADD PUSH2 0xA64 JUMP JUMPDEST PUSH2 0x1CD8 CALLER DUP5 DUP5 PUSH2 0x2DA7 JUMP JUMPDEST ISZERO PUSH2 0x1D25 JUMPI PUSH1 0x40 MLOAD PUSH3 0x461BCD PUSH1 0xE5 SHL DUP2 MSTORE PUSH1 0x20 PUSH1 0x4 DUP3 ADD MSTORE PUSH1 0x1E PUSH1 0x24 DUP3 ADD MSTORE PUSH32 0x5472616E73616374696F6E20666C616767656420666F72207265766965770000 PUSH1 0x44 DUP3 ADD MSTORE PUSH1 0x64 ADD PUSH2 0xA64 JUMP JUMPDEST PUSH2 0x1D7F CALLER DUP5 DUP5 PUSH1 0x40 MLOAD DUP1 PUSH1 0x40 ADD PUSH1 0x40 MSTORE DUP1 PUSH1 0x8 DUP2 MSTORE PUSH1 0x20 ADD PUSH8 0x2A2920A729A322A9 PUSH1 0xC1 SHL DUP2 MSTORE POP PUSH1 0x8 PUSH1 0x0 CALLER PUSH1 0x1 PUSH1 0x1 PUSH1 0xA0 SHL SUB AND PUSH1 0x1 PUSH1 0x1 PUSH1 0xA0 SHL SUB AND DUP2 MSTORE PUSH1 0x20 ADD SWAP1 DUP2 MSTORE PUSH1 0x20 ADD PUSH1 0x0 KECCAK256 PUSH1 0x1 ADD DUP1 SLOAD PUSH2 0xDDD SWAP1 PUSH2 0x4225 JUMP JUMPDEST PUSH2 0xE6E DUP4 DUP4 PUSH2 0x3342 JUMP JUMPDEST PUSH1 0x0 DUP1 MLOAD PUSH1 0x20 PUSH2 0x4522 DUP4 CODECOPY DUP2 MLOAD SWAP2 MSTORE PUSH2 0x1DA1 DUP2 PUSH2 0x2C37 JUMP JUMPDEST PUSH2 0x1DA9 PUSH2 0x3350 JUMP JUMPDEST PUSH2 0x1DD8 PUSH1 0x40 MLOAD DUP1 PUSH1 0x40 ADD PUSH1 0x40 MSTORE DUP1 PUSH1 0xD DUP2 MSTORE PUSH1 0x20 ADD PUSH13 0x14D654D5115357D4105554D151 PUSH1 0x9A SHL DUP2 MSTORE POP DUP4 PUSH2 0x2C41 JUMP JUMPDEST PUSH32 0x2153B65D30C58C08AC6867B8EFE3526FDDCFBCF926FBF8BB9D2A6668E7080C55 DUP3 CALLER PUSH1 0x40 MLOAD PUSH2 0x189B SWAP3 SWAP2 SWAP1 PUSH2 0x43F1 JUMP JUMPDEST PUSH1 0x0 DUP3 DUP2 MSTORE PUSH1 0x5 PUSH1 0x20 MSTORE PUSH1 0x40 SWAP1 KECCAK256 PUSH1 0x1 ADD SLOAD PUSH2 0x1E24 DUP2 PUSH2 0x2C37 JUMP JUMPDEST PUSH2 0x104A DUP4 DUP4 PUSH2 0x3171 JUMP JUMPDEST PUSH1 0xA PUSH1 0x20 MSTORE PUSH1 0x0 SWAP1 DUP2 MSTORE PUSH1 0x40 SWAP1 KECCAK256 DUP1 SLOAD PUSH1 0x1 DUP3 ADD DUP1 SLOAD PUSH1 0xFF SWAP1 SWAP3 AND SWAP3 SWAP2 PUSH2 0x1E54 SWAP1 PUSH2 0x4225 JUMP JUMPDEST DUP1 PUSH1 0x1F ADD PUSH1 0x20 DUP1 SWAP2 DIV MUL PUSH1 0x20 ADD PUSH1 0x40 MLOAD SWAP1 DUP2 ADD PUSH1 0x40 MSTORE DUP1 SWAP3 SWAP2 SWAP1 DUP2 DUP2 MSTORE PUSH1 0x20 ADD DUP3 DUP1 SLOAD PUSH2 0x1E80 SWAP1 PUSH2 0x4225 JUMP JUMPDEST DUP1 ISZERO PUSH2 0x1ECD JUMPI DUP1 PUSH1 0x1F LT PUSH2 0x1EA2 JUMPI PUSH2 0x100 DUP1 DUP4 SLOAD DIV MUL DUP4 MSTORE SWAP2 PUSH1 0x20 ADD SWAP2 PUSH2 0x1ECD JUMP JUMPDEST DUP3 ADD SWAP2 SWAP1 PUSH1 0x0 MSTORE PUSH1 0x20 PUSH1 0x0 KECCAK256 SWAP1 JUMPDEST DUP2 SLOAD DUP2 MSTORE SWAP1 PUSH1 0x1 ADD SWAP1 PUSH1 0x20 ADD DUP1 DUP4 GT PUSH2 0x1EB0 JUMPI DUP3 SWAP1 SUB PUSH1 0x1F AND DUP3 ADD SWAP2 JUMPDEST POP POP POP POP POP SWAP1 DUP1 PUSH1 0x3 ADD SLOAD SWAP1 DUP1 PUSH1 0x4 ADD DUP1 SLOAD PUSH2 0x1EE8 SWAP1 PUSH2 0x4225 JUMP JUMPDEST DUP1 PUSH1 0x1F ADD PUSH1 0x20 DUP1 SWAP2 DIV MUL PUSH1 0x20 ADD PUSH1 0x40 MLOAD SWAP1 DUP2 ADD PUSH1 0x40 MSTORE DUP1 SWAP3 SWAP2 SWAP1 DUP2 DUP2 MSTORE PUSH1 0x20 ADD DUP3 DUP1 SLOAD PUSH2 0x1F14 SWAP1 PUSH2 0x4225 JUMP JUMPDEST DUP1 ISZERO PUSH2 0x1F61 JUMPI DUP1 PUSH1 0x1F LT PUSH2 0x1F36 JUMPI PUSH2 0x100 DUP1 DUP4 SLOAD DIV MUL DUP4 MSTORE SWAP2 PUSH1 0x20 ADD SWAP2 PUSH2 0x1F61 JUMP JUMPDEST DUP3 ADD SWAP2 SWAP1 PUSH1 0x0 MSTORE PUSH1 0x20 PUSH1 0x0 KECCAK256 SWAP1 JUMPDEST DUP2 SLOAD DUP2 MSTORE SWAP1 PUSH1 0x1 ADD SWAP1 PUSH1 0x20 ADD DUP1 DUP4 GT PUSH2 0x1F44 JUMPI DUP3 SWAP1 SUB PUSH1 0x1F AND DUP3 ADD SWAP2 JUMPDEST POP POP POP PUSH1 0x5 SWAP1 SWAP4 ADD SLOAD SWAP2 SWAP3 POP POP PUSH1 0xFF AND DUP6 JUMP JUMPDEST PUSH1 0x1 PUSH1 0x1 PUSH1 0xA0 SHL SUB SWAP2 DUP3 AND PUSH1 0x0 SWAP1 DUP2 MSTORE PUSH1 0x1 PUSH1 0x20 SWAP1 DUP2 MSTORE PUSH1 0x40 DUP1 DUP4 KECCAK256 SWAP4 SWAP1 SWAP5 AND DUP3 MSTORE SWAP2 SWAP1 SWAP2 MSTORE KECCAK256 SLOAD SWAP1 JUMP JUMPDEST PUSH1 0x14 DUP2 DUP2 SLOAD DUP2 LT PUSH2 0x1FAF JUMPI PUSH1 0x0 DUP1 REVERT JUMPDEST PUSH1 0x0 SWAP2 DUP3 MSTORE PUSH1 0x20 SWAP1 SWAP2 KECCAK256 PUSH1 0x5 SWAP1 SWAP2 MUL ADD DUP1 SLOAD PUSH1 0x1 DUP3 ADD DUP1 SLOAD PUSH1 0x1 PUSH1 0x1 PUSH1 0xA0 SHL SUB SWAP1 SWAP3 AND SWAP4 POP SWAP1 PUSH2 0x1FDE SWAP1 PUSH2 0x4225 JUMP JUMPDEST DUP1 PUSH1 0x1F ADD PUSH1 0x20 DUP1 SWAP2 DIV MUL PUSH1 0x20 ADD PUSH1 0x40 MLOAD SWAP1 DUP2 ADD PUSH1 0x40 MSTORE DUP1 SWAP3 SWAP2 SWAP1 DUP2 DUP2 MSTORE PUSH1 0x20 ADD DUP3 DUP1 SLOAD PUSH2 0x200A SWAP1 PUSH2 0x4225 JUMP JUMPDEST DUP1 ISZERO PUSH2 0x2057 JUMPI DUP1 PUSH1 0x1F LT PUSH2 0x202C JUMPI PUSH2 0x100 DUP1 DUP4 SLOAD DIV MUL DUP4 MSTORE SWAP2 PUSH1 0x20 ADD SWAP2 PUSH2 0x2057 JUMP JUMPDEST DUP3 ADD SWAP2 SWAP1 PUSH1 0x0 MSTORE PUSH1 0x20 PUSH1 0x0 KECCAK256 SWAP1 JUMPDEST DUP2 SLOAD DUP2 MSTORE SWAP1 PUSH1 0x1 ADD SWAP1 PUSH1 0x20 ADD DUP1 DUP4 GT PUSH2 0x203A JUMPI DUP3 SWAP1 SUB PUSH1 0x1F AND DUP3 ADD SWAP2 JUMPDEST POP POP POP POP POP SWAP1 DUP1 PUSH1 0x2 ADD DUP1 SLOAD PUSH2 0x206C SWAP1 PUSH2 0x4225 JUMP JUMPDEST DUP1 PUSH1 0x1F ADD PUSH1 0x20 DUP1 SWAP2 DIV MUL PUSH1 0x20 ADD PUSH1 0x40 MLOAD SWAP1 DUP2 ADD PUSH1 0x40 MSTORE DUP1 SWAP3 SWAP2 SWAP1 DUP2 DUP2 MSTORE PUSH1 0x20 ADD DUP3 DUP1 SLOAD PUSH2 0x2098 SWAP1 PUSH2 0x4225 JUMP JUMPDEST DUP1 ISZERO PUSH2 0x20E5 JUMPI DUP1 PUSH1 0x1F LT PUSH2 0x20BA JUMPI PUSH2 0x100 DUP1 DUP4 SLOAD DIV MUL DUP4 MSTORE SWAP2 PUSH1 0x20 ADD SWAP2 PUSH2 0x20E5 JUMP JUMPDEST DUP3 ADD SWAP2 SWAP1 PUSH1 0x0 MSTORE PUSH1 0x20 PUSH1 0x0 KECCAK256 SWAP1 JUMPDEST DUP2 SLOAD DUP2 MSTORE SWAP1 PUSH1 0x1 ADD SWAP1 PUSH1 0x20 ADD DUP1 DUP4 GT PUSH2 0x20C8 JUMPI DUP3 SWAP1 SUB PUSH1 0x1F AND DUP3 ADD SWAP2 JUMPDEST POP POP POP POP POP SWAP1 DUP1 PUSH1 0x3 ADD SLOAD SWAP1 DUP1 PUSH1 0x4 ADD SLOAD SWAP1 POP DUP6 JUMP JUMPDEST PUSH1 0x40 DUP1 MLOAD PUSH1 0xE0 DUP1 DUP3 ADD DUP4 MSTORE PUSH1 0x0 DUP1 DUP4 MSTORE PUSH1 0x20 DUP1 DUP5 ADD DUP3 SWAP1 MSTORE PUSH1 0x60 DUP5 DUP7 ADD DUP2 SWAP1 MSTORE DUP1 DUP6 ADD DUP4 SWAP1 MSTORE PUSH1 0x80 DUP6 ADD DUP4 SWAP1 MSTORE PUSH1 0xA0 DUP6 ADD DUP4 SWAP1 MSTORE PUSH1 0xC0 DUP6 ADD MSTORE PUSH1 0x1 PUSH1 0x1 PUSH1 0xA0 SHL SUB DUP7 AND DUP3 MSTORE PUSH1 0x8 DUP2 MSTORE SWAP1 DUP5 SWAP1 KECCAK256 DUP5 MLOAD SWAP3 DUP4 ADD DUP6 MSTORE DUP1 SLOAD PUSH1 0xFF DUP1 DUP3 AND ISZERO ISZERO DUP6 MSTORE PUSH2 0x100 SWAP1 SWAP2 DIV AND ISZERO ISZERO SWAP2 DUP4 ADD SWAP2 SWAP1 SWAP2 MSTORE PUSH1 0x1 DUP2 ADD DUP1 SLOAD SWAP4 SWAP5 SWAP3 SWAP4 SWAP2 SWAP3 DUP5 ADD SWAP2 PUSH2 0x2182 SWAP1 PUSH2 0x4225 JUMP JUMPDEST DUP1 PUSH1 0x1F ADD PUSH1 0x20 DUP1 SWAP2 DIV MUL PUSH1 0x20 ADD PUSH1 0x40 MLOAD SWAP1 DUP2 ADD PUSH1 0x40 MSTORE DUP1 SWAP3 SWAP2 SWAP1 DUP2 DUP2 MSTORE PUSH1 0x20 ADD DUP3 DUP1 SLOAD PUSH2 0x21AE SWAP1 PUSH2 0x4225 JUMP JUMPDEST DUP1 ISZERO PUSH2 0x21FB JUMPI DUP1 PUSH1 0x1F LT PUSH2 0x21D0 JUMPI PUSH2 0x100 DUP1 DUP4 SLOAD DIV MUL DUP4 MSTORE SWAP2 PUSH1 0x20 ADD SWAP2 PUSH2 0x21FB JUMP JUMPDEST DUP3 ADD SWAP2 SWAP1 PUSH1 0x0 MSTORE PUSH1 0x20 PUSH1 0x0 KECCAK256 SWAP1 JUMPDEST DUP2 SLOAD DUP2 MSTORE SWAP1 PUSH1 0x1 ADD SWAP1 PUSH1 0x20 ADD DUP1 DUP4 GT PUSH2 0x21DE JUMPI DUP3 SWAP1 SUB PUSH1 0x1F AND DUP3 ADD SWAP2 JUMPDEST POP POP POP SWAP2 DUP4 MSTORE POP POP PUSH1 0x2 DUP3 ADD SLOAD PUSH1 0x20 DUP3 ADD MSTORE PUSH1 0x3 DUP3 ADD SLOAD PUSH1 0x40 DUP3 ADD MSTORE PUSH1 0x4 DUP3 ADD SLOAD PUSH1 0x1 PUSH1 0x1 PUSH1 0xA0 SHL SUB AND PUSH1 0x60 DUP3 ADD MSTORE PUSH1 0x5 DUP3 ADD DUP1 SLOAD PUSH1 0x80 SWAP1 SWAP3 ADD SWAP2 PUSH2 0x223F SWAP1 PUSH2 0x4225 JUMP JUMPDEST DUP1 PUSH1 0x1F ADD PUSH1 0x20 DUP1 SWAP2 DIV MUL PUSH1 0x20 ADD PUSH1 0x40 MLOAD SWAP1 DUP2 ADD PUSH1 0x40 MSTORE DUP1 SWAP3 SWAP2 SWAP1 DUP2 DUP2 MSTORE PUSH1 0x20 ADD DUP3 DUP1 SLOAD PUSH2 0x226B SWAP1 PUSH2 0x4225 JUMP JUMPDEST DUP1 ISZERO PUSH2 0x22B8 JUMPI DUP1 PUSH1 0x1F LT PUSH2 0x228D JUMPI PUSH2 0x100 DUP1 DUP4 SLOAD DIV MUL DUP4 MSTORE SWAP2 PUSH1 0x20 ADD SWAP2 PUSH2 0x22B8 JUMP JUMPDEST DUP3 ADD SWAP2 SWAP1 PUSH1 0x0 MSTORE PUSH1 0x20 PUSH1 0x0 KECCAK256 SWAP1 JUMPDEST DUP2 SLOAD DUP2 MSTORE SWAP1 PUSH1 0x1 ADD SWAP1 PUSH1 0x20 ADD DUP1 DUP4 GT PUSH2 0x229B JUMPI DUP3 SWAP1 SUB PUSH1 0x1F AND DUP3 ADD SWAP2 JUMPDEST POP POP POP POP POP DUP2 MSTORE POP POP SWAP1 POP SWAP2 SWAP1 POP JUMP JUMPDEST PUSH2 0x2305 PUSH1 0x40 MLOAD DUP1 PUSH1 0xC0 ADD PUSH1 0x40 MSTORE DUP1 PUSH1 0x0 ISZERO ISZERO DUP2 MSTORE PUSH1 0x20 ADD PUSH1 0x60 DUP2 MSTORE PUSH1 0x20 ADD PUSH1 0x60 DUP2 MSTORE PUSH1 0x20 ADD PUSH1 0x0 DUP2 MSTORE PUSH1 0x20 ADD PUSH1 0x60 DUP2 MSTORE PUSH1 0x20 ADD PUSH1 0x0 ISZERO ISZERO DUP2 MSTORE POP SWAP1 JUMP JUMPDEST PUSH1 0x1 PUSH1 0x1 PUSH1 0xA0 SHL SUB DUP3 AND PUSH1 0x0 SWAP1 DUP2 MSTORE PUSH1 0xA PUSH1 0x20 SWAP1 DUP2 MSTORE PUSH1 0x40 SWAP2 DUP3 SWAP1 KECCAK256 DUP3 MLOAD PUSH1 0xC0 DUP2 ADD SWAP1 SWAP4 MSTORE DUP1 SLOAD PUSH1 0xFF AND ISZERO ISZERO DUP4 MSTORE PUSH1 0x1 DUP2 ADD DUP1 SLOAD SWAP2 SWAP3 DUP5 ADD SWAP2 PUSH2 0x2347 SWAP1 PUSH2 0x4225 JUMP JUMPDEST DUP1 PUSH1 0x1F ADD PUSH1 0x20 DUP1 SWAP2 DIV MUL PUSH1 0x20 ADD PUSH1 0x40 MLOAD SWAP1 DUP2 ADD PUSH1 0x40 MSTORE DUP1 SWAP3 SWAP2 SWAP1 DUP2 DUP2 MSTORE PUSH1 0x20 ADD DUP3 DUP1 SLOAD PUSH2 0x2373 SWAP1 PUSH2 0x4225 JUMP JUMPDEST DUP1 ISZERO PUSH2 0x23C0 JUMPI DUP1 PUSH1 0x1F LT PUSH2 0x2395 JUMPI PUSH2 0x100 DUP1 DUP4 SLOAD DIV MUL DUP4 MSTORE SWAP2 PUSH1 0x20 ADD SWAP2 PUSH2 0x23C0 JUMP JUMPDEST DUP3 ADD SWAP2 SWAP1 PUSH1 0x0 MSTORE PUSH1 0x20 PUSH1 0x0 KECCAK256 SWAP1 JUMPDEST DUP2 SLOAD DUP2 MSTORE SWAP1 PUSH1 0x1 ADD SWAP1 PUSH1 0x20 ADD DUP1 DUP4 GT PUSH2 0x23A3 JUMPI DUP3 SWAP1 SUB PUSH1 0x1F AND DUP3 ADD SWAP2 JUMPDEST POP POP POP POP POP DUP2 MSTORE PUSH1 0x20 ADD PUSH1 0x2 DUP3 ADD DUP1 SLOAD DUP1 PUSH1 0x20 MUL PUSH1 0x20 ADD PUSH1 0x40 MLOAD SWAP1 DUP2 ADD PUSH1 0x40 MSTORE DUP1 SWAP3 SWAP2 SWAP1 DUP2 DUP2 MSTORE PUSH1 0x20 ADD PUSH1 0x0 SWAP1 JUMPDEST DUP3 DUP3 LT ISZERO PUSH2 0x249A JUMPI DUP4 DUP3 SWAP1 PUSH1 0x0 MSTORE PUSH1 0x20 PUSH1 0x0 KECCAK256 ADD DUP1 SLOAD PUSH2 0x240D SWAP1 PUSH2 0x4225 JUMP JUMPDEST DUP1 PUSH1 0x1F ADD PUSH1 0x20 DUP1 SWAP2 DIV MUL PUSH1 0x20 ADD PUSH1 0x40 MLOAD SWAP1 DUP2 ADD PUSH1 0x40 MSTORE DUP1 SWAP3 SWAP2 SWAP1 DUP2 DUP2 MSTORE PUSH1 0x20 ADD DUP3 DUP1 SLOAD PUSH2 0x2439 SWAP1 PUSH2 0x4225 JUMP JUMPDEST DUP1 ISZERO PUSH2 0x2486 JUMPI DUP1 PUSH1 0x1F LT PUSH2 0x245B JUMPI PUSH2 0x100 DUP1 DUP4 SLOAD DIV MUL DUP4 MSTORE SWAP2 PUSH1 0x20 ADD SWAP2 PUSH2 0x2486 JUMP JUMPDEST DUP3 ADD SWAP2 SWAP1 PUSH1 0x0 MSTORE PUSH1 0x20 PUSH1 0x0 KECCAK256 SWAP1 JUMPDEST DUP2 SLOAD DUP2 MSTORE SWAP1 PUSH1 0x1 ADD SWAP1 PUSH1 0x20 ADD DUP1 DUP4 GT PUSH2 0x2469 JUMPI DUP3 SWAP1 SUB PUSH1 0x1F AND DUP3 ADD SWAP2 JUMPDEST POP POP POP POP POP DUP2 MSTORE PUSH1 0x20 ADD SWAP1 PUSH1 0x1 ADD SWAP1 PUSH2 0x23EE JUMP JUMPDEST POP POP POP POP DUP2 MSTORE PUSH1 0x20 ADD PUSH1 0x3 DUP3 ADD SLOAD DUP2 MSTORE PUSH1 0x20 ADD PUSH1 0x4 DUP3 ADD DUP1 SLOAD PUSH2 0x24BC SWAP1 PUSH2 0x4225 JUMP JUMPDEST DUP1 PUSH1 0x1F ADD PUSH1 0x20 DUP1 SWAP2 DIV MUL PUSH1 0x20 ADD PUSH1 0x40 MLOAD SWAP1 DUP2 ADD PUSH1 0x40 MSTORE DUP1 SWAP3 SWAP2 SWAP1 DUP2 DUP2 MSTORE PUSH1 0x20 ADD DUP3 DUP1 SLOAD PUSH2 0x24E8 SWAP1 PUSH2 0x4225 JUMP JUMPDEST DUP1 ISZERO PUSH2 0x2535 JUMPI DUP1 PUSH1 0x1F LT PUSH2 0x250A JUMPI PUSH2 0x100 DUP1 DUP4 SLOAD DIV MUL DUP4 MSTORE SWAP2 PUSH1 0x20 ADD SWAP2 PUSH2 0x2535 JUMP JUMPDEST DUP3 ADD SWAP2 SWAP1 PUSH1 0x0 MSTORE PUSH1 0x20 PUSH1 0x0 KECCAK256 SWAP1 JUMPDEST DUP2 SLOAD DUP2 MSTORE SWAP1 PUSH1 0x1 ADD SWAP1 PUSH1 0x20 ADD DUP1 DUP4 GT PUSH2 0x2518 JUMPI DUP3 SWAP1 SUB PUSH1 0x1F AND DUP3 ADD SWAP2 JUMPDEST POP POP POP SWAP2 DUP4 MSTORE POP POP PUSH1 0x5 SWAP2 SWAP1 SWAP2 ADD SLOAD PUSH1 0xFF AND ISZERO ISZERO PUSH1 0x20 SWAP1 SWAP2 ADD MSTORE SWAP3 SWAP2 POP POP JUMP JUMPDEST PUSH1 0x0 DUP1 MLOAD PUSH1 0x20 PUSH2 0x4522 DUP4 CODECOPY DUP2 MLOAD SWAP2 MSTORE PUSH2 0x256D DUP2 PUSH2 0x2C37 JUMP JUMPDEST PUSH2 0x2575 PUSH2 0x2D5F JUMP JUMPDEST PUSH2 0x257D PUSH2 0x32E9 JUMP JUMPDEST PUSH1 0x1 PUSH1 0x1 PUSH1 0xA0 SHL SUB DUP6 AND PUSH1 0x0 SWAP1 DUP2 MSTORE PUSH1 0x8 PUSH1 0x20 MSTORE PUSH1 0x40 SWAP1 KECCAK256 SLOAD PUSH1 0xFF AND PUSH2 0x25E5 JUMPI PUSH1 0x40 MLOAD PUSH3 0x461BCD PUSH1 0xE5 SHL DUP2 MSTORE PUSH1 0x20 PUSH1 0x4 DUP3 ADD DUP2 SWAP1 MSTORE PUSH1 0x24 DUP3 ADD MSTORE PUSH32 0x436F6E7472696275746F72206D757374206265204B5943207665726966696564 PUSH1 0x44 DUP3 ADD MSTORE PUSH1 0x64 ADD PUSH2 0xA64 JUMP JUMPDEST DUP2 DUP1 ISZERO PUSH2 0x25F5 JUMPI POP PUSH1 0x13 SLOAD PUSH1 0xFF AND ISZERO JUMPDEST ISZERO PUSH2 0x26EA JUMPI PUSH1 0x1 PUSH1 0x1 PUSH1 0xA0 SHL SUB DUP6 AND PUSH1 0x0 SWAP1 DUP2 MSTORE PUSH1 0xE PUSH1 0x20 MSTORE PUSH1 0x40 DUP2 KECCAK256 DUP1 SLOAD DUP7 SWAP3 SWAP1 PUSH2 0x2622 SWAP1 DUP5 SWAP1 PUSH2 0x42A2 JUMP JUMPDEST SWAP3 POP POP DUP2 SWAP1 SSTORE POP DUP4 PUSH1 0x12 PUSH1 0x0 DUP3 DUP3 SLOAD PUSH2 0x263B SWAP2 SWAP1 PUSH2 0x42A2 JUMP JUMPDEST SWAP1 SWAP2 SSTORE POP POP PUSH1 0x1 PUSH1 0x1 PUSH1 0xA0 SHL SUB DUP6 AND PUSH1 0x0 SWAP1 DUP2 MSTORE PUSH1 0xF PUSH1 0x20 MSTORE PUSH1 0x40 DUP2 KECCAK256 DUP1 SLOAD DUP7 SWAP3 SWAP1 PUSH2 0x2668 SWAP1 DUP5 SWAP1 PUSH2 0x42A2 JUMP JUMPDEST SWAP1 SWAP2 SSTORE POP POP PUSH1 0x40 DUP1 MLOAD DUP1 DUP3 ADD SWAP1 SWAP2 MSTORE PUSH1 0x14 DUP2 MSTORE PUSH20 0x1313D0D2D15117D513D2D15394D7D254D4D55151 PUSH1 0x62 SHL PUSH1 0x20 DUP3 ADD MSTORE PUSH2 0x26A2 SWAP1 DUP5 PUSH2 0x2C41 JUMP JUMPDEST DUP5 PUSH1 0x1 PUSH1 0x1 PUSH1 0xA0 SHL SUB AND PUSH32 0xE1B2DD1A1ECF075C295BA980DC394B70168E68AC037C75664C630DB6E6D97A68 DUP6 DUP6 PUSH1 0x40 MLOAD PUSH2 0x26DD SWAP3 SWAP2 SWAP1 PUSH2 0x441B JUMP JUMPDEST PUSH1 0x40 MLOAD DUP1 SWAP2 SUB SWAP1 LOG2 PUSH2 0x278E JUMP JUMPDEST PUSH2 0x274C PUSH1 0x0 DUP7 DUP7 PUSH1 0x40 MLOAD DUP1 PUSH1 0x40 ADD PUSH1 0x40 MSTORE DUP1 PUSH1 0xF DUP2 MSTORE PUSH1 0x20 ADD PUSH15 0x10D553151554905317D49155D05491 PUSH1 0x8A SHL DUP2 MSTORE POP PUSH1 0x8 PUSH1 0x0 DUP12 PUSH1 0x1 PUSH1 0x1 PUSH1 0xA0 SHL SUB AND PUSH1 0x1 PUSH1 0x1 PUSH1 0xA0 SHL SUB AND DUP2 MSTORE PUSH1 0x20 ADD SWAP1 DUP2 MSTORE PUSH1 0x20 ADD PUSH1 0x0 KECCAK256 PUSH1 0x1 ADD DUP1 SLOAD PUSH2 0xDDD SWAP1 PUSH2 0x4225 JUMP JUMPDEST PUSH2 0x2756 DUP6 DUP6 PUSH2 0x31D8 JUMP JUMPDEST PUSH2 0x278E PUSH1 0x40 MLOAD DUP1 PUSH1 0x40 ADD PUSH1 0x40 MSTORE DUP1 PUSH1 0x16 DUP2 MSTORE PUSH1 0x20 ADD PUSH22 0x10D553151554905317D49155D0549117D254D4D55151 PUSH1 0x52 SHL DUP2 MSTORE POP DUP5 PUSH2 0x2C41 JUMP JUMPDEST PUSH2 0x2798 PUSH1 0x1 PUSH1 0x7 SSTORE JUMP JUMPDEST POP POP POP POP POP JUMP JUMPDEST PUSH2 0x27E7 PUSH1 0x40 MLOAD DUP1 PUSH2 0x100 ADD PUSH1 0x40 MSTORE DUP1 PUSH1 0x0 DUP2 MSTORE PUSH1 0x20 ADD PUSH1 0x0 DUP2 MSTORE PUSH1 0x20 ADD PUSH1 0x0 DUP2 MSTORE PUSH1 0x20 ADD PUSH1 0x0 DUP2 MSTORE PUSH1 0x20 ADD PUSH1 0x0 DUP2 MSTORE PUSH1 0x20 ADD PUSH1 0x0 DUP2 MSTORE PUSH1 0x20 ADD PUSH1 0x0 DUP2 MSTORE PUSH1 0x20 ADD PUSH1 0x60 DUP2 MSTORE POP SWAP1 JUMP JUMPDEST PUSH1 0x0 DUP1 MLOAD PUSH1 0x20 PUSH2 0x4522 DUP4 CODECOPY DUP2 MLOAD SWAP2 MSTORE PUSH2 0x27FF DUP2 PUSH2 0x2C37 JUMP JUMPDEST PUSH1 0x40 DUP1 MLOAD PUSH1 0x6 DUP1 DUP3 MSTORE PUSH1 0xE0 DUP3 ADD SWAP1 SWAP3 MSTORE PUSH1 0x0 SWAP2 DUP2 PUSH1 0x20 ADD JUMPDEST PUSH1 0x60 DUP2 MSTORE PUSH1 0x20 ADD SWAP1 PUSH1 0x1 SWAP1 SUB SWAP1 DUP2 PUSH2 0x2817 JUMPI SWAP1 POP POP SWAP1 POP PUSH1 0x40 MLOAD DUP1 PUSH1 0x40 ADD PUSH1 0x40 MSTORE DUP1 PUSH1 0x5 DUP2 MSTORE PUSH1 0x20 ADD PUSH5 0x2AA996ABAB PUSH1 0xD9 SHL DUP2 MSTORE POP DUP2 PUSH1 0x0 DUP2 MLOAD DUP2 LT PUSH2 0x285F JUMPI PUSH2 0x285F PUSH2 0x420F JUMP JUMPDEST PUSH1 0x20 MUL PUSH1 0x20 ADD ADD DUP2 SWAP1 MSTORE POP PUSH1 0x40 MLOAD DUP1 PUSH1 0x40 ADD PUSH1 0x40 MSTORE DUP1 PUSH1 0x5 DUP2 MSTORE PUSH1 0x20 ADD PUSH5 0x55532D5041 PUSH1 0xD8 SHL DUP2 MSTORE POP DUP2 PUSH1 0x1 DUP2 MLOAD DUP2 LT PUSH2 0x289B JUMPI PUSH2 0x289B PUSH2 0x420F JUMP JUMPDEST PUSH1 0x20 MUL PUSH1 0x20 ADD ADD DUP2 SWAP1 MSTORE POP PUSH1 0x40 MLOAD DUP1 PUSH1 0x40 ADD PUSH1 0x40 MSTORE DUP1 PUSH1 0x5 DUP2 MSTORE PUSH1 0x20 ADD PUSH5 0x55532D5641 PUSH1 0xD8 SHL DUP2 MSTORE POP DUP2 PUSH1 0x2 DUP2 MLOAD DUP2 LT PUSH2 0x28D7 JUMPI PUSH2 0x28D7 PUSH2 0x420F JUMP JUMPDEST PUSH1 0x20 MUL PUSH1 0x20 ADD ADD DUP2 SWAP1 MSTORE POP PUSH1 0x40 MLOAD DUP1 PUSH1 0x40 ADD PUSH1 0x40 MSTORE DUP1 PUSH1 0x5 DUP2 MSTORE PUSH1 0x20 ADD PUSH5 0x55532D4B59 PUSH1 0xD8 SHL DUP2 MSTORE POP DUP2 PUSH1 0x3 DUP2 MLOAD DUP2 LT PUSH2 0x2913 JUMPI PUSH2 0x2913 PUSH2 0x420F JUMP JUMPDEST PUSH1 0x20 MUL PUSH1 0x20 ADD ADD DUP2 SWAP1 MSTORE POP PUSH1 0x40 MLOAD DUP1 PUSH1 0x40 ADD PUSH1 0x40 MSTORE DUP1 PUSH1 0x5 DUP2 MSTORE PUSH1 0x20 ADD PUSH5 0x2AA996AA27 PUSH1 0xD9 SHL DUP2 MSTORE POP DUP2 PUSH1 0x4 DUP2 MLOAD DUP2 LT PUSH2 0x294F JUMPI PUSH2 0x294F PUSH2 0x420F JUMP JUMPDEST PUSH1 0x20 MUL PUSH1 0x20 ADD ADD DUP2 SWAP1 MSTORE POP PUSH1 0x40 MLOAD DUP1 PUSH1 0x40 ADD PUSH1 0x40 MSTORE DUP1 PUSH1 0x5 DUP2 MSTORE PUSH1 0x20 ADD PUSH5 0x55532D4E43 PUSH1 0xD8 SHL DUP2 MSTORE POP DUP2 PUSH1 0x5 DUP2 MLOAD DUP2 LT PUSH2 0x298B JUMPI PUSH2 0x298B PUSH2 0x420F JUMP JUMPDEST PUSH1 0x20 MUL PUSH1 0x20 ADD ADD DUP2 SWAP1 MSTORE POP PUSH1 0x0 PUSH1 0x40 MLOAD DUP1 PUSH2 0x100 ADD PUSH1 0x40 MSTORE DUP1 DUP7 DUP2 MSTORE PUSH1 0x20 ADD PUSH2 0x29B3 PUSH1 0x2 SLOAD SWAP1 JUMP JUMPDEST DUP2 MSTORE PUSH1 0x20 ADD PUSH1 0x0 DUP2 MSTORE PUSH1 0x20 ADD PUSH1 0x0 DUP2 MSTORE PUSH1 0x20 ADD PUSH1 0x0 DUP2 MSTORE PUSH1 0x20 ADD PUSH1 0x0 DUP2 MSTORE PUSH1 0x20 ADD PUSH1 0x0 DUP2 MSTORE PUSH1 0x20 ADD DUP4 DUP2 MSTORE POP SWAP1 POP DUP1 PUSH1 0x15 PUSH1 0x0 DUP8 DUP2 MSTORE PUSH1 0x20 ADD SWAP1 DUP2 MSTORE PUSH1 0x20 ADD PUSH1 0x0 KECCAK256 PUSH1 0x0 DUP3 ADD MLOAD DUP2 PUSH1 0x0 ADD SSTORE PUSH1 0x20 DUP3 ADD MLOAD DUP2 PUSH1 0x1 ADD SSTORE PUSH1 0x40 DUP3 ADD MLOAD DUP2 PUSH1 0x2 ADD SSTORE PUSH1 0x60 DUP3 ADD MLOAD DUP2 PUSH1 0x3 ADD SSTORE PUSH1 0x80 DUP3 ADD MLOAD DUP2 PUSH1 0x4 ADD SSTORE PUSH1 0xA0 DUP3 ADD MLOAD DUP2 PUSH1 0x5 ADD SSTORE PUSH1 0xC0 DUP3 ADD MLOAD DUP2 PUSH1 0x6 ADD SSTORE PUSH1 0xE0 DUP3 ADD MLOAD DUP2 PUSH1 0x7 ADD SWAP1 DUP1 MLOAD SWAP1 PUSH1 0x20 ADD SWAP1 PUSH2 0x2A57 SWAP3 SWAP2 SWAP1 PUSH2 0x37FB JUMP JUMPDEST POP SWAP1 POP POP PUSH2 0x2AC3 PUSH1 0x40 MLOAD DUP1 PUSH1 0x40 ADD PUSH1 0x40 MSTORE DUP1 PUSH1 0x11 DUP2 MSTORE PUSH1 0x20 ADD PUSH17 0x10D3D3541312505390D157D4915413D495 PUSH1 0x7A SHL DUP2 MSTORE POP PUSH1 0x40 MLOAD DUP1 PUSH1 0x40 ADD PUSH1 0x40 MSTORE DUP1 PUSH1 0x1A DUP2 MSTORE PUSH1 0x20 ADD PUSH32 0x517561727465726C79207265706F72742067656E657261746564000000000000 DUP2 MSTORE POP PUSH2 0x2C41 JUMP JUMPDEST PUSH32 0x1999FF9438B924F98B6807DAEC2AAE9FC1531AE8D5C28CBF19E8664ECDA1EBF1 DUP6 DUP3 PUSH1 0x20 ADD MLOAD PUSH1 0x40 MLOAD PUSH2 0x2B01 SWAP3 SWAP2 SWAP1 SWAP2 DUP3 MSTORE PUSH1 0x20 DUP3 ADD MSTORE PUSH1 0x40 ADD SWAP1 JUMP JUMPDEST PUSH1 0x40 MLOAD DUP1 SWAP2 SUB SWAP1 LOG1 SWAP3 POP POP JUMPDEST POP SWAP2 SWAP1 POP JUMP JUMPDEST PUSH1 0x1 PUSH1 0x1 PUSH1 0xA0 SHL SUB DUP4 AND PUSH2 0x2B75 JUMPI PUSH1 0x40 MLOAD PUSH3 0x461BCD PUSH1 0xE5 SHL DUP2 MSTORE PUSH1 0x20 PUSH1 0x4 DUP3 ADD MSTORE PUSH1 0x24 DUP1 DUP3 ADD MSTORE PUSH32 0x45524332303A20617070726F76652066726F6D20746865207A65726F20616464 PUSH1 0x44 DUP3 ADD MSTORE PUSH4 0x72657373 PUSH1 0xE0 SHL PUSH1 0x64 DUP3 ADD MSTORE PUSH1 0x84 ADD PUSH2 0xA64 JUMP JUMPDEST PUSH1 0x1 PUSH1 0x1 PUSH1 0xA0 SHL SUB DUP3 AND PUSH2 0x2BD6 JUMPI PUSH1 0x40 MLOAD PUSH3 0x461BCD PUSH1 0xE5 SHL DUP2 MSTORE PUSH1 0x20 PUSH1 0x4 DUP3 ADD MSTORE PUSH1 0x22 PUSH1 0x24 DUP3 ADD MSTORE PUSH32 0x45524332303A20617070726F766520746F20746865207A65726F206164647265 PUSH1 0x44 DUP3 ADD MSTORE PUSH2 0x7373 PUSH1 0xF0 SHL PUSH1 0x64 DUP3 ADD MSTORE PUSH1 0x84 ADD PUSH2 0xA64 JUMP JUMPDEST PUSH1 0x1 PUSH1 0x1 PUSH1 0xA0 SHL SUB DUP4 DUP2 AND PUSH1 0x0 DUP2 DUP2 MSTORE PUSH1 0x1 PUSH1 0x20 SWAP1 DUP2 MSTORE PUSH1 0x40 DUP1 DUP4 KECCAK256 SWAP5 DUP8 AND DUP1 DUP5 MSTORE SWAP5 DUP3 MSTORE SWAP2 DUP3 SWAP1 KECCAK256 DUP6 SWAP1 SSTORE SWAP1 MLOAD DUP5 DUP2 MSTORE PUSH32 0x8C5BE1E5EBEC7D5BD14F71427D1E84F3DD0314C0F7B2291E5B200AC8C7C3B925 SWAP2 ADD PUSH1 0x40 MLOAD DUP1 SWAP2 SUB SWAP1 LOG3 POP POP POP JUMP JUMPDEST PUSH2 0x146C DUP2 CALLER PUSH2 0x338D JUMP JUMPDEST PUSH1 0x14 PUSH1 0x40 MLOAD DUP1 PUSH1 0xA0 ADD PUSH1 0x40 MSTORE DUP1 CALLER PUSH1 0x1 PUSH1 0x1 PUSH1 0xA0 SHL SUB AND DUP2 MSTORE PUSH1 0x20 ADD DUP5 DUP2 MSTORE PUSH1 0x20 ADD DUP4 DUP2 MSTORE PUSH1 0x20 ADD TIMESTAMP DUP2 MSTORE PUSH1 0x20 ADD TIMESTAMP CALLER DUP7 PUSH1 0x40 MLOAD PUSH1 0x20 ADD PUSH2 0x2C84 SWAP4 SWAP3 SWAP2 SWAP1 PUSH2 0x4434 JUMP JUMPDEST PUSH1 0x40 DUP1 MLOAD DUP1 DUP4 SUB PUSH1 0x1F NOT ADD DUP2 MSTORE SWAP2 SWAP1 MSTORE DUP1 MLOAD PUSH1 0x20 SWAP2 DUP3 ADD KECCAK256 SWAP1 SWAP2 MSTORE DUP3 SLOAD PUSH1 0x1 DUP1 DUP3 ADD DUP6 SSTORE PUSH1 0x0 SWAP5 DUP6 MSTORE SWAP4 DUP3 SWAP1 KECCAK256 DUP4 MLOAD PUSH1 0x5 SWAP1 SWAP3 MUL ADD DUP1 SLOAD PUSH1 0x1 PUSH1 0x1 PUSH1 0xA0 SHL SUB NOT AND PUSH1 0x1 PUSH1 0x1 PUSH1 0xA0 SHL SUB SWAP1 SWAP3 AND SWAP2 SWAP1 SWAP2 OR DUP2 SSTORE SWAP1 DUP3 ADD MLOAD SWAP2 SWAP3 SWAP1 SWAP2 SWAP1 DUP3 ADD SWAP1 PUSH2 0x2CEC SWAP1 DUP3 PUSH2 0x4303 JUMP JUMPDEST POP PUSH1 0x40 DUP3 ADD MLOAD PUSH1 0x2 DUP3 ADD SWAP1 PUSH2 0x2D01 SWAP1 DUP3 PUSH2 0x4303 JUMP JUMPDEST POP PUSH1 0x60 DUP3 ADD MLOAD DUP2 PUSH1 0x3 ADD SSTORE PUSH1 0x80 DUP3 ADD MLOAD DUP2 PUSH1 0x4 ADD SSTORE POP POP CALLER PUSH1 0x1 PUSH1 0x1 PUSH1 0xA0 SHL SUB AND PUSH32 0x695D457F85AF59DF9D1927687762F36A38E9D70D212419F87B65F84980105292 DUP4 TIMESTAMP PUSH1 0x40 MLOAD PUSH2 0x2D53 SWAP3 SWAP2 SWAP1 PUSH2 0x4473 JUMP JUMPDEST PUSH1 0x40 MLOAD DUP1 SWAP2 SUB SWAP1 LOG2 POP POP JUMP JUMPDEST PUSH1 0x6 SLOAD PUSH1 0xFF AND ISZERO PUSH2 0x2DA5 JUMPI PUSH1 0x40 MLOAD PUSH3 0x461BCD PUSH1 0xE5 SHL DUP2 MSTORE PUSH1 0x20 PUSH1 0x4 DUP3 ADD MSTORE PUSH1 0x10 PUSH1 0x24 DUP3 ADD MSTORE PUSH16 0x14185D5CD8589B194E881C185D5CD959 PUSH1 0x82 SHL PUSH1 0x44 DUP3 ADD MSTORE PUSH1 0x64 ADD PUSH2 0xA64 JUMP JUMPDEST JUMP JUMPDEST PUSH1 0x0 PUSH10 0x10F0CF064DD59200000 DUP3 LT PUSH2 0x2DC2 JUMPI POP PUSH1 0x1 PUSH2 0xE6E JUMP JUMPDEST PUSH1 0x1 PUSH1 0x1 PUSH1 0xA0 SHL SUB DUP5 AND PUSH1 0x0 SWAP1 DUP2 MSTORE PUSH1 0xC PUSH1 0x20 MSTORE PUSH1 0x40 SWAP1 KECCAK256 SLOAD PUSH10 0x21E19E0C9BAB2400000 SWAP1 PUSH2 0x2DF2 SWAP1 DUP5 SWAP1 PUSH2 0x42A2 JUMP JUMPDEST GT ISZERO PUSH2 0x2E00 JUMPI POP PUSH1 0x1 PUSH2 0xE6E JUMP JUMPDEST PUSH1 0x1 PUSH1 0x1 PUSH1 0xA0 SHL SUB DUP5 AND PUSH1 0x0 SWAP1 DUP2 MSTORE PUSH1 0xD PUSH1 0x20 MSTORE PUSH1 0x40 SWAP1 KECCAK256 SLOAD TIMESTAMP SWAP1 SUB PUSH2 0x2E28 JUMPI POP PUSH1 0x1 PUSH2 0xE6E JUMP JUMPDEST PUSH1 0x1 PUSH1 0x1 PUSH1 0xA0 SHL SUB DUP4 AND PUSH1 0x0 SWAP1 DUP2 MSTORE PUSH1 0x8 PUSH1 0x20 MSTORE PUSH1 0x40 SWAP1 KECCAK256 SLOAD PUSH1 0xFF AND ISZERO DUP1 ISZERO PUSH2 0x2E59 JUMPI POP PUSH9 0x3635C9ADC5DEA00000 DUP3 GT JUMPDEST ISZERO PUSH2 0x2E66 JUMPI POP PUSH1 0x1 PUSH2 0xE6E JUMP JUMPDEST POP PUSH1 0x0 SWAP4 SWAP3 POP POP POP JUMP JUMPDEST PUSH1 0x40 MLOAD PUSH12 0xFFFFFFFFFFFFFFFFFFFFFFFF NOT PUSH1 0x60 DUP8 DUP2 SHL DUP3 AND PUSH1 0x20 DUP5 ADD MSTORE DUP7 SWAP1 SHL AND PUSH1 0x34 DUP3 ADD MSTORE PUSH1 0x48 DUP2 ADD DUP5 SWAP1 MSTORE TIMESTAMP PUSH1 0x68 DUP3 ADD MSTORE NUMBER PUSH1 0x88 DUP3 ADD MSTORE PUSH1 0x0 SWAP1 PUSH1 0xA8 ADD PUSH1 0x40 MLOAD PUSH1 0x20 DUP2 DUP4 SUB SUB DUP2 MSTORE SWAP1 PUSH1 0x40 MSTORE DUP1 MLOAD SWAP1 PUSH1 0x20 ADD KECCAK256 SWAP1 POP PUSH1 0x0 PUSH2 0x2ED4 DUP8 DUP8 DUP8 PUSH2 0x2DA7 JUMP JUMPDEST PUSH1 0x40 DUP1 MLOAD PUSH2 0x120 DUP2 ADD DUP3 MSTORE PUSH1 0x1 PUSH1 0x1 PUSH1 0xA0 SHL SUB DUP1 DUP12 AND DUP3 MSTORE DUP10 DUP2 AND PUSH1 0x20 DUP1 DUP5 ADD SWAP2 DUP3 MSTORE DUP4 DUP6 ADD DUP12 DUP2 MSTORE TIMESTAMP PUSH1 0x60 DUP7 ADD SWAP1 DUP2 MSTORE PUSH1 0x80 DUP7 ADD DUP13 DUP2 MSTORE PUSH1 0xA0 DUP8 ADD DUP13 SWAP1 MSTORE DUP9 ISZERO ISZERO PUSH1 0xC0 DUP9 ADD MSTORE PUSH1 0x0 PUSH1 0xE0 DUP9 ADD DUP2 SWAP1 MSTORE DUP9 MLOAD DUP1 DUP7 ADD DUP11 MSTORE DUP2 DUP2 MSTORE PUSH2 0x100 DUP10 ADD MSTORE DUP12 DUP2 MSTORE PUSH1 0xB SWAP1 SWAP5 MSTORE SWAP7 SWAP1 SWAP3 KECCAK256 DUP6 MLOAD DUP2 SLOAD SWAP1 DUP7 AND PUSH1 0x1 PUSH1 0x1 PUSH1 0xA0 SHL SUB NOT SWAP2 DUP3 AND OR DUP3 SSTORE SWAP4 MLOAD PUSH1 0x1 DUP3 ADD DUP1 SLOAD SWAP2 SWAP1 SWAP7 AND SWAP5 AND SWAP4 SWAP1 SWAP4 OR SWAP1 SWAP4 SSTORE SWAP2 MLOAD PUSH1 0x2 DUP3 ADD SSTORE SWAP1 MLOAD PUSH1 0x3 DUP3 ADD SSTORE SWAP2 MLOAD SWAP3 SWAP4 POP SWAP2 PUSH1 0x4 DUP3 ADD SWAP1 PUSH2 0x2F8E SWAP1 DUP3 PUSH2 0x4303 JUMP JUMPDEST POP PUSH1 0xA0 DUP3 ADD MLOAD PUSH1 0x5 DUP3 ADD SWAP1 PUSH2 0x2FA3 SWAP1 DUP3 PUSH2 0x4303 JUMP JUMPDEST POP PUSH1 0xC0 DUP3 ADD MLOAD PUSH1 0x6 DUP3 ADD DUP1 SLOAD PUSH1 0xE0 DUP6 ADD MLOAD PUSH2 0xFFFF NOT SWAP1 SWAP2 AND SWAP3 ISZERO ISZERO PUSH2 0xFF00 NOT AND SWAP3 SWAP1 SWAP3 OR PUSH2 0x100 SWAP3 ISZERO ISZERO DUP4 MUL OR SWAP1 SSTORE DUP3 ADD MLOAD PUSH1 0x7 DUP3 ADD SWAP1 PUSH2 0x2FE4 SWAP1 DUP3 PUSH2 0x4303 JUMP JUMPDEST POP SWAP1 POP POP DUP1 ISZERO PUSH2 0x1776 JUMPI PUSH2 0x3051 PUSH1 0x40 MLOAD DUP1 PUSH1 0x40 ADD PUSH1 0x40 MSTORE DUP1 PUSH1 0x16 DUP2 MSTORE PUSH1 0x20 ADD PUSH22 0x29AAA9A824A1A4A7AAA9AFAA2920A729A0A1AA24A7A7 PUSH1 0x51 SHL DUP2 MSTORE POP PUSH1 0x40 MLOAD DUP1 PUSH1 0x40 ADD PUSH1 0x40 MSTORE DUP1 PUSH1 0x13 DUP2 MSTORE PUSH1 0x20 ADD PUSH19 0x20AAAA27A6A0AA22A22FA222AA22A1AA24A7A7 PUSH1 0x69 SHL DUP2 MSTORE POP PUSH2 0x2C41 JUMP JUMPDEST DUP6 PUSH1 0x1 PUSH1 0x1 PUSH1 0xA0 SHL SUB AND DUP8 PUSH1 0x1 PUSH1 0x1 PUSH1 0xA0 SHL SUB AND PUSH32 0x1F84896F71B683977406F29BCBB80CF5D1BA025269A28E740140031A5596ED94 DUP8 PUSH1 0x40 MLOAD PUSH2 0x30C1 SWAP2 DUP2 MSTORE PUSH1 0x40 PUSH1 0x20 DUP3 ADD DUP2 SWAP1 MSTORE PUSH1 0x13 SWAP1 DUP3 ADD MSTORE PUSH19 0x20AAAA27A6A0AA22A22FA222AA22A1AA24A7A7 PUSH1 0x69 SHL PUSH1 0x60 DUP3 ADD MSTORE PUSH1 0x80 ADD SWAP1 JUMP JUMPDEST PUSH1 0x40 MLOAD DUP1 SWAP2 SUB SWAP1 LOG3 POP POP POP POP POP POP POP JUMP JUMPDEST PUSH1 0x0 CALLER PUSH2 0x30E0 DUP6 DUP3 DUP6 PUSH2 0x33E6 JUMP JUMPDEST PUSH2 0x1C59 DUP6 DUP6 DUP6 PUSH2 0x3460 JUMP JUMPDEST PUSH2 0x30F5 DUP3 DUP3 PUSH2 0x1BA4 JUMP JUMPDEST PUSH2 0xD18 JUMPI PUSH1 0x0 DUP3 DUP2 MSTORE PUSH1 0x5 PUSH1 0x20 SWAP1 DUP2 MSTORE PUSH1 0x40 DUP1 DUP4 KECCAK256 PUSH1 0x1 PUSH1 0x1 PUSH1 0xA0 SHL SUB DUP6 AND DUP5 MSTORE SWAP1 SWAP2 MSTORE SWAP1 KECCAK256 DUP1 SLOAD PUSH1 0xFF NOT AND PUSH1 0x1 OR SWAP1 SSTORE PUSH2 0x312D CALLER SWAP1 JUMP JUMPDEST PUSH1 0x1 PUSH1 0x1 PUSH1 0xA0 SHL SUB AND DUP2 PUSH1 0x1 PUSH1 0x1 PUSH1 0xA0 SHL SUB AND DUP4 PUSH32 0x2F8788117E7EFF1D82E926EC794901D17C78024A50270940304540A733656F0D PUSH1 0x40 MLOAD PUSH1 0x40 MLOAD DUP1 SWAP2 SUB SWAP1 LOG4 POP POP JUMP JUMPDEST PUSH2 0x317B DUP3 DUP3 PUSH2 0x1BA4 JUMP JUMPDEST ISZERO PUSH2 0xD18 JUMPI PUSH1 0x0 DUP3 DUP2 MSTORE PUSH1 0x5 PUSH1 0x20 SWAP1 DUP2 MSTORE PUSH1 0x40 DUP1 DUP4 KECCAK256 PUSH1 0x1 PUSH1 0x1 PUSH1 0xA0 SHL SUB DUP6 AND DUP1 DUP6 MSTORE SWAP3 MSTORE DUP1 DUP4 KECCAK256 DUP1 SLOAD PUSH1 0xFF NOT AND SWAP1 SSTORE MLOAD CALLER SWAP3 DUP6 SWAP2 PUSH32 0xF6391F5C32D9C69D2A47EA670B442974B53935D1EDC7FD64EB21E047A839171B SWAP2 SWAP1 LOG4 POP POP JUMP JUMPDEST PUSH1 0x1 PUSH1 0x1 PUSH1 0xA0 SHL SUB DUP3 AND PUSH2 0x322E JUMPI PUSH1 0x40 MLOAD PUSH3 0x461BCD PUSH1 0xE5 SHL DUP2 MSTORE PUSH1 0x20 PUSH1 0x4 DUP3 ADD MSTORE PUSH1 0x1F PUSH1 0x24 DUP3 ADD MSTORE PUSH32 0x45524332303A206D696E7420746F20746865207A65726F206164647265737300 PUSH1 0x44 DUP3 ADD MSTORE PUSH1 0x64 ADD PUSH2 0xA64 JUMP JUMPDEST DUP1 PUSH1 0x2 PUSH1 0x0 DUP3 DUP3 SLOAD PUSH2 0x3240 SWAP2 SWAP1 PUSH2 0x42A2 JUMP JUMPDEST SWAP1 SWAP2 SSTORE POP POP PUSH1 0x1 PUSH1 0x1 PUSH1 0xA0 SHL SUB DUP3 AND PUSH1 0x0 DUP2 DUP2 MSTORE PUSH1 0x20 DUP2 DUP2 MSTORE PUSH1 0x40 DUP1 DUP4 KECCAK256 DUP1 SLOAD DUP7 ADD SWAP1 SSTORE MLOAD DUP5 DUP2 MSTORE PUSH32 0xDDF252AD1BE2C89B69C2B068FC378DAA952BA7F163C4A11628F55A4DF523B3EF SWAP2 ADD PUSH1 0x40 MLOAD DUP1 SWAP2 SUB SWAP1 LOG3 POP POP JUMP JUMPDEST PUSH2 0x329F PUSH2 0x3604 JUMP JUMPDEST PUSH1 0x6 DUP1 SLOAD PUSH1 0xFF NOT AND SWAP1 SSTORE PUSH32 0x5DB9EE0A495BF2E6FF9C91A7834C1BA4FDD244A5E8AA4E537BD38AEAE4B073AA CALLER JUMPDEST PUSH1 0x40 MLOAD PUSH1 0x1 PUSH1 0x1 PUSH1 0xA0 SHL SUB SWAP1 SWAP2 AND DUP2 MSTORE PUSH1 0x20 ADD PUSH1 0x40 MLOAD DUP1 SWAP2 SUB SWAP1 LOG1 JUMP JUMPDEST PUSH1 0x2 PUSH1 0x7 SLOAD SUB PUSH2 0x333B JUMPI PUSH1 0x40 MLOAD PUSH3 0x461BCD PUSH1 0xE5 SHL DUP2 MSTORE PUSH1 0x20 PUSH1 0x4 DUP3 ADD MSTORE PUSH1 0x1F PUSH1 0x24 DUP3 ADD MSTORE PUSH32 0x5265656E7472616E637947756172643A207265656E7472616E742063616C6C00 PUSH1 0x44 DUP3 ADD MSTORE PUSH1 0x64 ADD PUSH2 0xA64 JUMP JUMPDEST PUSH1 0x2 PUSH1 0x7 SSTORE JUMP JUMPDEST PUSH1 0x0 CALLER PUSH2 0xC8F DUP2 DUP6 DUP6 PUSH2 0x3460 JUMP JUMPDEST PUSH2 0x3358 PUSH2 0x2D5F JUMP JUMPDEST PUSH1 0x6 DUP1 SLOAD PUSH1 0xFF NOT AND PUSH1 0x1 OR SWAP1 SSTORE PUSH32 0x62E78CEA01BEE320CD4E420270B5EA74000D11B0C9F74754EBDBFC544B05A258 PUSH2 0x32CC CALLER SWAP1 JUMP JUMPDEST PUSH2 0x3397 DUP3 DUP3 PUSH2 0x1BA4 JUMP JUMPDEST PUSH2 0xD18 JUMPI PUSH2 0x33A4 DUP2 PUSH2 0x364D JUMP JUMPDEST PUSH2 0x33AF DUP4 PUSH1 0x20 PUSH2 0x365F JUMP JUMPDEST PUSH1 0x40 MLOAD PUSH1 0x20 ADD PUSH2 0x33C0 SWAP3 SWAP2 SWAP1 PUSH2 0x4495 JUMP JUMPDEST PUSH1 0x40 DUP1 MLOAD PUSH1 0x1F NOT DUP2 DUP5 SUB ADD DUP2 MSTORE SWAP1 DUP3 SWAP1 MSTORE PUSH3 0x461BCD PUSH1 0xE5 SHL DUP3 MSTORE PUSH2 0xA64 SWAP2 PUSH1 0x4 ADD PUSH2 0x39EE JUMP JUMPDEST PUSH1 0x0 PUSH2 0x33F2 DUP5 DUP5 PUSH2 0x1F74 JUMP JUMPDEST SWAP1 POP PUSH1 0x0 NOT DUP2 EQ PUSH2 0x345A JUMPI DUP2 DUP2 LT ISZERO PUSH2 0x344D JUMPI PUSH1 0x40 MLOAD PUSH3 0x461BCD PUSH1 0xE5 SHL DUP2 MSTORE PUSH1 0x20 PUSH1 0x4 DUP3 ADD MSTORE PUSH1 0x1D PUSH1 0x24 DUP3 ADD MSTORE PUSH32 0x45524332303A20696E73756666696369656E7420616C6C6F77616E6365000000 PUSH1 0x44 DUP3 ADD MSTORE PUSH1 0x64 ADD PUSH2 0xA64 JUMP JUMPDEST PUSH2 0x345A DUP5 DUP5 DUP5 DUP5 SUB PUSH2 0x2B13 JUMP JUMPDEST POP POP POP POP JUMP JUMPDEST PUSH1 0x1 PUSH1 0x1 PUSH1 0xA0 SHL SUB DUP4 AND PUSH2 0x34C4 JUMPI PUSH1 0x40 MLOAD PUSH3 0x461BCD PUSH1 0xE5 SHL DUP2 MSTORE PUSH1 0x20 PUSH1 0x4 DUP3 ADD MSTORE PUSH1 0x25 PUSH1 0x24 DUP3 ADD MSTORE PUSH32 0x45524332303A207472616E736665722066726F6D20746865207A65726F206164 PUSH1 0x44 DUP3 ADD MSTORE PUSH5 0x6472657373 PUSH1 0xD8 SHL PUSH1 0x64 DUP3 ADD MSTORE PUSH1 0x84 ADD PUSH2 0xA64 JUMP JUMPDEST PUSH1 0x1 PUSH1 0x1 PUSH1 0xA0 SHL SUB DUP3 AND PUSH2 0x3526 JUMPI PUSH1 0x40 MLOAD PUSH3 0x461BCD PUSH1 0xE5 SHL DUP2 MSTORE PUSH1 0x20 PUSH1 0x4 DUP3 ADD MSTORE PUSH1 0x23 PUSH1 0x24 DUP3 ADD MSTORE PUSH32 0x45524332303A207472616E7366657220746F20746865207A65726F2061646472 PUSH1 0x44 DUP3 ADD MSTORE PUSH3 0x657373 PUSH1 0xE8 SHL PUSH1 0x64 DUP3 ADD MSTORE PUSH1 0x84 ADD PUSH2 0xA64 JUMP JUMPDEST PUSH1 0x1 PUSH1 0x1 PUSH1 0xA0 SHL SUB DUP4 AND PUSH1 0x0 SWAP1 DUP2 MSTORE PUSH1 0x20 DUP2 SWAP1 MSTORE PUSH1 0x40 SWAP1 KECCAK256 SLOAD DUP2 DUP2 LT ISZERO PUSH2 0x359E JUMPI PUSH1 0x40 MLOAD PUSH3 0x461BCD PUSH1 0xE5 SHL DUP2 MSTORE PUSH1 0x20 PUSH1 0x4 DUP3 ADD MSTORE PUSH1 0x26 PUSH1 0x24 DUP3 ADD MSTORE PUSH32 0x45524332303A207472616E7366657220616D6F756E7420657863656564732062 PUSH1 0x44 DUP3 ADD MSTORE PUSH6 0x616C616E6365 PUSH1 0xD0 SHL PUSH1 0x64 DUP3 ADD MSTORE PUSH1 0x84 ADD PUSH2 0xA64 JUMP JUMPDEST PUSH1 0x1 PUSH1 0x1 PUSH1 0xA0 SHL SUB DUP5 DUP2 AND PUSH1 0x0 DUP2 DUP2 MSTORE PUSH1 0x20 DUP2 DUP2 MSTORE PUSH1 0x40 DUP1 DUP4 KECCAK256 DUP8 DUP8 SUB SWAP1 SSTORE SWAP4 DUP8 AND DUP1 DUP4 MSTORE SWAP2 DUP5 SWAP1 KECCAK256 DUP1 SLOAD DUP8 ADD SWAP1 SSTORE SWAP3 MLOAD DUP6 DUP2 MSTORE SWAP1 SWAP3 PUSH32 0xDDF252AD1BE2C89B69C2B068FC378DAA952BA7F163C4A11628F55A4DF523B3EF SWAP2 ADD PUSH1 0x40 MLOAD DUP1 SWAP2 SUB SWAP1 LOG3 PUSH2 0x345A JUMP JUMPDEST PUSH1 0x6 SLOAD PUSH1 0xFF AND PUSH2 0x2DA5 JUMPI PUSH1 0x40 MLOAD PUSH3 0x461BCD PUSH1 0xE5 SHL DUP2 MSTORE PUSH1 0x20 PUSH1 0x4 DUP3 ADD MSTORE PUSH1 0x14 PUSH1 0x24 DUP3 ADD MSTORE PUSH20 0x14185D5CD8589B194E881B9BDD081C185D5CD959 PUSH1 0x62 SHL PUSH1 0x44 DUP3 ADD MSTORE PUSH1 0x64 ADD PUSH2 0xA64 JUMP JUMPDEST PUSH1 0x60 PUSH2 0x9DD PUSH1 0x1 PUSH1 0x1 PUSH1 0xA0 SHL SUB DUP4 AND PUSH1 0x14 JUMPDEST PUSH1 0x60 PUSH1 0x0 PUSH2 0x366E DUP4 PUSH1 0x2 PUSH2 0x428B JUMP JUMPDEST PUSH2 0x3679 SWAP1 PUSH1 0x2 PUSH2 0x42A2 JUMP JUMPDEST PUSH8 0xFFFFFFFFFFFFFFFF DUP2 GT ISZERO PUSH2 0x3691 JUMPI PUSH2 0x3691 PUSH2 0x3A2B JUMP JUMPDEST PUSH1 0x40 MLOAD SWAP1 DUP1 DUP3 MSTORE DUP1 PUSH1 0x1F ADD PUSH1 0x1F NOT AND PUSH1 0x20 ADD DUP3 ADD PUSH1 0x40 MSTORE DUP1 ISZERO PUSH2 0x36BB JUMPI PUSH1 0x20 DUP3 ADD DUP2 DUP1 CALLDATASIZE DUP4 CALLDATACOPY ADD SWAP1 POP JUMPDEST POP SWAP1 POP PUSH1 0x3 PUSH1 0xFC SHL DUP2 PUSH1 0x0 DUP2 MLOAD DUP2 LT PUSH2 0x36D6 JUMPI PUSH2 0x36D6 PUSH2 0x420F JUMP JUMPDEST PUSH1 0x20 ADD ADD SWAP1 PUSH1 0x1 PUSH1 0x1 PUSH1 0xF8 SHL SUB NOT AND SWAP1 DUP2 PUSH1 0x0 BYTE SWAP1 MSTORE8 POP PUSH1 0xF PUSH1 0xFB SHL DUP2 PUSH1 0x1 DUP2 MLOAD DUP2 LT PUSH2 0x3705 JUMPI PUSH2 0x3705 PUSH2 0x420F JUMP JUMPDEST PUSH1 0x20 ADD ADD SWAP1 PUSH1 0x1 PUSH1 0x1 PUSH1 0xF8 SHL SUB NOT AND SWAP1 DUP2 PUSH1 0x0 BYTE SWAP1 MSTORE8 POP PUSH1 0x0 PUSH2 0x3729 DUP5 PUSH1 0x2 PUSH2 0x428B JUMP JUMPDEST PUSH2 0x3734 SWAP1 PUSH1 0x1 PUSH2 0x42A2 JUMP JUMPDEST SWAP1 POP JUMPDEST PUSH1 0x1 DUP2 GT ISZERO PUSH2 0x37AC JUMPI PUSH16 0x181899199A1A9B1B9C1CB0B131B232B3 PUSH1 0x81 SHL DUP6 PUSH1 0xF AND PUSH1 0x10 DUP2 LT PUSH2 0x3768 JUMPI PUSH2 0x3768 PUSH2 0x420F JUMP JUMPDEST BYTE PUSH1 0xF8 SHL DUP3 DUP3 DUP2 MLOAD DUP2 LT PUSH2 0x377E JUMPI PUSH2 0x377E PUSH2 0x420F JUMP JUMPDEST PUSH1 0x20 ADD ADD SWAP1 PUSH1 0x1 PUSH1 0x1 PUSH1 0xF8 SHL SUB NOT AND SWAP1 DUP2 PUSH1 0x0 BYTE SWAP1 MSTORE8 POP PUSH1 0x4 SWAP5 SWAP1 SWAP5 SHR SWAP4 PUSH2 0x37A5 DUP2 PUSH2 0x450A JUMP JUMPDEST SWAP1 POP PUSH2 0x3737 JUMP JUMPDEST POP DUP4 ISZERO PUSH2 0xE6E JUMPI PUSH1 0x40 MLOAD PUSH3 0x461BCD PUSH1 0xE5 SHL DUP2 MSTORE PUSH1 0x20 PUSH1 0x4 DUP3 ADD DUP2 SWAP1 MSTORE PUSH1 0x24 DUP3 ADD MSTORE PUSH32 0x537472696E67733A20686578206C656E67746820696E73756666696369656E74 PUSH1 0x44 DUP3 ADD MSTORE PUSH1 0x64 ADD PUSH2 0xA64 JUMP JUMPDEST DUP3 DUP1 SLOAD DUP3 DUP3 SSTORE SWAP1 PUSH1 0x0 MSTORE PUSH1 0x20 PUSH1 0x0 KECCAK256 SWAP1 DUP2 ADD SWAP3 DUP3 ISZERO PUSH2 0x3841 JUMPI SWAP2 PUSH1 0x20 MUL DUP3 ADD JUMPDEST DUP3 DUP2 GT ISZERO PUSH2 0x3841 JUMPI DUP3 MLOAD DUP3 SWAP1 PUSH2 0x3831 SWAP1 DUP3 PUSH2 0x4303 JUMP JUMPDEST POP SWAP2 PUSH1 0x20 ADD SWAP2 SWAP1 PUSH1 0x1 ADD SWAP1 PUSH2 0x381B JUMP JUMPDEST POP PUSH2 0x384D SWAP3 SWAP2 POP PUSH2 0x3851 JUMP JUMPDEST POP SWAP1 JUMP JUMPDEST DUP1 DUP3 GT ISZERO PUSH2 0x384D JUMPI PUSH1 0x0 PUSH2 0x3865 DUP3 DUP3 PUSH2 0x386E JUMP JUMPDEST POP PUSH1 0x1 ADD PUSH2 0x3851 JUMP JUMPDEST POP DUP1 SLOAD PUSH2 0x387A SWAP1 PUSH2 0x4225 JUMP JUMPDEST PUSH1 0x0 DUP3 SSTORE DUP1 PUSH1 0x1F LT PUSH2 0x388A JUMPI POP POP JUMP JUMPDEST PUSH1 0x1F ADD PUSH1 0x20 SWAP1 DIV SWAP1 PUSH1 0x0 MSTORE PUSH1 0x20 PUSH1 0x0 KECCAK256 SWAP1 DUP2 ADD SWAP1 PUSH2 0x146C SWAP2 SWAP1 JUMPDEST DUP1 DUP3 GT ISZERO PUSH2 0x384D JUMPI PUSH1 0x0 DUP2 SSTORE PUSH1 0x1 ADD PUSH2 0x38A4 JUMP JUMPDEST PUSH1 0x0 PUSH1 0x20 DUP3 DUP5 SUB SLT ISZERO PUSH2 0x38CA JUMPI PUSH1 0x0 DUP1 REVERT JUMPDEST DUP2 CALLDATALOAD PUSH1 0x1 PUSH1 0x1 PUSH1 0xE0 SHL SUB NOT DUP2 AND DUP2 EQ PUSH2 0xE6E JUMPI PUSH1 0x0 DUP1 REVERT JUMPDEST DUP1 CALLDATALOAD PUSH1 0x1 PUSH1 0x1 PUSH1 0xA0 SHL SUB DUP2 AND DUP2 EQ PUSH2 0x38F9 JUMPI PUSH1 0x0 DUP1 REVERT JUMPDEST SWAP2 SWAP1 POP JUMP JUMPDEST PUSH1 0x0 PUSH1 0x20 DUP3 DUP5 SUB SLT ISZERO PUSH2 0x3910 JUMPI PUSH1 0x0 DUP1 REVERT JUMPDEST PUSH2 0xE6E DUP3 PUSH2 0x38E2 JUMP JUMPDEST PUSH1 0x0 PUSH1 0x20 DUP3 DUP5 SUB SLT ISZERO PUSH2 0x392B JUMPI PUSH1 0x0 DUP1 REVERT JUMPDEST POP CALLDATALOAD SWAP2 SWAP1 POP JUMP JUMPDEST PUSH1 0x0 JUMPDEST DUP4 DUP2 LT ISZERO PUSH2 0x394D JUMPI DUP2 DUP2 ADD MLOAD DUP4 DUP3 ADD MSTORE PUSH1 0x20 ADD PUSH2 0x3935 JUMP JUMPDEST POP POP PUSH1 0x0 SWAP2 ADD MSTORE JUMP JUMPDEST PUSH1 0x0 DUP2 MLOAD DUP1 DUP5 MSTORE PUSH2 0x396E DUP2 PUSH1 0x20 DUP7 ADD PUSH1 0x20 DUP7 ADD PUSH2 0x3932 JUMP JUMPDEST PUSH1 0x1F ADD PUSH1 0x1F NOT AND SWAP3 SWAP1 SWAP3 ADD PUSH1 0x20 ADD SWAP3 SWAP2 POP POP JUMP JUMPDEST PUSH1 0x20 DUP1 DUP3 MSTORE DUP3 MLOAD PUSH1 0x1 PUSH1 0x1 PUSH1 0xA0 SHL SUB AND DUP3 DUP3 ADD MSTORE DUP3 ADD MLOAD PUSH1 0xA0 PUSH1 0x40 DUP4 ADD MSTORE PUSH1 0x0 SWAP1 PUSH2 0x39B0 PUSH1 0xC0 DUP5 ADD DUP3 PUSH2 0x3956 JUMP JUMPDEST SWAP1 POP PUSH1 0x40 DUP5 ADD MLOAD PUSH1 0x1F NOT DUP5 DUP4 SUB ADD PUSH1 0x60 DUP6 ADD MSTORE PUSH2 0x39CD DUP3 DUP3 PUSH2 0x3956 JUMP JUMPDEST SWAP2 POP POP PUSH1 0x60 DUP5 ADD MLOAD PUSH1 0x80 DUP5 ADD MSTORE PUSH1 0x80 DUP5 ADD MLOAD PUSH1 0xA0 DUP5 ADD MSTORE DUP1 SWAP2 POP POP SWAP3 SWAP2 POP POP JUMP JUMPDEST PUSH1 0x20 DUP2 MSTORE PUSH1 0x0 PUSH2 0xE6E PUSH1 0x20 DUP4 ADD DUP5 PUSH2 0x3956 JUMP JUMPDEST PUSH1 0x0 DUP1 PUSH1 0x40 DUP4 DUP6 SUB SLT ISZERO PUSH2 0x3A14 JUMPI PUSH1 0x0 DUP1 REVERT JUMPDEST PUSH2 0x3A1D DUP4 PUSH2 0x38E2 JUMP JUMPDEST SWAP5 PUSH1 0x20 SWAP4 SWAP1 SWAP4 ADD CALLDATALOAD SWAP4 POP POP POP JUMP JUMPDEST PUSH4 0x4E487B71 PUSH1 0xE0 SHL PUSH1 0x0 MSTORE PUSH1 0x41 PUSH1 0x4 MSTORE PUSH1 0x24 PUSH1 0x0 REVERT JUMPDEST PUSH1 0x40 MLOAD PUSH1 0x1F DUP3 ADD PUSH1 0x1F NOT AND DUP2 ADD PUSH8 0xFFFFFFFFFFFFFFFF DUP2 GT DUP3 DUP3 LT OR ISZERO PUSH2 0x3A6A JUMPI PUSH2 0x3A6A PUSH2 0x3A2B JUMP JUMPDEST PUSH1 0x40 MSTORE SWAP2 SWAP1 POP JUMP JUMPDEST PUSH1 0x0 DUP3 PUSH1 0x1F DUP4 ADD SLT PUSH2 0x3A83 JUMPI PUSH1 0x0 DUP1 REVERT JUMPDEST DUP2 CALLDATALOAD PUSH8 0xFFFFFFFFFFFFFFFF DUP2 GT ISZERO PUSH2 0x3A9D JUMPI PUSH2 0x3A9D PUSH2 0x3A2B JUMP JUMPDEST PUSH2 0x3AB0 PUSH1 0x1F DUP3 ADD PUSH1 0x1F NOT AND PUSH1 0x20 ADD PUSH2 0x3A41 JUMP JUMPDEST DUP2 DUP2 MSTORE DUP5 PUSH1 0x20 DUP4 DUP7 ADD ADD GT ISZERO PUSH2 0x3AC5 JUMPI PUSH1 0x0 DUP1 REVERT JUMPDEST DUP2 PUSH1 0x20 DUP6 ADD PUSH1 0x20 DUP4 ADD CALLDATACOPY PUSH1 0x0 SWAP2 DUP2 ADD PUSH1 0x20 ADD SWAP2 SWAP1 SWAP2 MSTORE SWAP4 SWAP3 POP POP POP JUMP JUMPDEST PUSH1 0x0 PUSH1 0x20 DUP3 DUP5 SUB SLT ISZERO PUSH2 0x3AF4 JUMPI PUSH1 0x0 DUP1 REVERT JUMPDEST DUP2 CALLDATALOAD PUSH8 0xFFFFFFFFFFFFFFFF DUP2 GT ISZERO PUSH2 0x3B0B JUMPI PUSH1 0x0 DUP1 REVERT JUMPDEST PUSH2 0x3B17 DUP5 DUP3 DUP6 ADD PUSH2 0x3A72 JUMP JUMPDEST SWAP5 SWAP4 POP POP POP POP JUMP JUMPDEST PUSH1 0x0 DUP1 PUSH1 0x0 PUSH1 0x60 DUP5 DUP7 SUB SLT ISZERO PUSH2 0x3B34 JUMPI PUSH1 0x0 DUP1 REVERT JUMPDEST PUSH2 0x3B3D DUP5 PUSH2 0x38E2 JUMP JUMPDEST SWAP3 POP PUSH2 0x3B4B PUSH1 0x20 DUP6 ADD PUSH2 0x38E2 JUMP JUMPDEST SWAP2 POP PUSH1 0x40 DUP5 ADD CALLDATALOAD SWAP1 POP SWAP3 POP SWAP3 POP SWAP3 JUMP JUMPDEST DUP1 CALLDATALOAD DUP1 ISZERO ISZERO DUP2 EQ PUSH2 0x38F9 JUMPI PUSH1 0x0 DUP1 REVERT JUMPDEST PUSH1 0x0 DUP1 PUSH1 0x0 DUP1 PUSH1 0x0 PUSH1 0xA0 DUP7 DUP9 SUB SLT ISZERO PUSH2 0x3B83 JUMPI PUSH1 0x0 DUP1 REVERT JUMPDEST PUSH2 0x3B8C DUP7 PUSH2 0x38E2 JUMP JUMPDEST SWAP5 POP PUSH2 0x3B9A PUSH1 0x20 DUP8 ADD PUSH2 0x3B5B JUMP JUMPDEST SWAP4 POP PUSH1 0x40 DUP7 ADD CALLDATALOAD PUSH8 0xFFFFFFFFFFFFFFFF DUP1 DUP3 GT ISZERO PUSH2 0x3BB7 JUMPI PUSH1 0x0 DUP1 REVERT JUMPDEST PUSH2 0x3BC3 DUP10 DUP4 DUP11 ADD PUSH2 0x3A72 JUMP JUMPDEST SWAP5 POP PUSH1 0x60 DUP9 ADD CALLDATALOAD SWAP2 POP DUP1 DUP3 GT ISZERO PUSH2 0x3BD9 JUMPI PUSH1 0x0 DUP1 REVERT JUMPDEST POP PUSH2 0x3BE6 DUP9 DUP3 DUP10 ADD PUSH2 0x3A72 JUMP JUMPDEST SWAP6 SWAP9 SWAP5 SWAP8 POP SWAP3 SWAP6 PUSH1 0x80 ADD CALLDATALOAD SWAP4 SWAP3 POP POP POP JUMP JUMPDEST PUSH1 0x0 DUP1 PUSH1 0x40 DUP4 DUP6 SUB SLT ISZERO PUSH2 0x3C0B JUMPI PUSH1 0x0 DUP1 REVERT JUMPDEST DUP3 CALLDATALOAD SWAP2 POP PUSH2 0x3C1B PUSH1 0x20 DUP5 ADD PUSH2 0x38E2 JUMP JUMPDEST SWAP1 POP SWAP3 POP SWAP3 SWAP1 POP JUMP JUMPDEST PUSH1 0x1 PUSH1 0x1 PUSH1 0xA0 SHL SUB DUP11 DUP2 AND DUP3 MSTORE DUP10 AND PUSH1 0x20 DUP3 ADD MSTORE PUSH1 0x40 DUP2 ADD DUP9 SWAP1 MSTORE PUSH1 0x60 DUP2 ADD DUP8 SWAP1 MSTORE PUSH2 0x120 PUSH1 0x80 DUP3 ADD DUP2 SWAP1 MSTORE PUSH1 0x0 SWAP1 PUSH2 0x3C5F DUP4 DUP3 ADD DUP10 PUSH2 0x3956 JUMP JUMPDEST SWAP1 POP DUP3 DUP2 SUB PUSH1 0xA0 DUP5 ADD MSTORE PUSH2 0x3C73 DUP2 DUP9 PUSH2 0x3956 JUMP JUMPDEST SWAP1 POP DUP6 ISZERO ISZERO PUSH1 0xC0 DUP5 ADD MSTORE DUP5 ISZERO ISZERO PUSH1 0xE0 DUP5 ADD MSTORE DUP3 DUP2 SUB PUSH2 0x100 DUP5 ADD MSTORE PUSH2 0x3C98 DUP2 DUP6 PUSH2 0x3956 JUMP JUMPDEST SWAP13 SWAP12 POP POP POP POP POP POP POP POP POP POP POP POP JUMP JUMPDEST PUSH1 0x0 DUP1 PUSH1 0x40 DUP4 DUP6 SUB SLT ISZERO PUSH2 0x3CBB JUMPI PUSH1 0x0 DUP1 REVERT JUMPDEST DUP3 CALLDATALOAD PUSH8 0xFFFFFFFFFFFFFFFF DUP1 DUP3 GT ISZERO PUSH2 0x3CD3 JUMPI PUSH1 0x0 DUP1 REVERT JUMPDEST PUSH2 0x3CDF DUP7 DUP4 DUP8 ADD PUSH2 0x3A72 JUMP JUMPDEST SWAP4 POP PUSH1 0x20 DUP6 ADD CALLDATALOAD SWAP2 POP DUP1 DUP3 GT ISZERO PUSH2 0x3CF5 JUMPI PUSH1 0x0 DUP1 REVERT JUMPDEST POP PUSH2 0x3D02 DUP6 DUP3 DUP7 ADD PUSH2 0x3A72 JUMP JUMPDEST SWAP2 POP POP SWAP3 POP SWAP3 SWAP1 POP JUMP JUMPDEST PUSH1 0x0 DUP1 PUSH1 0x0 DUP1 PUSH1 0x0 PUSH1 0xA0 DUP7 DUP9 SUB SLT ISZERO PUSH2 0x3D24 JUMPI PUSH1 0x0 DUP1 REVERT JUMPDEST PUSH2 0x3D2D DUP7 PUSH2 0x38E2 JUMP JUMPDEST SWAP5 POP PUSH1 0x20 DUP7 ADD CALLDATALOAD SWAP4 POP PUSH1 0x40 DUP7 ADD CALLDATALOAD PUSH8 0xFFFFFFFFFFFFFFFF DUP1 DUP3 GT ISZERO PUSH2 0x3D51 JUMPI PUSH1 0x0 DUP1 REVERT JUMPDEST PUSH2 0x3D5D DUP10 DUP4 DUP11 ADD PUSH2 0x3A72 JUMP JUMPDEST SWAP5 POP PUSH1 0x60 DUP9 ADD CALLDATALOAD SWAP4 POP PUSH1 0x80 DUP9 ADD CALLDATALOAD SWAP2 POP DUP1 DUP3 GT ISZERO PUSH2 0x3D7A JUMPI PUSH1 0x0 DUP1 REVERT JUMPDEST POP PUSH2 0x3D87 DUP9 DUP3 DUP10 ADD PUSH2 0x3A72 JUMP JUMPDEST SWAP2 POP POP SWAP3 SWAP6 POP SWAP3 SWAP6 SWAP1 SWAP4 POP JUMP JUMPDEST PUSH1 0x0 DUP1 PUSH1 0x0 DUP1 PUSH1 0x0 DUP1 PUSH1 0xC0 DUP8 DUP10 SUB SLT ISZERO PUSH2 0x3DAD JUMPI PUSH1 0x0 DUP1 REVERT JUMPDEST PUSH2 0x3DB6 DUP8 PUSH2 0x38E2 JUMP JUMPDEST SWAP6 POP PUSH1 0x20 PUSH2 0x3DC5 DUP2 DUP10 ADD PUSH2 0x3B5B JUMP JUMPDEST SWAP6 POP PUSH1 0x40 DUP9 ADD CALLDATALOAD PUSH8 0xFFFFFFFFFFFFFFFF DUP1 DUP3 GT ISZERO PUSH2 0x3DE2 JUMPI PUSH1 0x0 DUP1 REVERT JUMPDEST PUSH2 0x3DEE DUP12 DUP4 DUP13 ADD PUSH2 0x3A72 JUMP JUMPDEST SWAP7 POP PUSH1 0x60 DUP11 ADD CALLDATALOAD SWAP2 POP DUP1 DUP3 GT ISZERO PUSH2 0x3E04 JUMPI PUSH1 0x0 DUP1 REVERT JUMPDEST DUP2 DUP11 ADD SWAP2 POP DUP11 PUSH1 0x1F DUP4 ADD SLT PUSH2 0x3E18 JUMPI PUSH1 0x0 DUP1 REVERT JUMPDEST DUP2 CALLDATALOAD DUP2 DUP2 GT ISZERO PUSH2 0x3E2A JUMPI PUSH2 0x3E2A PUSH2 0x3A2B JUMP JUMPDEST DUP1 PUSH1 0x5 SHL PUSH2 0x3E39 DUP6 DUP3 ADD PUSH2 0x3A41 JUMP JUMPDEST SWAP2 DUP3 MSTORE DUP4 DUP2 ADD DUP6 ADD SWAP2 DUP6 DUP2 ADD SWAP1 DUP15 DUP5 GT ISZERO PUSH2 0x3E53 JUMPI PUSH1 0x0 DUP1 REVERT JUMPDEST DUP7 DUP7 ADD SWAP3 POP JUMPDEST DUP4 DUP4 LT ISZERO PUSH2 0x3E8D JUMPI DUP5 DUP4 CALLDATALOAD GT ISZERO PUSH2 0x3E6F JUMPI PUSH1 0x0 DUP1 REVERT JUMPDEST PUSH2 0x3E7E DUP16 DUP9 DUP6 CALLDATALOAD DUP10 ADD ADD PUSH2 0x3A72 JUMP JUMPDEST DUP3 MSTORE SWAP2 DUP7 ADD SWAP2 SWAP1 DUP7 ADD SWAP1 PUSH2 0x3E59 JUMP JUMPDEST SWAP9 POP POP POP POP PUSH1 0x80 DUP11 ADD CALLDATALOAD SWAP5 POP PUSH1 0xA0 DUP11 ADD CALLDATALOAD SWAP3 POP DUP1 DUP4 GT ISZERO PUSH2 0x3EAD JUMPI PUSH1 0x0 DUP1 REVERT JUMPDEST POP POP PUSH2 0x3EBB DUP10 DUP3 DUP11 ADD PUSH2 0x3A72 JUMP JUMPDEST SWAP2 POP POP SWAP3 SWAP6 POP SWAP3 SWAP6 POP SWAP3 SWAP6 JUMP JUMPDEST DUP8 ISZERO ISZERO DUP2 MSTORE DUP7 ISZERO ISZERO PUSH1 0x20 DUP3 ADD MSTORE PUSH1 0xE0 PUSH1 0x40 DUP3 ADD MSTORE PUSH1 0x0 PUSH2 0x3EEB PUSH1 0xE0 DUP4 ADD DUP9 PUSH2 0x3956 JUMP JUMPDEST PUSH1 0x60 DUP4 ADD DUP8 SWAP1 MSTORE PUSH1 0x80 DUP4 ADD DUP7 SWAP1 MSTORE PUSH1 0x1 PUSH1 0x1 PUSH1 0xA0 SHL SUB DUP6 AND PUSH1 0xA0 DUP5 ADD MSTORE DUP3 DUP2 SUB PUSH1 0xC0 DUP5 ADD MSTORE PUSH2 0x3F1A DUP2 DUP6 PUSH2 0x3956 JUMP JUMPDEST SWAP11 SWAP10 POP POP POP POP POP POP POP POP POP POP JUMP JUMPDEST DUP6 ISZERO ISZERO DUP2 MSTORE PUSH1 0xA0 PUSH1 0x20 DUP3 ADD MSTORE PUSH1 0x0 PUSH2 0x3F43 PUSH1 0xA0 DUP4 ADD DUP8 PUSH2 0x3956 JUMP JUMPDEST DUP6 PUSH1 0x40 DUP5 ADD MSTORE DUP3 DUP2 SUB PUSH1 0x60 DUP5 ADD MSTORE PUSH2 0x3F5B DUP2 DUP7 PUSH2 0x3956 JUMP JUMPDEST SWAP2 POP POP DUP3 ISZERO ISZERO PUSH1 0x80 DUP4 ADD MSTORE SWAP7 SWAP6 POP POP POP POP POP POP JUMP JUMPDEST PUSH1 0x0 DUP1 PUSH1 0x40 DUP4 DUP6 SUB SLT ISZERO PUSH2 0x3F83 JUMPI PUSH1 0x0 DUP1 REVERT JUMPDEST PUSH2 0x3F8C DUP4 PUSH2 0x38E2 JUMP JUMPDEST SWAP2 POP PUSH2 0x3C1B PUSH1 0x20 DUP5 ADD PUSH2 0x38E2 JUMP JUMPDEST PUSH1 0x1 PUSH1 0x1 PUSH1 0xA0 SHL SUB DUP7 AND DUP2 MSTORE PUSH1 0xA0 PUSH1 0x20 DUP3 ADD DUP2 SWAP1 MSTORE PUSH1 0x0 SWAP1 PUSH2 0x3FBE SWAP1 DUP4 ADD DUP8 PUSH2 0x3956 JUMP JUMPDEST DUP3 DUP2 SUB PUSH1 0x40 DUP5 ADD MSTORE PUSH2 0x3FD0 DUP2 DUP8 PUSH2 0x3956 JUMP JUMPDEST PUSH1 0x60 DUP5 ADD SWAP6 SWAP1 SWAP6 MSTORE POP POP PUSH1 0x80 ADD MSTORE SWAP4 SWAP3 POP POP POP JUMP JUMPDEST PUSH1 0x20 DUP2 MSTORE DUP2 MLOAD ISZERO ISZERO PUSH1 0x20 DUP3 ADD MSTORE PUSH1 0x20 DUP3 ADD MLOAD ISZERO ISZERO PUSH1 0x40 DUP3 ADD MSTORE PUSH1 0x0 PUSH1 0x40 DUP4 ADD MLOAD PUSH1 0xE0 PUSH1 0x60 DUP5 ADD MSTORE PUSH2 0x401A PUSH2 0x100 DUP5 ADD DUP3 PUSH2 0x3956 JUMP JUMPDEST SWAP1 POP PUSH1 0x60 DUP5 ADD MLOAD PUSH1 0x80 DUP5 ADD MSTORE PUSH1 0x80 DUP5 ADD MLOAD PUSH1 0xA0 DUP5 ADD MSTORE PUSH1 0x1 DUP1 PUSH1 0xA0 SHL SUB PUSH1 0xA0 DUP6 ADD MLOAD AND PUSH1 0xC0 DUP5 ADD MSTORE PUSH1 0xC0 DUP5 ADD MLOAD PUSH1 0x1F NOT DUP5 DUP4 SUB ADD PUSH1 0xE0 DUP6 ADD MSTORE PUSH2 0x405D DUP3 DUP3 PUSH2 0x3956 JUMP JUMPDEST SWAP6 SWAP5 POP POP POP POP POP JUMP JUMPDEST PUSH1 0x0 DUP2 MLOAD DUP1 DUP5 MSTORE PUSH1 0x20 DUP1 DUP6 ADD DUP1 DUP2 SWAP7 POP DUP4 PUSH1 0x5 SHL DUP2 ADD SWAP2 POP DUP3 DUP7 ADD PUSH1 0x0 JUMPDEST DUP6 DUP2 LT ISZERO PUSH2 0x40AE JUMPI DUP3 DUP5 SUB DUP10 MSTORE PUSH2 0x409C DUP5 DUP4 MLOAD PUSH2 0x3956 JUMP JUMPDEST SWAP9 DUP6 ADD SWAP9 SWAP4 POP SWAP1 DUP5 ADD SWAP1 PUSH1 0x1 ADD PUSH2 0x4084 JUMP JUMPDEST POP SWAP2 SWAP8 SWAP7 POP POP POP POP POP POP POP JUMP JUMPDEST PUSH1 0x20 DUP2 MSTORE DUP2 MLOAD ISZERO ISZERO PUSH1 0x20 DUP3 ADD MSTORE PUSH1 0x0 PUSH1 0x20 DUP4 ADD MLOAD PUSH1 0xC0 PUSH1 0x40 DUP5 ADD MSTORE PUSH2 0x40E3 PUSH1 0xE0 DUP5 ADD DUP3 PUSH2 0x3956 JUMP JUMPDEST SWAP1 POP PUSH1 0x40 DUP5 ADD MLOAD PUSH1 0x1F NOT DUP1 DUP6 DUP5 SUB ADD PUSH1 0x60 DUP7 ADD MSTORE PUSH2 0x4101 DUP4 DUP4 PUSH2 0x4066 JUMP JUMPDEST SWAP3 POP PUSH1 0x60 DUP7 ADD MLOAD PUSH1 0x80 DUP7 ADD MSTORE PUSH1 0x80 DUP7 ADD MLOAD SWAP2 POP DUP1 DUP6 DUP5 SUB ADD PUSH1 0xA0 DUP7 ADD MSTORE POP PUSH2 0x4129 DUP3 DUP3 PUSH2 0x3956 JUMP JUMPDEST SWAP2 POP POP PUSH1 0xA0 DUP5 ADD MLOAD ISZERO ISZERO PUSH1 0xC0 DUP5 ADD MSTORE DUP1 SWAP2 POP POP SWAP3 SWAP2 POP POP JUMP JUMPDEST PUSH1 0x0 DUP1 PUSH1 0x0 DUP1 PUSH1 0x80 DUP6 DUP8 SUB SLT ISZERO PUSH2 0x4158 JUMPI PUSH1 0x0 DUP1 REVERT JUMPDEST PUSH2 0x4161 DUP6 PUSH2 0x38E2 JUMP JUMPDEST SWAP4 POP PUSH1 0x20 DUP6 ADD CALLDATALOAD SWAP3 POP PUSH1 0x40 DUP6 ADD CALLDATALOAD PUSH8 0xFFFFFFFFFFFFFFFF DUP2 GT ISZERO PUSH2 0x4184 JUMPI PUSH1 0x0 DUP1 REVERT JUMPDEST PUSH2 0x4190 DUP8 DUP3 DUP9 ADD PUSH2 0x3A72 JUMP JUMPDEST SWAP3 POP POP PUSH2 0x419F PUSH1 0x60 DUP7 ADD PUSH2 0x3B5B JUMP JUMPDEST SWAP1 POP SWAP3 SWAP6 SWAP2 SWAP5 POP SWAP3 POP JUMP JUMPDEST PUSH1 0x20 DUP2 MSTORE DUP2 MLOAD PUSH1 0x20 DUP3 ADD MSTORE PUSH1 0x20 DUP3 ADD MLOAD PUSH1 0x40 DUP3 ADD MSTORE PUSH1 0x40 DUP3 ADD MLOAD PUSH1 0x60 DUP3 ADD MSTORE PUSH1 0x60 DUP3 ADD MLOAD PUSH1 0x80 DUP3 ADD MSTORE PUSH1 0x80 DUP3 ADD MLOAD PUSH1 0xA0 DUP3 ADD MSTORE PUSH1 0xA0 DUP3 ADD MLOAD PUSH1 0xC0 DUP3 ADD MSTORE PUSH1 0xC0 DUP3 ADD MLOAD PUSH1 0xE0 DUP3 ADD MSTORE PUSH1 0x0 PUSH1 0xE0 DUP4 ADD MLOAD PUSH2 0x100 DUP1 DUP2 DUP6 ADD MSTORE POP PUSH2 0x3B17 PUSH2 0x120 DUP5 ADD DUP3 PUSH2 0x4066 JUMP JUMPDEST PUSH4 0x4E487B71 PUSH1 0xE0 SHL PUSH1 0x0 MSTORE PUSH1 0x32 PUSH1 0x4 MSTORE PUSH1 0x24 PUSH1 0x0 REVERT JUMPDEST PUSH1 0x1 DUP2 DUP2 SHR SWAP1 DUP3 AND DUP1 PUSH2 0x4239 JUMPI PUSH1 0x7F DUP3 AND SWAP2 POP JUMPDEST PUSH1 0x20 DUP3 LT DUP2 SUB PUSH2 0x2B0D JUMPI PUSH4 0x4E487B71 PUSH1 0xE0 SHL PUSH1 0x0 MSTORE PUSH1 0x22 PUSH1 0x4 MSTORE PUSH1 0x24 PUSH1 0x0 REVERT JUMPDEST PUSH1 0x0 DUP3 MLOAD PUSH2 0x426B DUP2 DUP5 PUSH1 0x20 DUP8 ADD PUSH2 0x3932 JUMP JUMPDEST SWAP2 SWAP1 SWAP2 ADD SWAP3 SWAP2 POP POP JUMP JUMPDEST PUSH4 0x4E487B71 PUSH1 0xE0 SHL PUSH1 0x0 MSTORE PUSH1 0x11 PUSH1 0x4 MSTORE PUSH1 0x24 PUSH1 0x0 REVERT JUMPDEST DUP1 DUP3 MUL DUP2 ISZERO DUP3 DUP3 DIV DUP5 EQ OR PUSH2 0x9DD JUMPI PUSH2 0x9DD PUSH2 0x4275 JUMP JUMPDEST DUP1 DUP3 ADD DUP1 DUP3 GT ISZERO PUSH2 0x9DD JUMPI PUSH2 0x9DD PUSH2 0x4275 JUMP JUMPDEST PUSH1 0x1F DUP3 GT ISZERO PUSH2 0x104A JUMPI PUSH1 0x0 DUP2 DUP2 MSTORE PUSH1 0x20 DUP2 KECCAK256 PUSH1 0x1F DUP6 ADD PUSH1 0x5 SHR DUP2 ADD PUSH1 0x20 DUP7 LT ISZERO PUSH2 0x42DC JUMPI POP DUP1 JUMPDEST PUSH1 0x1F DUP6 ADD PUSH1 0x5 SHR DUP3 ADD SWAP2 POP JUMPDEST DUP2 DUP2 LT ISZERO PUSH2 0x42FB JUMPI DUP3 DUP2 SSTORE PUSH1 0x1 ADD PUSH2 0x42E8 JUMP JUMPDEST POP POP POP POP POP POP JUMP JUMPDEST DUP2 MLOAD PUSH8 0xFFFFFFFFFFFFFFFF DUP2 GT ISZERO PUSH2 0x431D JUMPI PUSH2 0x431D PUSH2 0x3A2B JUMP JUMPDEST PUSH2 0x4331 DUP2 PUSH2 0x432B DUP5 SLOAD PUSH2 0x4225 JUMP JUMPDEST DUP5 PUSH2 0x42B5 JUMP JUMPDEST PUSH1 0x20 DUP1 PUSH1 0x1F DUP4 GT PUSH1 0x1 DUP2 EQ PUSH2 0x4366 JUMPI PUSH1 0x0 DUP5 ISZERO PUSH2 0x434E JUMPI POP DUP6 DUP4 ADD MLOAD JUMPDEST PUSH1 0x0 NOT PUSH1 0x3 DUP7 SWAP1 SHL SHR NOT AND PUSH1 0x1 DUP6 SWAP1 SHL OR DUP6 SSTORE PUSH2 0x42FB JUMP JUMPDEST PUSH1 0x0 DUP6 DUP2 MSTORE PUSH1 0x20 DUP2 KECCAK256 PUSH1 0x1F NOT DUP7 AND SWAP2 JUMPDEST DUP3 DUP2 LT ISZERO PUSH2 0x4395 JUMPI DUP9 DUP7 ADD MLOAD DUP3 SSTORE SWAP5 DUP5 ADD SWAP5 PUSH1 0x1 SWAP1 SWAP2 ADD SWAP1 DUP5 ADD PUSH2 0x4376 JUMP JUMPDEST POP DUP6 DUP3 LT ISZERO PUSH2 0x43B3 JUMPI DUP8 DUP6 ADD MLOAD PUSH1 0x0 NOT PUSH1 0x3 DUP9 SWAP1 SHL PUSH1 0xF8 AND SHR NOT AND DUP2 SSTORE JUMPDEST POP POP POP POP POP PUSH1 0x1 SWAP1 DUP2 SHL ADD SWAP1 SSTORE POP JUMP JUMPDEST DUP3 ISZERO ISZERO DUP2 MSTORE PUSH1 0x40 PUSH1 0x20 DUP3 ADD MSTORE PUSH1 0x0 PUSH2 0xE6B PUSH1 0x40 DUP4 ADD DUP5 PUSH2 0x3956 JUMP JUMPDEST DUP2 DUP2 SUB DUP2 DUP2 GT ISZERO PUSH2 0x9DD JUMPI PUSH2 0x9DD PUSH2 0x4275 JUMP JUMPDEST PUSH1 0x40 DUP2 MSTORE PUSH1 0x0 PUSH2 0x4404 PUSH1 0x40 DUP4 ADD DUP6 PUSH2 0x3956 JUMP JUMPDEST SWAP1 POP PUSH1 0x1 DUP1 PUSH1 0xA0 SHL SUB DUP4 AND PUSH1 0x20 DUP4 ADD MSTORE SWAP4 SWAP3 POP POP POP JUMP JUMPDEST DUP3 DUP2 MSTORE PUSH1 0x40 PUSH1 0x20 DUP3 ADD MSTORE PUSH1 0x0 PUSH2 0xE6B PUSH1 0x40 DUP4 ADD DUP5 PUSH2 0x3956 JUMP JUMPDEST DUP4 DUP2 MSTORE PUSH12 0xFFFFFFFFFFFFFFFFFFFFFFFF NOT DUP4 PUSH1 0x60 SHL AND PUSH1 0x20 DUP3 ADD MSTORE PUSH1 0x0 DUP3 MLOAD PUSH2 0x4464 DUP2 PUSH1 0x34 DUP6 ADD PUSH1 0x20 DUP8 ADD PUSH2 0x3932 JUMP JUMPDEST SWAP2 SWAP1 SWAP2 ADD PUSH1 0x34 ADD SWAP5 SWAP4 POP POP POP POP JUMP JUMPDEST PUSH1 0x40 DUP2 MSTORE PUSH1 0x0 PUSH2 0x4486 PUSH1 0x40 DUP4 ADD DUP6 PUSH2 0x3956 JUMP JUMPDEST SWAP1 POP DUP3 PUSH1 0x20 DUP4 ADD MSTORE SWAP4 SWAP3 POP POP POP JUMP JUMPDEST PUSH32 0x416363657373436F6E74726F6C3A206163636F756E7420000000000000000000 DUP2 MSTORE PUSH1 0x0 DUP4 MLOAD PUSH2 0x44CD DUP2 PUSH1 0x17 DUP6 ADD PUSH1 0x20 DUP9 ADD PUSH2 0x3932 JUMP JUMPDEST PUSH17 0x1034B99036B4B9B9B4B733903937B6329 PUSH1 0x7D SHL PUSH1 0x17 SWAP2 DUP5 ADD SWAP2 DUP3 ADD MSTORE DUP4 MLOAD PUSH2 0x44FE DUP2 PUSH1 0x28 DUP5 ADD PUSH1 0x20 DUP9 ADD PUSH2 0x3932 JUMP JUMPDEST ADD PUSH1 0x28 ADD SWAP5 SWAP4 POP POP POP POP JUMP JUMPDEST PUSH1 0x0 DUP2 PUSH2 0x4519 JUMPI PUSH2 0x4519 PUSH2 0x4275 JUMP JUMPDEST POP PUSH1 0x0 NOT ADD SWAP1 JUMP INVALID 0xB6 CREATE 0x28 EXTCODESIZE 0xD1 0xED STOP 0xC6 0xAA PUSH31 0x988A7516070240F3610A34D167391359B648EB37CEFCA26469706673582212 KECCAK256 RETURN PUSH11 0x69AA58DA7659D17024FDFE 0xDD 0x2B DUP7 MUL RETURN 0xC9 EXP 0xDE 0xE4 ADDMOD 0xD7 0xD9 0xF 0xF 0xB1 MOD 0xE5 0xAB 0x25 PUSH5 0x736F6C6343 STOP ADDMOD SGT STOP CALLER "},"methodIdentifiers":{"AML_ANALYST_ROLE()":"60732aae","AUDITOR_ROLE()":"6e1d616e","COMPLIANCE_OFFICER_ROLE()":"198596b5","DAILY_LIMIT()":"248ec326","DEFAULT_ADMIN_ROLE()":"a217fddf","EMERGENCY_RESPONDER_ROLE()":"7f52d804","REGULATORY_LIAISON_ROLE()":"af1f2bec","SUSPICIOUS_THRESHOLD()":"7c27d56d","VELOCITY_THRESHOLD()":"9990edfd","allowance(address,address)":"dd62ed3e","approve(address,uint256)":"095ea7b3","approvedJurisdictions(string)":"3f454a96","auditTrail(uint256)":"ddaf0929","balanceOf(address)":"70a08231","claimUnlockedTokens()":"4b50640f","culturalContributions(address)":"ec84a20c","dailyTransactionVolume(address)":"dda5f1ed","decimals()":"313ce567","decreaseAllowance(address,uint256)":"a457c2d7","emergencyAuthorizations(address)":"dcbb7e07","foundationPhaseUnlocked()":"54b78c57","generateQuarterlyReport(uint256)":"fdf0572e","getAuditEvent(uint256)":"05e21c83","getAuditTrailLength()":"49270315","getLockedBalance(address)":"c4086893","getRoleAdmin(bytes32)":"248a9ca3","getUserEmergencyAuth(address)":"f4da16fc","getUserKYCStatus(address)":"e1b628b5","grantRole(bytes32,address)":"2f2ff15d","hasRole(bytes32,address)":"91d14854","increaseAllowance(address,uint256)":"39509351","isJurisdictionApproved(string)":"380dccd6","isStatePaused(string)":"38c8383c","kycProfiles(address)":"723eb8e3","lastTransactionDate(address)":"4bc7f749","lockedBalances(address)":"0483a7f6","mintCulturalContribution(address,uint256,string,bool)":"fb8efcd2","mintEmergencyReward(address,uint256,string,bytes32,string)":"52dfee05","name()":"06fdde03","pauseState(string,string)":"4dd39fd9","pauseSystem(string)":"d5004c7c","paused()":"5c975abb","quarterlyReports(uint256)":"c813eb10","renounceRole(bytes32,address)":"36568abe","revokeRole(bytes32,address)":"d547741f","setEmergencyResponderAuthorization(address,bool,string,string[],uint256,string)":"665e49d5","setKYCStatus(address,bool,string,string,uint256)":"26695f2a","stateAuthorized(string)":"53fbb8f0","statePaused(string)":"70db8a6d","supportsInterface(bytes4)":"01ffc9a7","symbol()":"95d89b41","totalLockedTokens()":"f5c476f9","totalSupply()":"18160ddd","transactionRecords(bytes32)":"470b5646","transfer(address,uint256)":"a9059cbb","transferFrom(address,address,uint256)":"23b872dd","unlockFoundationPhase()":"5643ec18","unpauseState(string)":"171c3ec0","unpauseSystem()":"4c761240"}}}}}